{"contracts/TubePoint.sol":{"TubePoint":{"abi":[{"anonymous":false,"inputs":[{"indexed":false,"internalType":"address","name":"previousAdmin","type":"address"},{"indexed":false,"internalType":"address","name":"newAdmin","type":"address"}],"name":"AdminChanged","type":"event"},{"anonymous":false,"inputs":[{"indexed":true,"internalType":"address","name":"beacon","type":"address"}],"name":"BeaconUpgraded","type":"event"},{"anonymous":false,"inputs":[{"indexed":false,"internalType":"address","name":"user","type":"address"},{"indexed":false,"internalType":"string","name":"message","type":"string"},{"indexed":false,"internalType":"uint256","name":"timestamp","type":"uint256"}],"name":"Commented","type":"event"},{"anonymous":false,"inputs":[{"indexed":false,"internalType":"uint256","name":"_id","type":"uint256"},{"indexed":false,"internalType":"uint256","name":"_timestamp","type":"uint256"}],"name":"FileMigrated","type":"event"},{"anonymous":false,"inputs":[{"indexed":false,"internalType":"uint256","name":"id","type":"uint256"},{"indexed":false,"internalType":"bytes32","name":"fileId","type":"bytes32"},{"indexed":false,"internalType":"address","name":"from","type":"address"},{"indexed":false,"internalType":"uint256","name":"timestamp","type":"uint256"}],"name":"FileUploaded","type":"event"},{"anonymous":false,"inputs":[{"indexed":false,"internalType":"uint8","name":"version","type":"uint8"}],"name":"Initialized","type":"event"},{"anonymous":false,"inputs":[{"indexed":true,"internalType":"address","name":"previousOwner","type":"address"},{"indexed":true,"internalType":"address","name":"newOwner","type":"address"}],"name":"OwnershipTransferred","type":"event"},{"anonymous":false,"inputs":[{"indexed":true,"internalType":"address","name":"implementation","type":"address"}],"name":"Upgraded","type":"event"},{"inputs":[{"internalType":"uint256","name":"_id","type":"uint256"},{"internalType":"address","name":"_from","type":"address"},{"internalType":"string","name":"title","type":"string"},{"internalType":"string","name":"desc","type":"string"},{"internalType":"bytes32","name":"fileId","type":"bytes32"},{"internalType":"uint256","name":"dateTime","type":"uint256"}],"name":"addFilesFromMigration","outputs":[],"stateMutability":"nonpayable","type":"function"},{"inputs":[{"internalType":"uint256","name":"id","type":"uint256"}],"name":"addToPlaylist","outputs":[],"stateMutability":"nonpayable","type":"function"},{"inputs":[{"internalType":"string","name":"_message","type":"string"},{"internalType":"uint256","name":"id","type":"uint256"}],"name":"comment","outputs":[],"stateMutability":"nonpayable","type":"function"},{"inputs":[{"internalType":"uint256","name":"","type":"uint256"},{"internalType":"uint256","name":"","type":"uint256"}],"name":"comments","outputs":[{"internalType":"address","name":"user","type":"address"},{"internalType":"string","name":"message","type":"string"},{"internalType":"uint256","name":"timestamp","type":"uint256"}],"stateMutability":"view","type":"function"},{"inputs":[{"internalType":"uint256","name":"id","type":"uint256"}],"name":"dislike","outputs":[],"stateMutability":"nonpayable","type":"function"},{"inputs":[{"internalType":"uint256","name":"","type":"uint256"}],"name":"files","outputs":[{"internalType":"uint256","name":"id","type":"uint256"},{"internalType":"address","name":"from","type":"address"},{"internalType":"bytes32","name":"fileId","type":"bytes32"},{"internalType":"string","name":"title","type":"string"},{"internalType":"string","name":"desc","type":"string"},{"internalType":"uint256","name":"timestamp","type":"uint256"}],"stateMutability":"view","type":"function"},{"inputs":[],"name":"getAllVideosLength","outputs":[{"internalType":"uint256","name":"","type":"uint256"}],"stateMutability":"view","type":"function"},{"inputs":[{"internalType":"uint256","name":"id","type":"uint256"}],"name":"getComments","outputs":[{"components":[{"internalType":"address","name":"user","type":"address"},{"internalType":"string","name":"message","type":"string"},{"internalType":"uint256","name":"timestamp","type":"uint256"}],"internalType":"struct TubePoint.Comment[]","name":"","type":"tuple[]"}],"stateMutability":"view","type":"function"},{"inputs":[{"internalType":"uint256","name":"id","type":"uint256"}],"name":"getCommentsLength","outputs":[{"internalType":"uint256","name":"","type":"uint256"}],"stateMutability":"view","type":"function"},{"inputs":[{"internalType":"uint256","name":"id","type":"uint256"}],"name":"getLikes","outputs":[{"internalType":"uint256","name":"","type":"uint256"}],"stateMutability":"view","type":"function"},{"inputs":[{"internalType":"uint256","name":"cursor","type":"uint256"},{"internalType":"uint256","name":"howMany","type":"uint256"}],"name":"getPaginatedVideos","outputs":[{"components":[{"internalType":"uint256","name":"id","type":"uint256"},{"internalType":"address","name":"from","type":"address"},{"internalType":"bytes32","name":"fileId","type":"bytes32"},{"internalType":"string","name":"title","type":"string"},{"internalType":"string","name":"desc","type":"string"},{"internalType":"uint256","name":"timestamp","type":"uint256"}],"internalType":"struct TubePoint.File[]","name":"","type":"tuple[]"}],"stateMutability":"view","type":"function"},{"inputs":[{"internalType":"address","name":"_address","type":"address"}],"name":"getPlaylist","outputs":[{"components":[{"internalType":"uint256","name":"id","type":"uint256"},{"internalType":"address","name":"from","type":"address"},{"internalType":"bytes32","name":"fileId","type":"bytes32"},{"internalType":"string","name":"title","type":"string"},{"internalType":"string","name":"desc","type":"string"},{"internalType":"uint256","name":"timestamp","type":"uint256"}],"internalType":"struct TubePoint.File[]","name":"","type":"tuple[]"}],"stateMutability":"view","type":"function"},{"inputs":[{"internalType":"address","name":"_subAddress","type":"address"}],"name":"getSubscribe","outputs":[{"internalType":"uint256","name":"","type":"uint256"}],"stateMutability":"view","type":"function"},{"inputs":[{"internalType":"uint256","name":"fileId","type":"uint256"}],"name":"getVideo","outputs":[{"components":[{"internalType":"uint256","name":"id","type":"uint256"},{"internalType":"address","name":"from","type":"address"},{"internalType":"bytes32","name":"fileId","type":"bytes32"},{"internalType":"string","name":"title","type":"string"},{"internalType":"string","name":"desc","type":"string"},{"internalType":"uint256","name":"timestamp","type":"uint256"}],"internalType":"struct TubePoint.File","name":"","type":"tuple"}],"stateMutability":"view","type":"function"},{"inputs":[{"internalType":"address","name":"_user","type":"address"}],"name":"getVideosByUser","outputs":[{"components":[{"internalType":"uint256","name":"id","type":"uint256"},{"internalType":"address","name":"from","type":"address"},{"internalType":"bytes32","name":"fileId","type":"bytes32"},{"internalType":"string","name":"title","type":"string"},{"internalType":"string","name":"desc","type":"string"},{"internalType":"uint256","name":"timestamp","type":"uint256"}],"internalType":"struct TubePoint.File[]","name":"","type":"tuple[]"}],"stateMutability":"view","type":"function"},{"inputs":[{"internalType":"address","name":"_identityContractAddress","type":"address"},{"internalType":"string","name":"_identityHandle","type":"string"}],"name":"initialize","outputs":[],"stateMutability":"nonpayable","type":"function"},{"inputs":[{"internalType":"address","name":"_subAddress","type":"address"}],"name":"isSubscribed","outputs":[{"internalType":"bool","name":"","type":"bool"}],"stateMutability":"view","type":"function"},{"inputs":[{"internalType":"uint256","name":"id","type":"uint256"}],"name":"like","outputs":[],"stateMutability":"nonpayable","type":"function"},{"inputs":[{"internalType":"uint256","name":"","type":"uint256"}],"name":"likes","outputs":[{"internalType":"uint256","name":"counter","type":"uint256"}],"stateMutability":"view","type":"function"},{"inputs":[],"name":"owner","outputs":[{"internalType":"address","name":"","type":"address"}],"stateMutability":"view","type":"function"},{"inputs":[{"internalType":"address","name":"","type":"address"},{"internalType":"uint256","name":"","type":"uint256"}],"name":"playlist","outputs":[{"internalType":"uint256","name":"id","type":"uint256"},{"internalType":"address","name":"from","type":"address"},{"internalType":"bytes32","name":"fileId","type":"bytes32"},{"internalType":"string","name":"title","type":"string"},{"internalType":"string","name":"desc","type":"string"},{"internalType":"uint256","name":"timestamp","type":"uint256"}],"stateMutability":"view","type":"function"},{"inputs":[],"name":"proxiableUUID","outputs":[{"internalType":"bytes32","name":"","type":"bytes32"}],"stateMutability":"view","type":"function"},{"inputs":[],"name":"renounceOwnership","outputs":[],"stateMutability":"nonpayable","type":"function"},{"inputs":[{"internalType":"address","name":"_subAddress","type":"address"}],"name":"subscribe","outputs":[],"stateMutability":"nonpayable","type":"function"},{"inputs":[{"internalType":"address","name":"","type":"address"}],"name":"subscribers","outputs":[{"internalType":"uint256","name":"counter","type":"uint256"}],"stateMutability":"view","type":"function"},{"inputs":[{"internalType":"address","name":"newOwner","type":"address"}],"name":"transferOwnership","outputs":[],"stateMutability":"nonpayable","type":"function"},{"inputs":[{"internalType":"address","name":"_subAddress","type":"address"}],"name":"unSubscribe","outputs":[],"stateMutability":"nonpayable","type":"function"},{"inputs":[{"internalType":"uint256","name":"id","type":"uint256"},{"internalType":"string","name":"title","type":"string"},{"internalType":"string","name":"desc","type":"string"},{"internalType":"bytes32","name":"fileId","type":"bytes32"}],"name":"updateVideo","outputs":[],"stateMutability":"nonpayable","type":"function"},{"inputs":[{"internalType":"address","name":"newImplementation","type":"address"}],"name":"upgradeTo","outputs":[],"stateMutability":"nonpayable","type":"function"},{"inputs":[{"internalType":"address","name":"newImplementation","type":"address"},{"internalType":"bytes","name":"data","type":"bytes"}],"name":"upgradeToAndCall","outputs":[],"stateMutability":"payable","type":"function"},{"inputs":[{"internalType":"string","name":"title","type":"string"},{"internalType":"string","name":"desc","type":"string"},{"internalType":"bytes32","name":"fileId","type":"bytes32"}],"name":"uploadVideo","outputs":[],"stateMutability":"nonpayable","type":"function"},{"inputs":[{"internalType":"address","name":"","type":"address"},{"internalType":"uint256","name":"","type":"uint256"}],"name":"userLinkedFiles","outputs":[{"internalType":"uint256","name":"id","type":"uint256"},{"internalType":"address","name":"from","type":"address"},{"internalType":"bytes32","name":"fileId","type":"bytes32"},{"internalType":"string","name":"title","type":"string"},{"internalType":"string","name":"desc","type":"string"},{"internalType":"uint256","name":"timestamp","type":"uint256"}],"stateMutability":"view","type":"function"}],"evm":{"bytecode":{"linkReferences":{},"object":"60a06040523060601b60805234801561001757600080fd5b5060805160601c613733610060600039600081816109de01528181610a7901528181610c5301528181610ce901528181610de401528181612287015261231d01526137336000f3fe6080604052600436106101e35760003560e01c80637e091bff11610102578063d275987911610095578063f399e22e11610064578063f399e22e146105ff578063f4c714b41461061f578063f64faf311461063f578063fc6c776f1461067557600080fd5b8063d27598791461058a578063d927af7b1461059f578063e82935da146105bf578063f2fde38b146105df57600080fd5b80639dfa9f73116100d15780639dfa9f73146104c6578063a209081e146104e6578063a8db2e3214610513578063b92ae87c1461053357600080fd5b80637e091bff1461041f5780637e9dffe6146104515780638da5cb5b1461047e57806396a01631146104a657600080fd5b8063567cf4371161017a5780635f54241c116101495780635f54241c146103aa57806360492269146103ca578063618f8bbb146103ea578063715018a61461040a57600080fd5b8063567cf437146103105780635745ae28146103305780635c751ff21461035d5780635e8972241461037d57600080fd5b806341a7726a116101b657806341a7726a1461028d5780634f1ef286146102ad57806352273582146102c057806352d1902d146102fb57600080fd5b8063041d8c91146101e857806323edf6971461020a5780632893eca2146102405780633659cfe61461026d575b600080fd5b3480156101f457600080fd5b50610208610203366004612eb9565b6106a4565b005b34801561021657600080fd5b5061022a6102253660046130be565b610708565b60405161023791906132fa565b60405180910390f35b34801561024c57600080fd5b5061026061025b3660046130be565b61082c565b604051610237919061350c565b34801561027957600080fd5b50610208610288366004612eb9565b6109d3565b34801561029957600080fd5b506102086102a8366004612eb9565b610b76565b6102086102bb366004612ed3565b610c48565b3480156102cc57600080fd5b506102ed6102db3660046130be565b600090815260cc602052604090205490565b604051908152602001610237565b34801561030757600080fd5b506102ed610dd7565b34801561031c57600080fd5b5061020861032b3660046130be565b610e9c565b34801561033c57600080fd5b506102ed61034b366004612eb9565b60cf6020526000908152604090205481565b34801561036957600080fd5b5061020861037836600461307b565b611075565b34801561038957600080fd5b5061039d610398366004612eb9565b611167565b60405161023791906133a1565b3480156103b657600080fd5b5061039d6103c53660046131d5565b61132a565b3480156103d657600080fd5b506102086103e5366004613011565b61148f565b3480156103f657600080fd5b506102086104053660046130be565b6116c1565b34801561041657600080fd5b5061020861170d565b34801561042b57600080fd5b5061043f61043a366004612fb0565b611721565b6040516102379695949392919061351f565b34801561045d57600080fd5b506102ed61046c3660046130be565b60ce6020526000908152604090205481565b34801561048a57600080fd5b506097546040516001600160a01b039091168152602001610237565b3480156104b257600080fd5b506102086104c1366004613163565b611891565b3480156104d257600080fd5b5061043f6104e1366004612fb0565b6119ea565b3480156104f257600080fd5b506102ed6105013660046130be565b600090815260ce602052604090205490565b34801561051f57600080fd5b5061039d61052e366004612eb9565b611a06565b34801561053f57600080fd5b5061057a61054e366004612eb9565b6001600160a01b0316600090815260cf6020908152604080832033845260010190915290205460ff1690565b6040519015158152602001610237565b34801561059657600080fd5b506102ed611d27565b3480156105ab57600080fd5b506102086105ba3660046130d6565b611d37565b3480156105cb57600080fd5b506102086105da3660046130be565b612094565b3480156105eb57600080fd5b506102086105fa366004612eb9565b612103565b34801561060b57600080fd5b5061020861061a366004612f32565b612190565b34801561062b57600080fd5b5061043f61063a3660046130be565b6124ab565b34801561064b57600080fd5b506102ed61065a366004612eb9565b6001600160a01b0316600090815260cf602052604090205490565b34801561068157600080fd5b506106956106903660046131d5565b6124e5565b604051610237939291906132c8565b6001600160a01b038116600090815260cf6020908152604080832033845260018082019093529220805460ff19811690915560ff16908115151480156106ea5750815415155b156107035781548260006106fd836135b6565b91905055505b505050565b606060cc6000838152602001908152602001600020805480602002602001604051908101604052809291908181526020016000905b8282101561082157600084815260209081902060408051606081019091526003850290910180546001600160a01b031682526001810180549293919291840191610786906135eb565b80601f01602080910402602001604051908101604052809291908181526020018280546107b2906135eb565b80156107ff5780601f106107d4576101008083540402835291602001916107ff565b820191906000526020600020905b8154815290600101906020018083116107e257829003601f168201915b505050505081526020016002820154815250508152602001906001019061073d565b505050509050919050565b6040805160c080820183526000808352602080840182905283850182905260608085018190526080850181905260a0850183905286835260ca825291859020855193840186528054845260018101546001600160a01b03169184019190915260028101549483019490945260038401805493949293918401916108ae906135eb565b80601f01602080910402602001604051908101604052809291908181526020018280546108da906135eb565b80156109275780601f106108fc57610100808354040283529160200191610927565b820191906000526020600020905b81548152906001019060200180831161090a57829003601f168201915b50505050508152602001600482018054610940906135eb565b80601f016020809104026020016040519081016040528092919081815260200182805461096c906135eb565b80156109b95780601f1061098e576101008083540402835291602001916109b9565b820191906000526020600020905b81548152906001019060200180831161099c57829003601f168201915b505050505081526020016005820154815250509050919050565b306001600160a01b037f0000000000000000000000000000000000000000000000000000000000000000161415610a775760405162461bcd60e51b815260206004820152602c60248201527f46756e6374696f6e206d7573742062652063616c6c6564207468726f7567682060448201527f64656c656761746563616c6c000000000000000000000000000000000000000060648201526084015b60405180910390fd5b7f00000000000000000000000000000000000000000000000000000000000000006001600160a01b0316610ad27f360894a13ba1a3210667c828492db98dca3e2076cc3735a920a3ca505d382bbc546001600160a01b031690565b6001600160a01b031614610b4e5760405162461bcd60e51b815260206004820152602c60248201527f46756e6374696f6e206d7573742062652063616c6c6564207468726f7567682060448201527f6163746976652070726f787900000000000000000000000000000000000000006064820152608401610a6e565b610b57816125bb565b60408051600080825260208201909252610b73918391906125c3565b50565b6001600160a01b038116600090815260cf60209081526040808320338452600181019092529091205460ff1615610c155760405162461bcd60e51b815260206004820152602360248201527f596f7520616c7265616479207375627363726962656420746f2074686973207560448201527f73657200000000000000000000000000000000000000000000000000000000006064820152608401610a6e565b8054816000610c238361363f565b9091555050336000908152600191820160205260409020805460ff1916909117905550565b306001600160a01b037f0000000000000000000000000000000000000000000000000000000000000000161415610ce75760405162461bcd60e51b815260206004820152602c60248201527f46756e6374696f6e206d7573742062652063616c6c6564207468726f7567682060448201527f64656c656761746563616c6c00000000000000000000000000000000000000006064820152608401610a6e565b7f00000000000000000000000000000000000000000000000000000000000000006001600160a01b0316610d427f360894a13ba1a3210667c828492db98dca3e2076cc3735a920a3ca505d382bbc546001600160a01b031690565b6001600160a01b031614610dbe5760405162461bcd60e51b815260206004820152602c60248201527f46756e6374696f6e206d7573742062652063616c6c6564207468726f7567682060448201527f6163746976652070726f787900000000000000000000000000000000000000006064820152608401610a6e565b610dc7826125bb565b610dd3828260016125c3565b5050565b6000306001600160a01b037f00000000000000000000000000000000000000000000000000000000000000001614610e775760405162461bcd60e51b815260206004820152603860248201527f555550535570677261646561626c653a206d757374206e6f742062652063616c60448201527f6c6564207468726f7567682064656c656761746563616c6c00000000000000006064820152608401610a6e565b507f360894a13ba1a3210667c828492db98dca3e2076cc3735a920a3ca505d382bbc90565b6000805b33600090815260cd6020526040902054811015610f355733600090815260cd60205260409020805484919083908110610f02577f4e487b7100000000000000000000000000000000000000000000000000000000600052603260045260246000fd5b9060005260206000209060060201600001541415610f235760019150610f35565b80610f2d8161363f565b915050610ea0565b508015610faa5760405162461bcd60e51b815260206004820152602d60248201527f796f75206861766520616c72656164792061646465642074686973207669646560448201527f6f20696e20706c61796c697374000000000000000000000000000000000000006064820152608401610a6e565b33600090815260cd6020908152604080832085845260ca83529083208154600181810184559285529290932083546006909302019182558083015490820180547fffffffffffffffffffffffff0000000000000000000000000000000000000000166001600160a01b039290921691909117905560028083015490820155600380830180549183019161103c906135eb565b611047929190612c62565b50600482018160040190805461105c906135eb565b611067929190612c62565b506005918201549101555050565b600082511161108357600080fd5b3361108d57600080fd5b600081815260cc602090815260408083208151606081018352338152808401878152429382019390935281546001808201845592865294849020815160039096020180547fffffffffffffffffffffffff0000000000000000000000000000000000000000166001600160a01b039096169590951785559151805192949361111b9392850192910190612ced565b506040820151816002015550507f59aee10a182c49d9f99f11ce9e7eac21ff5c85878c9a52a91f4be25c9a4e0f4033834260405161115b939291906132c8565b60405180910390a15050565b6001600160a01b038116600090815260cd60209081526040808320805482518185028101850190935280835260609492939192909184015b828210156108215760008481526020908190206040805160c081018252600686029092018054835260018101546001600160a01b0316938301939093526002830154908201526003820180549192916060840191906111fd906135eb565b80601f0160208091040260200160405190810160405280929190818152602001828054611229906135eb565b80156112765780601f1061124b57610100808354040283529160200191611276565b820191906000526020600020905b81548152906001019060200180831161125957829003601f168201915b5050505050815260200160048201805461128f906135eb565b80601f01602080910402602001604051908101604052809291908181526020018280546112bb906135eb565b80156113085780601f106112dd57610100808354040283529160200191611308565b820191906000526020600020905b8154815290600101906020018083116112eb57829003601f168201915b505050505081526020016005820154815250508152602001906001019061119f565b60608161133660c95490565b811115611342575060c9545b60008167ffffffffffffffff811115611384577f4e487b7100000000000000000000000000000000000000000000000000000000600052604160045260246000fd5b60405190808252806020026020018201604052801561140157816020015b6040805160c081018252600080825260208083018290529282018190526060808301819052608083015260a082015282527fffffffffffffffffffffffffffffffffffffffffffffffffffffffffffffffff9092019101816113a25790505b50905060015b828111611486576114178661082c565b82611423600184613573565b8151811061145a577f4e487b7100000000000000000000000000000000000000000000000000000000600052603260045260246000fd5b602002602001018190525085806114709061363f565b965050808061147e9061363f565b915050611407565b50949350505050565b3361149957600080fd5b6114a760c980546001019055565b6040518060c001604052806114bb60c95490565b8152602001336001600160a01b031681526020018281526020018481526020018381526020014281525060ca60006114f260c95490565b8152602080820192909252604090810160002083518155838301516001820180547fffffffffffffffffffffffff0000000000000000000000000000000000000000166001600160a01b0390921691909117905590830151600282015560608301518051919261156a92600385019290910190612ced565b5060808201518051611586916004840191602090910190612ced565b5060a0919091015160059091015533600090815260cb602052604081209060ca906115b060c95490565b815260208082019290925260400160009081208354600181810186559483529290912081546006909302019182558281015492820180547fffffffffffffffffffffffff0000000000000000000000000000000000000000166001600160a01b0390941693909317909255600280830154908201556003808301805491830191611639906135eb565b611644929190612c62565b506004820181600401908054611659906135eb565b611664929190612c62565b506005918201549101557fbdb0068d4dc68bfc2ab68bb13ee946cc8e0742af7a38904598d16440dac68dc261169860c95490565b6040805191825260208201849052339082015242606082015260800160405180910390a1505050565b600081815260ce6020908152604080832033845260018082019093529220805460ff19811690915560ff16908115151480156106ea57508154156107035781548260006106fd836135b6565b611715612790565b61171f60006127ea565b565b60cb602052816000526040600020818154811061173d57600080fd5b600091825260209091206006909102018054600182015460028301546003840180549396506001600160a01b039092169450929161177a906135eb565b80601f01602080910402602001604051908101604052809291908181526020018280546117a6906135eb565b80156117f35780601f106117c8576101008083540402835291602001916117f3565b820191906000526020600020905b8154815290600101906020018083116117d657829003601f168201915b505050505090806004018054611808906135eb565b80601f0160208091040260200160405190810160405280929190818152602001828054611834906135eb565b80156118815780601f1061185657610100808354040283529160200191611881565b820191906000526020600020905b81548152906001019060200180831161186457829003601f168201915b5050505050908060050154905086565b6000841161189e57600080fd5b600084815260ca6020526040902060018101546001600160a01b031633146119085760405162461bcd60e51b815260206004820152601a60248201527f596f752063616e6e6f742065646974207468697320766964656f0000000000006044820152606401610a6e565b60018101546001600160a01b03166119625760405162461bcd60e51b815260206004820152601060248201527f5265636f7264206e6f7420666f756e64000000000000000000000000000000006044820152606401610a6e565b83516119779060038301906020870190612ced565b50825161198d9060048301906020860190612ced565b50600281018290554260058201819055604080518781526020810185905233818301526060810192909252517fbdb0068d4dc68bfc2ab68bb13ee946cc8e0742af7a38904598d16440dac68dc29181900360800190a15050505050565b60cd602052816000526040600020818154811061173d57600080fd5b6001600160a01b038116600090815260cb60205260408120546060918167ffffffffffffffff811115611a62577f4e487b7100000000000000000000000000000000000000000000000000000000600052604160045260246000fd5b604051908082528060200260200182016040528015611adf57816020015b6040805160c081018252600080825260208083018290529282018190526060808301819052608083015260a082015282527fffffffffffffffffffffffffffffffffffffffffffffffffffffffffffffffff909201910181611a805790505b50905060005b82811015611d1f576001600160a01b038516600090815260cb60205260409020805482908110611b3e577f4e487b7100000000000000000000000000000000000000000000000000000000600052603260045260246000fd5b90600052602060002090600602016040518060c0016040529081600082015481526020016001820160009054906101000a90046001600160a01b03166001600160a01b03166001600160a01b0316815260200160028201548152602001600382018054611baa906135eb565b80601f0160208091040260200160405190810160405280929190818152602001828054611bd6906135eb565b8015611c235780601f10611bf857610100808354040283529160200191611c23565b820191906000526020600020905b815481529060010190602001808311611c0657829003601f168201915b50505050508152602001600482018054611c3c906135eb565b80601f0160208091040260200160405190810160405280929190818152602001828054611c68906135eb565b8015611cb55780601f10611c8a57610100808354040283529160200191611cb5565b820191906000526020600020905b815481529060010190602001808311611c9857829003601f168201915b50505050508152602001600582015481525050828281518110611d01577f4e487b7100000000000000000000000000000000000000000000000000000000600052603260045260246000fd5b60200260200101819052508080611d179061363f565b915050611ae5565b509392505050565b6000611d3260c95490565b905090565b60d0546040517faf1d5e480000000000000000000000000000000000000000000000000000000081526001600160a01b039091169063af1d5e4890611d839060d1903390600401613433565b60206040518083038186803b158015611d9b57600080fd5b505afa158015611daf573d6000803e3d6000fd5b505050506040513d601f19601f82011682018060405250810190611dd39190612fd9565b611e1f5760405162461bcd60e51b815260206004820152600e60248201527f4e6f742061206465706c6f7965720000000000000000000000000000000000006044820152606401610a6e565b6001600160a01b038516611e755760405162461bcd60e51b815260206004820152601760248201527f4e6f205a65726f204164647265737320416c6c6f7765640000000000000000006044820152606401610a6e565b6040805160c0810182528781526001600160a01b038781166020808401918252838501878152606085018a8152608086018a905260a0860188905260008d815260ca8452969096208551815592516001840180547fffffffffffffffffffffffff00000000000000000000000000000000000000001691909516179093559151600282015592518051929392611f119260038501920190612ced565b5060808201518051611f2d916004840191602090910190612ced565b5060a091909101516005909101556001600160a01b03808616600090815260cb602090815260408083208a845260ca83529083208154600181810184559285529290932083546006909302019182558083015490820180547fffffffffffffffffffffffff0000000000000000000000000000000000000000169190941617909255600280820154908301556003808201805492939291830191611fd0906135eb565b611fdb929190612c62565b506004820181600401908054611ff0906135eb565b611ffb929190612c62565b5060059182015491015560408051878152602081018490526001600160a01b038716818301526060810183905290517fbdb0068d4dc68bfc2ab68bb13ee946cc8e0742af7a38904598d16440dac68dc29181900360800190a1604080518781524260208201527fbd391401f0a25cf7ff74a2c8c0b109d162a27f6007f6a39b00d6be9866fc3e97910160405180910390a1505050505050565b600081815260ce60209081526040808320338452600181019092529091205460ff1615610c155760405162461bcd60e51b815260206004820152601c60248201527f596f7520616c7265616479206c696b6564207468697320766964656f000000006044820152606401610a6e565b61210b612790565b6001600160a01b0381166121875760405162461bcd60e51b815260206004820152602660248201527f4f776e61626c653a206e6577206f776e657220697320746865207a65726f206160448201527f64647265737300000000000000000000000000000000000000000000000000006064820152608401610a6e565b610b73816127ea565b600054610100900460ff16158080156121b05750600054600160ff909116105b806121ca5750303b1580156121ca575060005460ff166001145b61223c5760405162461bcd60e51b815260206004820152602e60248201527f496e697469616c697a61626c653a20636f6e747261637420697320616c72656160448201527f647920696e697469616c697a65640000000000000000000000000000000000006064820152608401610a6e565b6000805460ff19166001179055801561227c57600080547fffffffffffffffffffffffffffffffffffffffffffffffffffffffffffff00ff166101001790555b306001600160a01b037f000000000000000000000000000000000000000000000000000000000000000016141561231b5760405162461bcd60e51b815260206004820152602c60248201527f46756e6374696f6e206d7573742062652063616c6c6564207468726f7567682060448201527f64656c656761746563616c6c00000000000000000000000000000000000000006064820152608401610a6e565b7f00000000000000000000000000000000000000000000000000000000000000006001600160a01b03166123767f360894a13ba1a3210667c828492db98dca3e2076cc3735a920a3ca505d382bbc546001600160a01b031690565b6001600160a01b0316146123f25760405162461bcd60e51b815260206004820152602c60248201527f46756e6374696f6e206d7573742062652063616c6c6564207468726f7567682060448201527f6163746976652070726f787900000000000000000000000000000000000000006064820152608401610a6e565b6123fa612854565b6124026128d9565b60d080547fffffffffffffffffffffffff0000000000000000000000000000000000000000166001600160a01b03861617905561244160d18484612d61565b5080156124a557600080547fffffffffffffffffffffffffffffffffffffffffffffffffffffffffffff00ff169055604051600181527f7f26b83ff96e1f2b6a682f133852f6798a09c465da95921460cefb38474024989060200160405180910390a15b50505050565b60ca60205260009081526040902080546001820154600283015460038401805493946001600160a01b039093169391929161177a906135eb565b60cc602052816000526040600020818154811061250157600080fd5b6000918252602090912060039091020180546001820180546001600160a01b039092169450919250612532906135eb565b80601f016020809104026020016040519081016040528092919081815260200182805461255e906135eb565b80156125ab5780601f10612580576101008083540402835291602001916125ab565b820191906000526020600020905b81548152906001019060200180831161258e57829003601f168201915b5050505050908060020154905083565b610b73612790565b7f4910fdfa16fed3260ed0e7147f7cc6da11a60208b5b9406d12a635614ffd91435460ff16156125f65761070383612956565b826001600160a01b03166352d1902d6040518163ffffffff1660e01b815260040160206040518083038186803b15801561262f57600080fd5b505afa92505050801561267d575060408051601f3d9081017fffffffffffffffffffffffffffffffffffffffffffffffffffffffffffffffe016820190925261267a91810190612ff9565b60015b6126ef5760405162461bcd60e51b815260206004820152602e60248201527f45524331393637557067726164653a206e657720696d706c656d656e7461746960448201527f6f6e206973206e6f7420555550530000000000000000000000000000000000006064820152608401610a6e565b7f360894a13ba1a3210667c828492db98dca3e2076cc3735a920a3ca505d382bbc81146127845760405162461bcd60e51b815260206004820152602960248201527f45524331393637557067726164653a20756e737570706f727465642070726f7860448201527f6961626c655555494400000000000000000000000000000000000000000000006064820152608401610a6e565b50610703838383612a2c565b6097546001600160a01b0316331461171f5760405162461bcd60e51b815260206004820181905260248201527f4f776e61626c653a2063616c6c6572206973206e6f7420746865206f776e65726044820152606401610a6e565b609780546001600160a01b038381167fffffffffffffffffffffffff0000000000000000000000000000000000000000831681179093556040519116919082907f8be0079c531659141344cd1fd0a4f28419497f9722a3daafe3b4186f6b6457e090600090a35050565b600054610100900460ff166128d15760405162461bcd60e51b815260206004820152602b60248201527f496e697469616c697a61626c653a20636f6e7472616374206973206e6f74206960448201527f6e697469616c697a696e670000000000000000000000000000000000000000006064820152608401610a6e565b61171f612a51565b600054610100900460ff1661171f5760405162461bcd60e51b815260206004820152602b60248201527f496e697469616c697a61626c653a20636f6e7472616374206973206e6f74206960448201527f6e697469616c697a696e670000000000000000000000000000000000000000006064820152608401610a6e565b6001600160a01b0381163b6129d35760405162461bcd60e51b815260206004820152602d60248201527f455243313936373a206e657720696d706c656d656e746174696f6e206973206e60448201527f6f74206120636f6e7472616374000000000000000000000000000000000000006064820152608401610a6e565b7f360894a13ba1a3210667c828492db98dca3e2076cc3735a920a3ca505d382bbc80547fffffffffffffffffffffffff0000000000000000000000000000000000000000166001600160a01b0392909216919091179055565b612a3583612ad7565b600082511180612a425750805b15610703576124a58383612b17565b600054610100900460ff16612ace5760405162461bcd60e51b815260206004820152602b60248201527f496e697469616c697a61626c653a20636f6e7472616374206973206e6f74206960448201527f6e697469616c697a696e670000000000000000000000000000000000000000006064820152608401610a6e565b61171f336127ea565b612ae081612956565b6040516001600160a01b038216907fbc7cd75a20ee27fd9adebab32041f755214dbc6bffa90cc0225b39da2e5c2d3b90600090a250565b60606001600160a01b0383163b612b965760405162461bcd60e51b815260206004820152602660248201527f416464726573733a2064656c65676174652063616c6c20746f206e6f6e2d636f60448201527f6e747261637400000000000000000000000000000000000000000000000000006064820152608401610a6e565b600080846001600160a01b031684604051612bb191906132ac565b600060405180830381855af49150503d8060008114612bec576040519150601f19603f3d011682016040523d82523d6000602084013e612bf1565b606091505b5091509150612c1982826040518060600160405280602781526020016136d760279139612c22565b95945050505050565b60608315612c31575081612c5b565b825115612c415782518084602001fd5b8160405162461bcd60e51b8152600401610a6e9190613420565b9392505050565b828054612c6e906135eb565b90600052602060002090601f016020900481019282612c905760008555612cdd565b82601f10612ca15780548555612cdd565b82800160010185558215612cdd57600052602060002091601f016020900482015b82811115612cdd578254825591600101919060010190612cc2565b50612ce9929150612dd5565b5090565b828054612cf9906135eb565b90600052602060002090601f016020900481019282612d1b5760008555612cdd565b82601f10612d3457805160ff1916838001178555612cdd565b82800160010185558215612cdd579182015b82811115612cdd578251825591602001919060010190612d46565b828054612d6d906135eb565b90600052602060002090601f016020900481019282612d8f5760008555612cdd565b82601f10612da85782800160ff19823516178555612cdd565b82800160010185558215612cdd579182015b82811115612cdd578235825591602001919060010190612dba565b5b80821115612ce95760008155600101612dd6565b600067ffffffffffffffff80841115612e0557612e056136a7565b604051601f85017fffffffffffffffffffffffffffffffffffffffffffffffffffffffffffffffe0908116603f01168101908282118183101715612e4b57612e4b6136a7565b81604052809350858152868686011115612e6457600080fd5b858560208301376000602087830101525050509392505050565b80356001600160a01b0381168114612e9557600080fd5b919050565b600082601f830112612eaa578081fd5b612c5b83833560208501612dea565b600060208284031215612eca578081fd5b612c5b82612e7e565b60008060408385031215612ee5578081fd5b612eee83612e7e565b9150602083013567ffffffffffffffff811115612f09578182fd5b8301601f81018513612f19578182fd5b612f2885823560208401612dea565b9150509250929050565b600080600060408486031215612f46578081fd5b612f4f84612e7e565b9250602084013567ffffffffffffffff80821115612f6b578283fd5b818601915086601f830112612f7e578283fd5b813581811115612f8c578384fd5b876020828501011115612f9d578384fd5b6020830194508093505050509250925092565b60008060408385031215612fc2578182fd5b612fcb83612e7e565b946020939093013593505050565b600060208284031215612fea578081fd5b81518015158114612c5b578182fd5b60006020828403121561300a578081fd5b5051919050565b600080600060608486031215613025578283fd5b833567ffffffffffffffff8082111561303c578485fd5b61304887838801612e9a565b9450602086013591508082111561305d578384fd5b5061306a86828701612e9a565b925050604084013590509250925092565b6000806040838503121561308d578182fd5b823567ffffffffffffffff8111156130a3578283fd5b6130af85828601612e9a565b95602094909401359450505050565b6000602082840312156130cf578081fd5b5035919050565b60008060008060008060c087890312156130ee578182fd5b863595506130fe60208801612e7e565b9450604087013567ffffffffffffffff8082111561311a578384fd5b6131268a838b01612e9a565b9550606089013591508082111561313b578384fd5b5061314889828a01612e9a565b9350506080870135915060a087013590509295509295509295565b60008060008060808587031215613178578384fd5b84359350602085013567ffffffffffffffff80821115613196578485fd5b6131a288838901612e9a565b945060408701359150808211156131b7578384fd5b506131c487828801612e9a565b949793965093946060013593505050565b600080604083850312156131e7578182fd5b50508035926020909101359150565b6000815180845261320e81602086016020860161358a565b601f017fffffffffffffffffffffffffffffffffffffffffffffffffffffffffffffffe0169290920160200192915050565b805182526001600160a01b036020820151166020830152604081015160408301526000606082015160c0606085015261327c60c08501826131f6565b90506080830151848203608086015261329582826131f6565b91505060a083015160a08501528091505092915050565b600082516132be81846020870161358a565b9190910192915050565b6001600160a01b03841681526060602082015260006132ea60608301856131f6565b9050826040830152949350505050565b60006020808301818452808551808352604092508286019150828160051b870101848801865b83811015613393577fffffffffffffffffffffffffffffffffffffffffffffffffffffffffffffffc0898403018552815160606001600160a01b03825116855288820151818a870152613375828701826131f6565b92890151958901959095525094870194925090860190600101613320565b509098975050505050505050565b6000602080830181845280855180835260408601915060408160051b8701019250838701855b82811015613413577fffffffffffffffffffffffffffffffffffffffffffffffffffffffffffffffc0888603018452613401858351613240565b945092850192908501906001016133c7565b5092979650505050505050565b602081526000612c5b60208301846131f6565b60408152600080845482600182811c91508083168061345357607f831692505b602080841082141561348c577f4e487b710000000000000000000000000000000000000000000000000000000087526022600452602487fd5b60408801849052606088018280156134ab57600181146134bc576134e6565b60ff198716825282820197506134e6565b60008c815260209020895b878110156134e0578154848201529086019084016134c7565b83019850505b50508596506134ff8189018a6001600160a01b03169052565b5050505050509392505050565b602081526000612c5b6020830184613240565b8681526001600160a01b038616602082015284604082015260c06060820152600061354d60c08301866131f6565b828103608084015261355f81866131f6565b9150508260a0830152979650505050505050565b60008282101561358557613585613678565b500390565b60005b838110156135a557818101518382015260200161358d565b838111156124a55750506000910152565b6000816135c5576135c5613678565b507fffffffffffffffffffffffffffffffffffffffffffffffffffffffffffffffff0190565b600181811c908216806135ff57607f821691505b60208210811415613639577f4e487b7100000000000000000000000000000000000000000000000000000000600052602260045260246000fd5b50919050565b60007fffffffffffffffffffffffffffffffffffffffffffffffffffffffffffffffff82141561367157613671613678565b5060010190565b7f4e487b7100000000000000000000000000000000000000000000000000000000600052601160045260246000fd5b7f4e487b7100000000000000000000000000000000000000000000000000000000600052604160045260246000fdfe416464726573733a206c6f772d6c6576656c2064656c65676174652063616c6c206661696c6564a2646970667358221220f85cf9754ce008d8c35706074bad97fe589d3c2aa14ee3dfc9a56de6bc365f5d64736f6c63430008040033","opcodes":"PUSH1 0xA0 PUSH1 0x40 MSTORE ADDRESS PUSH1 0x60 SHL PUSH1 0x80 MSTORE CALLVALUE DUP1 ISZERO PUSH2 0x17 JUMPI PUSH1 0x0 DUP1 REVERT JUMPDEST POP PUSH1 0x80 MLOAD PUSH1 0x60 SHR PUSH2 0x3733 PUSH2 0x60 PUSH1 0x0 CODECOPY PUSH1 0x0 DUP2 DUP2 PUSH2 0x9DE ADD MSTORE DUP2 DUP2 PUSH2 0xA79 ADD MSTORE DUP2 DUP2 PUSH2 0xC53 ADD MSTORE DUP2 DUP2 PUSH2 0xCE9 ADD MSTORE DUP2 DUP2 PUSH2 0xDE4 ADD MSTORE DUP2 DUP2 PUSH2 0x2287 ADD MSTORE PUSH2 0x231D ADD MSTORE PUSH2 0x3733 PUSH1 0x0 RETURN INVALID PUSH1 0x80 PUSH1 0x40 MSTORE PUSH1 0x4 CALLDATASIZE LT PUSH2 0x1E3 JUMPI PUSH1 0x0 CALLDATALOAD PUSH1 0xE0 SHR DUP1 PUSH4 0x7E091BFF GT PUSH2 0x102 JUMPI DUP1 PUSH4 0xD2759879 GT PUSH2 0x95 JUMPI DUP1 PUSH4 0xF399E22E GT PUSH2 0x64 JUMPI DUP1 PUSH4 0xF399E22E EQ PUSH2 0x5FF JUMPI DUP1 PUSH4 0xF4C714B4 EQ PUSH2 0x61F JUMPI DUP1 PUSH4 0xF64FAF31 EQ PUSH2 0x63F JUMPI DUP1 PUSH4 0xFC6C776F EQ PUSH2 0x675 JUMPI PUSH1 0x0 DUP1 REVERT JUMPDEST DUP1 PUSH4 0xD2759879 EQ PUSH2 0x58A JUMPI DUP1 PUSH4 0xD927AF7B EQ PUSH2 0x59F JUMPI DUP1 PUSH4 0xE82935DA EQ PUSH2 0x5BF JUMPI DUP1 PUSH4 0xF2FDE38B EQ PUSH2 0x5DF JUMPI PUSH1 0x0 DUP1 REVERT JUMPDEST DUP1 PUSH4 0x9DFA9F73 GT PUSH2 0xD1 JUMPI DUP1 PUSH4 0x9DFA9F73 EQ PUSH2 0x4C6 JUMPI DUP1 PUSH4 0xA209081E EQ PUSH2 0x4E6 JUMPI DUP1 PUSH4 0xA8DB2E32 EQ PUSH2 0x513 JUMPI DUP1 PUSH4 0xB92AE87C EQ PUSH2 0x533 JUMPI PUSH1 0x0 DUP1 REVERT JUMPDEST DUP1 PUSH4 0x7E091BFF EQ PUSH2 0x41F JUMPI DUP1 PUSH4 0x7E9DFFE6 EQ PUSH2 0x451 JUMPI DUP1 PUSH4 0x8DA5CB5B EQ PUSH2 0x47E JUMPI DUP1 PUSH4 0x96A01631 EQ PUSH2 0x4A6 JUMPI PUSH1 0x0 DUP1 REVERT JUMPDEST DUP1 PUSH4 0x567CF437 GT PUSH2 0x17A JUMPI DUP1 PUSH4 0x5F54241C GT PUSH2 0x149 JUMPI DUP1 PUSH4 0x5F54241C EQ PUSH2 0x3AA JUMPI DUP1 PUSH4 0x60492269 EQ PUSH2 0x3CA JUMPI DUP1 PUSH4 0x618F8BBB EQ PUSH2 0x3EA JUMPI DUP1 PUSH4 0x715018A6 EQ PUSH2 0x40A JUMPI PUSH1 0x0 DUP1 REVERT JUMPDEST DUP1 PUSH4 0x567CF437 EQ PUSH2 0x310 JUMPI DUP1 PUSH4 0x5745AE28 EQ PUSH2 0x330 JUMPI DUP1 PUSH4 0x5C751FF2 EQ PUSH2 0x35D JUMPI DUP1 PUSH4 0x5E897224 EQ PUSH2 0x37D JUMPI PUSH1 0x0 DUP1 REVERT JUMPDEST DUP1 PUSH4 0x41A7726A GT PUSH2 0x1B6 JUMPI DUP1 PUSH4 0x41A7726A EQ PUSH2 0x28D JUMPI DUP1 PUSH4 0x4F1EF286 EQ PUSH2 0x2AD JUMPI DUP1 PUSH4 0x52273582 EQ PUSH2 0x2C0 JUMPI DUP1 PUSH4 0x52D1902D EQ PUSH2 0x2FB JUMPI PUSH1 0x0 DUP1 REVERT JUMPDEST DUP1 PUSH4 0x41D8C91 EQ PUSH2 0x1E8 JUMPI DUP1 PUSH4 0x23EDF697 EQ PUSH2 0x20A JUMPI DUP1 PUSH4 0x2893ECA2 EQ PUSH2 0x240 JUMPI DUP1 PUSH4 0x3659CFE6 EQ PUSH2 0x26D JUMPI JUMPDEST PUSH1 0x0 DUP1 REVERT JUMPDEST CALLVALUE DUP1 ISZERO PUSH2 0x1F4 JUMPI PUSH1 0x0 DUP1 REVERT JUMPDEST POP PUSH2 0x208 PUSH2 0x203 CALLDATASIZE PUSH1 0x4 PUSH2 0x2EB9 JUMP JUMPDEST PUSH2 0x6A4 JUMP JUMPDEST STOP JUMPDEST CALLVALUE DUP1 ISZERO PUSH2 0x216 JUMPI PUSH1 0x0 DUP1 REVERT JUMPDEST POP PUSH2 0x22A PUSH2 0x225 CALLDATASIZE PUSH1 0x4 PUSH2 0x30BE JUMP JUMPDEST PUSH2 0x708 JUMP JUMPDEST PUSH1 0x40 MLOAD PUSH2 0x237 SWAP2 SWAP1 PUSH2 0x32FA JUMP JUMPDEST PUSH1 0x40 MLOAD DUP1 SWAP2 SUB SWAP1 RETURN JUMPDEST CALLVALUE DUP1 ISZERO PUSH2 0x24C JUMPI PUSH1 0x0 DUP1 REVERT JUMPDEST POP PUSH2 0x260 PUSH2 0x25B CALLDATASIZE PUSH1 0x4 PUSH2 0x30BE JUMP JUMPDEST PUSH2 0x82C JUMP JUMPDEST PUSH1 0x40 MLOAD PUSH2 0x237 SWAP2 SWAP1 PUSH2 0x350C JUMP JUMPDEST CALLVALUE DUP1 ISZERO PUSH2 0x279 JUMPI PUSH1 0x0 DUP1 REVERT JUMPDEST POP PUSH2 0x208 PUSH2 0x288 CALLDATASIZE PUSH1 0x4 PUSH2 0x2EB9 JUMP JUMPDEST PUSH2 0x9D3 JUMP JUMPDEST CALLVALUE DUP1 ISZERO PUSH2 0x299 JUMPI PUSH1 0x0 DUP1 REVERT JUMPDEST POP PUSH2 0x208 PUSH2 0x2A8 CALLDATASIZE PUSH1 0x4 PUSH2 0x2EB9 JUMP JUMPDEST PUSH2 0xB76 JUMP JUMPDEST PUSH2 0x208 PUSH2 0x2BB CALLDATASIZE PUSH1 0x4 PUSH2 0x2ED3 JUMP JUMPDEST PUSH2 0xC48 JUMP JUMPDEST CALLVALUE DUP1 ISZERO PUSH2 0x2CC JUMPI PUSH1 0x0 DUP1 REVERT JUMPDEST POP PUSH2 0x2ED PUSH2 0x2DB CALLDATASIZE PUSH1 0x4 PUSH2 0x30BE JUMP JUMPDEST PUSH1 0x0 SWAP1 DUP2 MSTORE PUSH1 0xCC PUSH1 0x20 MSTORE PUSH1 0x40 SWAP1 KECCAK256 SLOAD SWAP1 JUMP JUMPDEST PUSH1 0x40 MLOAD SWAP1 DUP2 MSTORE PUSH1 0x20 ADD PUSH2 0x237 JUMP JUMPDEST CALLVALUE DUP1 ISZERO PUSH2 0x307 JUMPI PUSH1 0x0 DUP1 REVERT JUMPDEST POP PUSH2 0x2ED PUSH2 0xDD7 JUMP JUMPDEST CALLVALUE DUP1 ISZERO PUSH2 0x31C JUMPI PUSH1 0x0 DUP1 REVERT JUMPDEST POP PUSH2 0x208 PUSH2 0x32B CALLDATASIZE PUSH1 0x4 PUSH2 0x30BE JUMP JUMPDEST PUSH2 0xE9C JUMP JUMPDEST CALLVALUE DUP1 ISZERO PUSH2 0x33C JUMPI PUSH1 0x0 DUP1 REVERT JUMPDEST POP PUSH2 0x2ED PUSH2 0x34B CALLDATASIZE PUSH1 0x4 PUSH2 0x2EB9 JUMP JUMPDEST PUSH1 0xCF PUSH1 0x20 MSTORE PUSH1 0x0 SWAP1 DUP2 MSTORE PUSH1 0x40 SWAP1 KECCAK256 SLOAD DUP2 JUMP JUMPDEST CALLVALUE DUP1 ISZERO PUSH2 0x369 JUMPI PUSH1 0x0 DUP1 REVERT JUMPDEST POP PUSH2 0x208 PUSH2 0x378 CALLDATASIZE PUSH1 0x4 PUSH2 0x307B JUMP JUMPDEST PUSH2 0x1075 JUMP JUMPDEST CALLVALUE DUP1 ISZERO PUSH2 0x389 JUMPI PUSH1 0x0 DUP1 REVERT JUMPDEST POP PUSH2 0x39D PUSH2 0x398 CALLDATASIZE PUSH1 0x4 PUSH2 0x2EB9 JUMP JUMPDEST PUSH2 0x1167 JUMP JUMPDEST PUSH1 0x40 MLOAD PUSH2 0x237 SWAP2 SWAP1 PUSH2 0x33A1 JUMP JUMPDEST CALLVALUE DUP1 ISZERO PUSH2 0x3B6 JUMPI PUSH1 0x0 DUP1 REVERT JUMPDEST POP PUSH2 0x39D PUSH2 0x3C5 CALLDATASIZE PUSH1 0x4 PUSH2 0x31D5 JUMP JUMPDEST PUSH2 0x132A JUMP JUMPDEST CALLVALUE DUP1 ISZERO PUSH2 0x3D6 JUMPI PUSH1 0x0 DUP1 REVERT JUMPDEST POP PUSH2 0x208 PUSH2 0x3E5 CALLDATASIZE PUSH1 0x4 PUSH2 0x3011 JUMP JUMPDEST PUSH2 0x148F JUMP JUMPDEST CALLVALUE DUP1 ISZERO PUSH2 0x3F6 JUMPI PUSH1 0x0 DUP1 REVERT JUMPDEST POP PUSH2 0x208 PUSH2 0x405 CALLDATASIZE PUSH1 0x4 PUSH2 0x30BE JUMP JUMPDEST PUSH2 0x16C1 JUMP JUMPDEST CALLVALUE DUP1 ISZERO PUSH2 0x416 JUMPI PUSH1 0x0 DUP1 REVERT JUMPDEST POP PUSH2 0x208 PUSH2 0x170D JUMP JUMPDEST CALLVALUE DUP1 ISZERO PUSH2 0x42B JUMPI PUSH1 0x0 DUP1 REVERT JUMPDEST POP PUSH2 0x43F PUSH2 0x43A CALLDATASIZE PUSH1 0x4 PUSH2 0x2FB0 JUMP JUMPDEST PUSH2 0x1721 JUMP JUMPDEST PUSH1 0x40 MLOAD PUSH2 0x237 SWAP7 SWAP6 SWAP5 SWAP4 SWAP3 SWAP2 SWAP1 PUSH2 0x351F JUMP JUMPDEST CALLVALUE DUP1 ISZERO PUSH2 0x45D JUMPI PUSH1 0x0 DUP1 REVERT JUMPDEST POP PUSH2 0x2ED PUSH2 0x46C CALLDATASIZE PUSH1 0x4 PUSH2 0x30BE JUMP JUMPDEST PUSH1 0xCE PUSH1 0x20 MSTORE PUSH1 0x0 SWAP1 DUP2 MSTORE PUSH1 0x40 SWAP1 KECCAK256 SLOAD DUP2 JUMP JUMPDEST CALLVALUE DUP1 ISZERO PUSH2 0x48A JUMPI PUSH1 0x0 DUP1 REVERT JUMPDEST POP PUSH1 0x97 SLOAD PUSH1 0x40 MLOAD PUSH1 0x1 PUSH1 0x1 PUSH1 0xA0 SHL SUB SWAP1 SWAP2 AND DUP2 MSTORE PUSH1 0x20 ADD PUSH2 0x237 JUMP JUMPDEST CALLVALUE DUP1 ISZERO PUSH2 0x4B2 JUMPI PUSH1 0x0 DUP1 REVERT JUMPDEST POP PUSH2 0x208 PUSH2 0x4C1 CALLDATASIZE PUSH1 0x4 PUSH2 0x3163 JUMP JUMPDEST PUSH2 0x1891 JUMP JUMPDEST CALLVALUE DUP1 ISZERO PUSH2 0x4D2 JUMPI PUSH1 0x0 DUP1 REVERT JUMPDEST POP PUSH2 0x43F PUSH2 0x4E1 CALLDATASIZE PUSH1 0x4 PUSH2 0x2FB0 JUMP JUMPDEST PUSH2 0x19EA JUMP JUMPDEST CALLVALUE DUP1 ISZERO PUSH2 0x4F2 JUMPI PUSH1 0x0 DUP1 REVERT JUMPDEST POP PUSH2 0x2ED PUSH2 0x501 CALLDATASIZE PUSH1 0x4 PUSH2 0x30BE JUMP JUMPDEST PUSH1 0x0 SWAP1 DUP2 MSTORE PUSH1 0xCE PUSH1 0x20 MSTORE PUSH1 0x40 SWAP1 KECCAK256 SLOAD SWAP1 JUMP JUMPDEST CALLVALUE DUP1 ISZERO PUSH2 0x51F JUMPI PUSH1 0x0 DUP1 REVERT JUMPDEST POP PUSH2 0x39D PUSH2 0x52E CALLDATASIZE PUSH1 0x4 PUSH2 0x2EB9 JUMP JUMPDEST PUSH2 0x1A06 JUMP JUMPDEST CALLVALUE DUP1 ISZERO PUSH2 0x53F JUMPI PUSH1 0x0 DUP1 REVERT JUMPDEST POP PUSH2 0x57A PUSH2 0x54E CALLDATASIZE PUSH1 0x4 PUSH2 0x2EB9 JUMP JUMPDEST PUSH1 0x1 PUSH1 0x1 PUSH1 0xA0 SHL SUB AND PUSH1 0x0 SWAP1 DUP2 MSTORE PUSH1 0xCF PUSH1 0x20 SWAP1 DUP2 MSTORE PUSH1 0x40 DUP1 DUP4 KECCAK256 CALLER DUP5 MSTORE PUSH1 0x1 ADD SWAP1 SWAP2 MSTORE SWAP1 KECCAK256 SLOAD PUSH1 0xFF AND SWAP1 JUMP JUMPDEST PUSH1 0x40 MLOAD SWAP1 ISZERO ISZERO DUP2 MSTORE PUSH1 0x20 ADD PUSH2 0x237 JUMP JUMPDEST CALLVALUE DUP1 ISZERO PUSH2 0x596 JUMPI PUSH1 0x0 DUP1 REVERT JUMPDEST POP PUSH2 0x2ED PUSH2 0x1D27 JUMP JUMPDEST CALLVALUE DUP1 ISZERO PUSH2 0x5AB JUMPI PUSH1 0x0 DUP1 REVERT JUMPDEST POP PUSH2 0x208 PUSH2 0x5BA CALLDATASIZE PUSH1 0x4 PUSH2 0x30D6 JUMP JUMPDEST PUSH2 0x1D37 JUMP JUMPDEST CALLVALUE DUP1 ISZERO PUSH2 0x5CB JUMPI PUSH1 0x0 DUP1 REVERT JUMPDEST POP PUSH2 0x208 PUSH2 0x5DA CALLDATASIZE PUSH1 0x4 PUSH2 0x30BE JUMP JUMPDEST PUSH2 0x2094 JUMP JUMPDEST CALLVALUE DUP1 ISZERO PUSH2 0x5EB JUMPI PUSH1 0x0 DUP1 REVERT JUMPDEST POP PUSH2 0x208 PUSH2 0x5FA CALLDATASIZE PUSH1 0x4 PUSH2 0x2EB9 JUMP JUMPDEST PUSH2 0x2103 JUMP JUMPDEST CALLVALUE DUP1 ISZERO PUSH2 0x60B JUMPI PUSH1 0x0 DUP1 REVERT JUMPDEST POP PUSH2 0x208 PUSH2 0x61A CALLDATASIZE PUSH1 0x4 PUSH2 0x2F32 JUMP JUMPDEST PUSH2 0x2190 JUMP JUMPDEST CALLVALUE DUP1 ISZERO PUSH2 0x62B JUMPI PUSH1 0x0 DUP1 REVERT JUMPDEST POP PUSH2 0x43F PUSH2 0x63A CALLDATASIZE PUSH1 0x4 PUSH2 0x30BE JUMP JUMPDEST PUSH2 0x24AB JUMP JUMPDEST CALLVALUE DUP1 ISZERO PUSH2 0x64B JUMPI PUSH1 0x0 DUP1 REVERT JUMPDEST POP PUSH2 0x2ED PUSH2 0x65A CALLDATASIZE PUSH1 0x4 PUSH2 0x2EB9 JUMP JUMPDEST PUSH1 0x1 PUSH1 0x1 PUSH1 0xA0 SHL SUB AND PUSH1 0x0 SWAP1 DUP2 MSTORE PUSH1 0xCF PUSH1 0x20 MSTORE PUSH1 0x40 SWAP1 KECCAK256 SLOAD SWAP1 JUMP JUMPDEST CALLVALUE DUP1 ISZERO PUSH2 0x681 JUMPI PUSH1 0x0 DUP1 REVERT JUMPDEST POP PUSH2 0x695 PUSH2 0x690 CALLDATASIZE PUSH1 0x4 PUSH2 0x31D5 JUMP JUMPDEST PUSH2 0x24E5 JUMP JUMPDEST PUSH1 0x40 MLOAD PUSH2 0x237 SWAP4 SWAP3 SWAP2 SWAP1 PUSH2 0x32C8 JUMP JUMPDEST PUSH1 0x1 PUSH1 0x1 PUSH1 0xA0 SHL SUB DUP2 AND PUSH1 0x0 SWAP1 DUP2 MSTORE PUSH1 0xCF PUSH1 0x20 SWAP1 DUP2 MSTORE PUSH1 0x40 DUP1 DUP4 KECCAK256 CALLER DUP5 MSTORE PUSH1 0x1 DUP1 DUP3 ADD SWAP1 SWAP4 MSTORE SWAP3 KECCAK256 DUP1 SLOAD PUSH1 0xFF NOT DUP2 AND SWAP1 SWAP2 SSTORE PUSH1 0xFF AND SWAP1 DUP2 ISZERO ISZERO EQ DUP1 ISZERO PUSH2 0x6EA JUMPI POP DUP2 SLOAD ISZERO ISZERO JUMPDEST ISZERO PUSH2 0x703 JUMPI DUP2 SLOAD DUP3 PUSH1 0x0 PUSH2 0x6FD DUP4 PUSH2 0x35B6 JUMP JUMPDEST SWAP2 SWAP1 POP SSTORE POP JUMPDEST POP POP POP JUMP JUMPDEST PUSH1 0x60 PUSH1 0xCC PUSH1 0x0 DUP4 DUP2 MSTORE PUSH1 0x20 ADD SWAP1 DUP2 MSTORE PUSH1 0x20 ADD PUSH1 0x0 KECCAK256 DUP1 SLOAD DUP1 PUSH1 0x20 MUL PUSH1 0x20 ADD PUSH1 0x40 MLOAD SWAP1 DUP2 ADD PUSH1 0x40 MSTORE DUP1 SWAP3 SWAP2 SWAP1 DUP2 DUP2 MSTORE PUSH1 0x20 ADD PUSH1 0x0 SWAP1 JUMPDEST DUP3 DUP3 LT ISZERO PUSH2 0x821 JUMPI PUSH1 0x0 DUP5 DUP2 MSTORE PUSH1 0x20 SWAP1 DUP2 SWAP1 KECCAK256 PUSH1 0x40 DUP1 MLOAD PUSH1 0x60 DUP2 ADD SWAP1 SWAP2 MSTORE PUSH1 0x3 DUP6 MUL SWAP1 SWAP2 ADD DUP1 SLOAD PUSH1 0x1 PUSH1 0x1 PUSH1 0xA0 SHL SUB AND DUP3 MSTORE PUSH1 0x1 DUP2 ADD DUP1 SLOAD SWAP3 SWAP4 SWAP2 SWAP3 SWAP2 DUP5 ADD SWAP2 PUSH2 0x786 SWAP1 PUSH2 0x35EB JUMP JUMPDEST DUP1 PUSH1 0x1F ADD PUSH1 0x20 DUP1 SWAP2 DIV MUL PUSH1 0x20 ADD PUSH1 0x40 MLOAD SWAP1 DUP2 ADD PUSH1 0x40 MSTORE DUP1 SWAP3 SWAP2 SWAP1 DUP2 DUP2 MSTORE PUSH1 0x20 ADD DUP3 DUP1 SLOAD PUSH2 0x7B2 SWAP1 PUSH2 0x35EB JUMP JUMPDEST DUP1 ISZERO PUSH2 0x7FF JUMPI DUP1 PUSH1 0x1F LT PUSH2 0x7D4 JUMPI PUSH2 0x100 DUP1 DUP4 SLOAD DIV MUL DUP4 MSTORE SWAP2 PUSH1 0x20 ADD SWAP2 PUSH2 0x7FF JUMP JUMPDEST DUP3 ADD SWAP2 SWAP1 PUSH1 0x0 MSTORE PUSH1 0x20 PUSH1 0x0 KECCAK256 SWAP1 JUMPDEST DUP2 SLOAD DUP2 MSTORE SWAP1 PUSH1 0x1 ADD SWAP1 PUSH1 0x20 ADD DUP1 DUP4 GT PUSH2 0x7E2 JUMPI DUP3 SWAP1 SUB PUSH1 0x1F AND DUP3 ADD SWAP2 JUMPDEST POP POP POP POP POP DUP2 MSTORE PUSH1 0x20 ADD PUSH1 0x2 DUP3 ADD SLOAD DUP2 MSTORE POP POP DUP2 MSTORE PUSH1 0x20 ADD SWAP1 PUSH1 0x1 ADD SWAP1 PUSH2 0x73D JUMP JUMPDEST POP POP POP POP SWAP1 POP SWAP2 SWAP1 POP JUMP JUMPDEST PUSH1 0x40 DUP1 MLOAD PUSH1 0xC0 DUP1 DUP3 ADD DUP4 MSTORE PUSH1 0x0 DUP1 DUP4 MSTORE PUSH1 0x20 DUP1 DUP5 ADD DUP3 SWAP1 MSTORE DUP4 DUP6 ADD DUP3 SWAP1 MSTORE PUSH1 0x60 DUP1 DUP6 ADD DUP2 SWAP1 MSTORE PUSH1 0x80 DUP6 ADD DUP2 SWAP1 MSTORE PUSH1 0xA0 DUP6 ADD DUP4 SWAP1 MSTORE DUP7 DUP4 MSTORE PUSH1 0xCA DUP3 MSTORE SWAP2 DUP6 SWAP1 KECCAK256 DUP6 MLOAD SWAP4 DUP5 ADD DUP7 MSTORE DUP1 SLOAD DUP5 MSTORE PUSH1 0x1 DUP2 ADD SLOAD PUSH1 0x1 PUSH1 0x1 PUSH1 0xA0 SHL SUB AND SWAP2 DUP5 ADD SWAP2 SWAP1 SWAP2 MSTORE PUSH1 0x2 DUP2 ADD SLOAD SWAP5 DUP4 ADD SWAP5 SWAP1 SWAP5 MSTORE PUSH1 0x3 DUP5 ADD DUP1 SLOAD SWAP4 SWAP5 SWAP3 SWAP4 SWAP2 DUP5 ADD SWAP2 PUSH2 0x8AE SWAP1 PUSH2 0x35EB JUMP JUMPDEST DUP1 PUSH1 0x1F ADD PUSH1 0x20 DUP1 SWAP2 DIV MUL PUSH1 0x20 ADD PUSH1 0x40 MLOAD SWAP1 DUP2 ADD PUSH1 0x40 MSTORE DUP1 SWAP3 SWAP2 SWAP1 DUP2 DUP2 MSTORE PUSH1 0x20 ADD DUP3 DUP1 SLOAD PUSH2 0x8DA SWAP1 PUSH2 0x35EB JUMP JUMPDEST DUP1 ISZERO PUSH2 0x927 JUMPI DUP1 PUSH1 0x1F LT PUSH2 0x8FC JUMPI PUSH2 0x100 DUP1 DUP4 SLOAD DIV MUL DUP4 MSTORE SWAP2 PUSH1 0x20 ADD SWAP2 PUSH2 0x927 JUMP JUMPDEST DUP3 ADD SWAP2 SWAP1 PUSH1 0x0 MSTORE PUSH1 0x20 PUSH1 0x0 KECCAK256 SWAP1 JUMPDEST DUP2 SLOAD DUP2 MSTORE SWAP1 PUSH1 0x1 ADD SWAP1 PUSH1 0x20 ADD DUP1 DUP4 GT PUSH2 0x90A JUMPI DUP3 SWAP1 SUB PUSH1 0x1F AND DUP3 ADD SWAP2 JUMPDEST POP POP POP POP POP DUP2 MSTORE PUSH1 0x20 ADD PUSH1 0x4 DUP3 ADD DUP1 SLOAD PUSH2 0x940 SWAP1 PUSH2 0x35EB JUMP JUMPDEST DUP1 PUSH1 0x1F ADD PUSH1 0x20 DUP1 SWAP2 DIV MUL PUSH1 0x20 ADD PUSH1 0x40 MLOAD SWAP1 DUP2 ADD PUSH1 0x40 MSTORE DUP1 SWAP3 SWAP2 SWAP1 DUP2 DUP2 MSTORE PUSH1 0x20 ADD DUP3 DUP1 SLOAD PUSH2 0x96C SWAP1 PUSH2 0x35EB JUMP JUMPDEST DUP1 ISZERO PUSH2 0x9B9 JUMPI DUP1 PUSH1 0x1F LT PUSH2 0x98E JUMPI PUSH2 0x100 DUP1 DUP4 SLOAD DIV MUL DUP4 MSTORE SWAP2 PUSH1 0x20 ADD SWAP2 PUSH2 0x9B9 JUMP JUMPDEST DUP3 ADD SWAP2 SWAP1 PUSH1 0x0 MSTORE PUSH1 0x20 PUSH1 0x0 KECCAK256 SWAP1 JUMPDEST DUP2 SLOAD DUP2 MSTORE SWAP1 PUSH1 0x1 ADD SWAP1 PUSH1 0x20 ADD DUP1 DUP4 GT PUSH2 0x99C JUMPI DUP3 SWAP1 SUB PUSH1 0x1F AND DUP3 ADD SWAP2 JUMPDEST POP POP POP POP POP DUP2 MSTORE PUSH1 0x20 ADD PUSH1 0x5 DUP3 ADD SLOAD DUP2 MSTORE POP POP SWAP1 POP SWAP2 SWAP1 POP JUMP JUMPDEST ADDRESS PUSH1 0x1 PUSH1 0x1 PUSH1 0xA0 SHL SUB PUSH32 0x0 AND EQ ISZERO PUSH2 0xA77 JUMPI PUSH1 0x40 MLOAD PUSH3 0x461BCD PUSH1 0xE5 SHL DUP2 MSTORE PUSH1 0x20 PUSH1 0x4 DUP3 ADD MSTORE PUSH1 0x2C PUSH1 0x24 DUP3 ADD MSTORE PUSH32 0x46756E6374696F6E206D7573742062652063616C6C6564207468726F75676820 PUSH1 0x44 DUP3 ADD MSTORE PUSH32 0x64656C656761746563616C6C0000000000000000000000000000000000000000 PUSH1 0x64 DUP3 ADD MSTORE PUSH1 0x84 ADD JUMPDEST PUSH1 0x40 MLOAD DUP1 SWAP2 SUB SWAP1 REVERT JUMPDEST PUSH32 0x0 PUSH1 0x1 PUSH1 0x1 PUSH1 0xA0 SHL SUB AND PUSH2 0xAD2 PUSH32 0x360894A13BA1A3210667C828492DB98DCA3E2076CC3735A920A3CA505D382BBC SLOAD PUSH1 0x1 PUSH1 0x1 PUSH1 0xA0 SHL SUB AND SWAP1 JUMP JUMPDEST PUSH1 0x1 PUSH1 0x1 PUSH1 0xA0 SHL SUB AND EQ PUSH2 0xB4E JUMPI PUSH1 0x40 MLOAD PUSH3 0x461BCD PUSH1 0xE5 SHL DUP2 MSTORE PUSH1 0x20 PUSH1 0x4 DUP3 ADD MSTORE PUSH1 0x2C PUSH1 0x24 DUP3 ADD MSTORE PUSH32 0x46756E6374696F6E206D7573742062652063616C6C6564207468726F75676820 PUSH1 0x44 DUP3 ADD MSTORE PUSH32 0x6163746976652070726F78790000000000000000000000000000000000000000 PUSH1 0x64 DUP3 ADD MSTORE PUSH1 0x84 ADD PUSH2 0xA6E JUMP JUMPDEST PUSH2 0xB57 DUP2 PUSH2 0x25BB JUMP JUMPDEST PUSH1 0x40 DUP1 MLOAD PUSH1 0x0 DUP1 DUP3 MSTORE PUSH1 0x20 DUP3 ADD SWAP1 SWAP3 MSTORE PUSH2 0xB73 SWAP2 DUP4 SWAP2 SWAP1 PUSH2 0x25C3 JUMP JUMPDEST POP JUMP JUMPDEST PUSH1 0x1 PUSH1 0x1 PUSH1 0xA0 SHL SUB DUP2 AND PUSH1 0x0 SWAP1 DUP2 MSTORE PUSH1 0xCF PUSH1 0x20 SWAP1 DUP2 MSTORE PUSH1 0x40 DUP1 DUP4 KECCAK256 CALLER DUP5 MSTORE PUSH1 0x1 DUP2 ADD SWAP1 SWAP3 MSTORE SWAP1 SWAP2 KECCAK256 SLOAD PUSH1 0xFF AND ISZERO PUSH2 0xC15 JUMPI PUSH1 0x40 MLOAD PUSH3 0x461BCD PUSH1 0xE5 SHL DUP2 MSTORE PUSH1 0x20 PUSH1 0x4 DUP3 ADD MSTORE PUSH1 0x23 PUSH1 0x24 DUP3 ADD MSTORE PUSH32 0x596F7520616C7265616479207375627363726962656420746F20746869732075 PUSH1 0x44 DUP3 ADD MSTORE PUSH32 0x7365720000000000000000000000000000000000000000000000000000000000 PUSH1 0x64 DUP3 ADD MSTORE PUSH1 0x84 ADD PUSH2 0xA6E JUMP JUMPDEST DUP1 SLOAD DUP2 PUSH1 0x0 PUSH2 0xC23 DUP4 PUSH2 0x363F JUMP JUMPDEST SWAP1 SWAP2 SSTORE POP POP CALLER PUSH1 0x0 SWAP1 DUP2 MSTORE PUSH1 0x1 SWAP2 DUP3 ADD PUSH1 0x20 MSTORE PUSH1 0x40 SWAP1 KECCAK256 DUP1 SLOAD PUSH1 0xFF NOT AND SWAP1 SWAP2 OR SWAP1 SSTORE POP JUMP JUMPDEST ADDRESS PUSH1 0x1 PUSH1 0x1 PUSH1 0xA0 SHL SUB PUSH32 0x0 AND EQ ISZERO PUSH2 0xCE7 JUMPI PUSH1 0x40 MLOAD PUSH3 0x461BCD PUSH1 0xE5 SHL DUP2 MSTORE PUSH1 0x20 PUSH1 0x4 DUP3 ADD MSTORE PUSH1 0x2C PUSH1 0x24 DUP3 ADD MSTORE PUSH32 0x46756E6374696F6E206D7573742062652063616C6C6564207468726F75676820 PUSH1 0x44 DUP3 ADD MSTORE PUSH32 0x64656C656761746563616C6C0000000000000000000000000000000000000000 PUSH1 0x64 DUP3 ADD MSTORE PUSH1 0x84 ADD PUSH2 0xA6E JUMP JUMPDEST PUSH32 0x0 PUSH1 0x1 PUSH1 0x1 PUSH1 0xA0 SHL SUB AND PUSH2 0xD42 PUSH32 0x360894A13BA1A3210667C828492DB98DCA3E2076CC3735A920A3CA505D382BBC SLOAD PUSH1 0x1 PUSH1 0x1 PUSH1 0xA0 SHL SUB AND SWAP1 JUMP JUMPDEST PUSH1 0x1 PUSH1 0x1 PUSH1 0xA0 SHL SUB AND EQ PUSH2 0xDBE JUMPI PUSH1 0x40 MLOAD PUSH3 0x461BCD PUSH1 0xE5 SHL DUP2 MSTORE PUSH1 0x20 PUSH1 0x4 DUP3 ADD MSTORE PUSH1 0x2C PUSH1 0x24 DUP3 ADD MSTORE PUSH32 0x46756E6374696F6E206D7573742062652063616C6C6564207468726F75676820 PUSH1 0x44 DUP3 ADD MSTORE PUSH32 0x6163746976652070726F78790000000000000000000000000000000000000000 PUSH1 0x64 DUP3 ADD MSTORE PUSH1 0x84 ADD PUSH2 0xA6E JUMP JUMPDEST PUSH2 0xDC7 DUP3 PUSH2 0x25BB JUMP JUMPDEST PUSH2 0xDD3 DUP3 DUP3 PUSH1 0x1 PUSH2 0x25C3 JUMP JUMPDEST POP POP JUMP JUMPDEST PUSH1 0x0 ADDRESS PUSH1 0x1 PUSH1 0x1 PUSH1 0xA0 SHL SUB PUSH32 0x0 AND EQ PUSH2 0xE77 JUMPI PUSH1 0x40 MLOAD PUSH3 0x461BCD PUSH1 0xE5 SHL DUP2 MSTORE PUSH1 0x20 PUSH1 0x4 DUP3 ADD MSTORE PUSH1 0x38 PUSH1 0x24 DUP3 ADD MSTORE PUSH32 0x555550535570677261646561626C653A206D757374206E6F742062652063616C PUSH1 0x44 DUP3 ADD MSTORE PUSH32 0x6C6564207468726F7567682064656C656761746563616C6C0000000000000000 PUSH1 0x64 DUP3 ADD MSTORE PUSH1 0x84 ADD PUSH2 0xA6E JUMP JUMPDEST POP PUSH32 0x360894A13BA1A3210667C828492DB98DCA3E2076CC3735A920A3CA505D382BBC SWAP1 JUMP JUMPDEST PUSH1 0x0 DUP1 JUMPDEST CALLER PUSH1 0x0 SWAP1 DUP2 MSTORE PUSH1 0xCD PUSH1 0x20 MSTORE PUSH1 0x40 SWAP1 KECCAK256 SLOAD DUP2 LT ISZERO PUSH2 0xF35 JUMPI CALLER PUSH1 0x0 SWAP1 DUP2 MSTORE PUSH1 0xCD PUSH1 0x20 MSTORE PUSH1 0x40 SWAP1 KECCAK256 DUP1 SLOAD DUP5 SWAP2 SWAP1 DUP4 SWAP1 DUP2 LT PUSH2 0xF02 JUMPI PUSH32 0x4E487B7100000000000000000000000000000000000000000000000000000000 PUSH1 0x0 MSTORE PUSH1 0x32 PUSH1 0x4 MSTORE PUSH1 0x24 PUSH1 0x0 REVERT JUMPDEST SWAP1 PUSH1 0x0 MSTORE PUSH1 0x20 PUSH1 0x0 KECCAK256 SWAP1 PUSH1 0x6 MUL ADD PUSH1 0x0 ADD SLOAD EQ ISZERO PUSH2 0xF23 JUMPI PUSH1 0x1 SWAP2 POP PUSH2 0xF35 JUMP JUMPDEST DUP1 PUSH2 0xF2D DUP2 PUSH2 0x363F JUMP JUMPDEST SWAP2 POP POP PUSH2 0xEA0 JUMP JUMPDEST POP DUP1 ISZERO PUSH2 0xFAA JUMPI PUSH1 0x40 MLOAD PUSH3 0x461BCD PUSH1 0xE5 SHL DUP2 MSTORE PUSH1 0x20 PUSH1 0x4 DUP3 ADD MSTORE PUSH1 0x2D PUSH1 0x24 DUP3 ADD MSTORE PUSH32 0x796F75206861766520616C726561647920616464656420746869732076696465 PUSH1 0x44 DUP3 ADD MSTORE PUSH32 0x6F20696E20706C61796C69737400000000000000000000000000000000000000 PUSH1 0x64 DUP3 ADD MSTORE PUSH1 0x84 ADD PUSH2 0xA6E JUMP JUMPDEST CALLER PUSH1 0x0 SWAP1 DUP2 MSTORE PUSH1 0xCD PUSH1 0x20 SWAP1 DUP2 MSTORE PUSH1 0x40 DUP1 DUP4 KECCAK256 DUP6 DUP5 MSTORE PUSH1 0xCA DUP4 MSTORE SWAP1 DUP4 KECCAK256 DUP2 SLOAD PUSH1 0x1 DUP2 DUP2 ADD DUP5 SSTORE SWAP3 DUP6 MSTORE SWAP3 SWAP1 SWAP4 KECCAK256 DUP4 SLOAD PUSH1 0x6 SWAP1 SWAP4 MUL ADD SWAP2 DUP3 SSTORE DUP1 DUP4 ADD SLOAD SWAP1 DUP3 ADD DUP1 SLOAD PUSH32 0xFFFFFFFFFFFFFFFFFFFFFFFF0000000000000000000000000000000000000000 AND PUSH1 0x1 PUSH1 0x1 PUSH1 0xA0 SHL SUB SWAP3 SWAP1 SWAP3 AND SWAP2 SWAP1 SWAP2 OR SWAP1 SSTORE PUSH1 0x2 DUP1 DUP4 ADD SLOAD SWAP1 DUP3 ADD SSTORE PUSH1 0x3 DUP1 DUP4 ADD DUP1 SLOAD SWAP2 DUP4 ADD SWAP2 PUSH2 0x103C SWAP1 PUSH2 0x35EB JUMP JUMPDEST PUSH2 0x1047 SWAP3 SWAP2 SWAP1 PUSH2 0x2C62 JUMP JUMPDEST POP PUSH1 0x4 DUP3 ADD DUP2 PUSH1 0x4 ADD SWAP1 DUP1 SLOAD PUSH2 0x105C SWAP1 PUSH2 0x35EB JUMP JUMPDEST PUSH2 0x1067 SWAP3 SWAP2 SWAP1 PUSH2 0x2C62 JUMP JUMPDEST POP PUSH1 0x5 SWAP2 DUP3 ADD SLOAD SWAP2 ADD SSTORE POP POP JUMP JUMPDEST PUSH1 0x0 DUP3 MLOAD GT PUSH2 0x1083 JUMPI PUSH1 0x0 DUP1 REVERT JUMPDEST CALLER PUSH2 0x108D JUMPI PUSH1 0x0 DUP1 REVERT JUMPDEST PUSH1 0x0 DUP2 DUP2 MSTORE PUSH1 0xCC PUSH1 0x20 SWAP1 DUP2 MSTORE PUSH1 0x40 DUP1 DUP4 KECCAK256 DUP2 MLOAD PUSH1 0x60 DUP2 ADD DUP4 MSTORE CALLER DUP2 MSTORE DUP1 DUP5 ADD DUP8 DUP2 MSTORE TIMESTAMP SWAP4 DUP3 ADD SWAP4 SWAP1 SWAP4 MSTORE DUP2 SLOAD PUSH1 0x1 DUP1 DUP3 ADD DUP5 SSTORE SWAP3 DUP7 MSTORE SWAP5 DUP5 SWAP1 KECCAK256 DUP2 MLOAD PUSH1 0x3 SWAP1 SWAP7 MUL ADD DUP1 SLOAD PUSH32 0xFFFFFFFFFFFFFFFFFFFFFFFF0000000000000000000000000000000000000000 AND PUSH1 0x1 PUSH1 0x1 PUSH1 0xA0 SHL SUB SWAP1 SWAP7 AND SWAP6 SWAP1 SWAP6 OR DUP6 SSTORE SWAP2 MLOAD DUP1 MLOAD SWAP3 SWAP5 SWAP4 PUSH2 0x111B SWAP4 SWAP3 DUP6 ADD SWAP3 SWAP2 ADD SWAP1 PUSH2 0x2CED JUMP JUMPDEST POP PUSH1 0x40 DUP3 ADD MLOAD DUP2 PUSH1 0x2 ADD SSTORE POP POP PUSH32 0x59AEE10A182C49D9F99F11CE9E7EAC21FF5C85878C9A52A91F4BE25C9A4E0F40 CALLER DUP4 TIMESTAMP PUSH1 0x40 MLOAD PUSH2 0x115B SWAP4 SWAP3 SWAP2 SWAP1 PUSH2 0x32C8 JUMP JUMPDEST PUSH1 0x40 MLOAD DUP1 SWAP2 SUB SWAP1 LOG1 POP POP JUMP JUMPDEST PUSH1 0x1 PUSH1 0x1 PUSH1 0xA0 SHL SUB DUP2 AND PUSH1 0x0 SWAP1 DUP2 MSTORE PUSH1 0xCD PUSH1 0x20 SWAP1 DUP2 MSTORE PUSH1 0x40 DUP1 DUP4 KECCAK256 DUP1 SLOAD DUP3 MLOAD DUP2 DUP6 MUL DUP2 ADD DUP6 ADD SWAP1 SWAP4 MSTORE DUP1 DUP4 MSTORE PUSH1 0x60 SWAP5 SWAP3 SWAP4 SWAP2 SWAP3 SWAP1 SWAP2 DUP5 ADD JUMPDEST DUP3 DUP3 LT ISZERO PUSH2 0x821 JUMPI PUSH1 0x0 DUP5 DUP2 MSTORE PUSH1 0x20 SWAP1 DUP2 SWAP1 KECCAK256 PUSH1 0x40 DUP1 MLOAD PUSH1 0xC0 DUP2 ADD DUP3 MSTORE PUSH1 0x6 DUP7 MUL SWAP1 SWAP3 ADD DUP1 SLOAD DUP4 MSTORE PUSH1 0x1 DUP2 ADD SLOAD PUSH1 0x1 PUSH1 0x1 PUSH1 0xA0 SHL SUB AND SWAP4 DUP4 ADD SWAP4 SWAP1 SWAP4 MSTORE PUSH1 0x2 DUP4 ADD SLOAD SWAP1 DUP3 ADD MSTORE PUSH1 0x3 DUP3 ADD DUP1 SLOAD SWAP2 SWAP3 SWAP2 PUSH1 0x60 DUP5 ADD SWAP2 SWAP1 PUSH2 0x11FD SWAP1 PUSH2 0x35EB JUMP JUMPDEST DUP1 PUSH1 0x1F ADD PUSH1 0x20 DUP1 SWAP2 DIV MUL PUSH1 0x20 ADD PUSH1 0x40 MLOAD SWAP1 DUP2 ADD PUSH1 0x40 MSTORE DUP1 SWAP3 SWAP2 SWAP1 DUP2 DUP2 MSTORE PUSH1 0x20 ADD DUP3 DUP1 SLOAD PUSH2 0x1229 SWAP1 PUSH2 0x35EB JUMP JUMPDEST DUP1 ISZERO PUSH2 0x1276 JUMPI DUP1 PUSH1 0x1F LT PUSH2 0x124B JUMPI PUSH2 0x100 DUP1 DUP4 SLOAD DIV MUL DUP4 MSTORE SWAP2 PUSH1 0x20 ADD SWAP2 PUSH2 0x1276 JUMP JUMPDEST DUP3 ADD SWAP2 SWAP1 PUSH1 0x0 MSTORE PUSH1 0x20 PUSH1 0x0 KECCAK256 SWAP1 JUMPDEST DUP2 SLOAD DUP2 MSTORE SWAP1 PUSH1 0x1 ADD SWAP1 PUSH1 0x20 ADD DUP1 DUP4 GT PUSH2 0x1259 JUMPI DUP3 SWAP1 SUB PUSH1 0x1F AND DUP3 ADD SWAP2 JUMPDEST POP POP POP POP POP DUP2 MSTORE PUSH1 0x20 ADD PUSH1 0x4 DUP3 ADD DUP1 SLOAD PUSH2 0x128F SWAP1 PUSH2 0x35EB JUMP JUMPDEST DUP1 PUSH1 0x1F ADD PUSH1 0x20 DUP1 SWAP2 DIV MUL PUSH1 0x20 ADD PUSH1 0x40 MLOAD SWAP1 DUP2 ADD PUSH1 0x40 MSTORE DUP1 SWAP3 SWAP2 SWAP1 DUP2 DUP2 MSTORE PUSH1 0x20 ADD DUP3 DUP1 SLOAD PUSH2 0x12BB SWAP1 PUSH2 0x35EB JUMP JUMPDEST DUP1 ISZERO PUSH2 0x1308 JUMPI DUP1 PUSH1 0x1F LT PUSH2 0x12DD JUMPI PUSH2 0x100 DUP1 DUP4 SLOAD DIV MUL DUP4 MSTORE SWAP2 PUSH1 0x20 ADD SWAP2 PUSH2 0x1308 JUMP JUMPDEST DUP3 ADD SWAP2 SWAP1 PUSH1 0x0 MSTORE PUSH1 0x20 PUSH1 0x0 KECCAK256 SWAP1 JUMPDEST DUP2 SLOAD DUP2 MSTORE SWAP1 PUSH1 0x1 ADD SWAP1 PUSH1 0x20 ADD DUP1 DUP4 GT PUSH2 0x12EB JUMPI DUP3 SWAP1 SUB PUSH1 0x1F AND DUP3 ADD SWAP2 JUMPDEST POP POP POP POP POP DUP2 MSTORE PUSH1 0x20 ADD PUSH1 0x5 DUP3 ADD SLOAD DUP2 MSTORE POP POP DUP2 MSTORE PUSH1 0x20 ADD SWAP1 PUSH1 0x1 ADD SWAP1 PUSH2 0x119F JUMP JUMPDEST PUSH1 0x60 DUP2 PUSH2 0x1336 PUSH1 0xC9 SLOAD SWAP1 JUMP JUMPDEST DUP2 GT ISZERO PUSH2 0x1342 JUMPI POP PUSH1 0xC9 SLOAD JUMPDEST PUSH1 0x0 DUP2 PUSH8 0xFFFFFFFFFFFFFFFF DUP2 GT ISZERO PUSH2 0x1384 JUMPI PUSH32 0x4E487B7100000000000000000000000000000000000000000000000000000000 PUSH1 0x0 MSTORE PUSH1 0x41 PUSH1 0x4 MSTORE PUSH1 0x24 PUSH1 0x0 REVERT JUMPDEST PUSH1 0x40 MLOAD SWAP1 DUP1 DUP3 MSTORE DUP1 PUSH1 0x20 MUL PUSH1 0x20 ADD DUP3 ADD PUSH1 0x40 MSTORE DUP1 ISZERO PUSH2 0x1401 JUMPI DUP2 PUSH1 0x20 ADD JUMPDEST PUSH1 0x40 DUP1 MLOAD PUSH1 0xC0 DUP2 ADD DUP3 MSTORE PUSH1 0x0 DUP1 DUP3 MSTORE PUSH1 0x20 DUP1 DUP4 ADD DUP3 SWAP1 MSTORE SWAP3 DUP3 ADD DUP2 SWAP1 MSTORE PUSH1 0x60 DUP1 DUP4 ADD DUP2 SWAP1 MSTORE PUSH1 0x80 DUP4 ADD MSTORE PUSH1 0xA0 DUP3 ADD MSTORE DUP3 MSTORE PUSH32 0xFFFFFFFFFFFFFFFFFFFFFFFFFFFFFFFFFFFFFFFFFFFFFFFFFFFFFFFFFFFFFFFF SWAP1 SWAP3 ADD SWAP2 ADD DUP2 PUSH2 0x13A2 JUMPI SWAP1 POP JUMPDEST POP SWAP1 POP PUSH1 0x1 JUMPDEST DUP3 DUP2 GT PUSH2 0x1486 JUMPI PUSH2 0x1417 DUP7 PUSH2 0x82C JUMP JUMPDEST DUP3 PUSH2 0x1423 PUSH1 0x1 DUP5 PUSH2 0x3573 JUMP JUMPDEST DUP2 MLOAD DUP2 LT PUSH2 0x145A JUMPI PUSH32 0x4E487B7100000000000000000000000000000000000000000000000000000000 PUSH1 0x0 MSTORE PUSH1 0x32 PUSH1 0x4 MSTORE PUSH1 0x24 PUSH1 0x0 REVERT JUMPDEST PUSH1 0x20 MUL PUSH1 0x20 ADD ADD DUP2 SWAP1 MSTORE POP DUP6 DUP1 PUSH2 0x1470 SWAP1 PUSH2 0x363F JUMP JUMPDEST SWAP7 POP POP DUP1 DUP1 PUSH2 0x147E SWAP1 PUSH2 0x363F JUMP JUMPDEST SWAP2 POP POP PUSH2 0x1407 JUMP JUMPDEST POP SWAP5 SWAP4 POP POP POP POP JUMP JUMPDEST CALLER PUSH2 0x1499 JUMPI PUSH1 0x0 DUP1 REVERT JUMPDEST PUSH2 0x14A7 PUSH1 0xC9 DUP1 SLOAD PUSH1 0x1 ADD SWAP1 SSTORE JUMP JUMPDEST PUSH1 0x40 MLOAD DUP1 PUSH1 0xC0 ADD PUSH1 0x40 MSTORE DUP1 PUSH2 0x14BB PUSH1 0xC9 SLOAD SWAP1 JUMP JUMPDEST DUP2 MSTORE PUSH1 0x20 ADD CALLER PUSH1 0x1 PUSH1 0x1 PUSH1 0xA0 SHL SUB AND DUP2 MSTORE PUSH1 0x20 ADD DUP3 DUP2 MSTORE PUSH1 0x20 ADD DUP5 DUP2 MSTORE PUSH1 0x20 ADD DUP4 DUP2 MSTORE PUSH1 0x20 ADD TIMESTAMP DUP2 MSTORE POP PUSH1 0xCA PUSH1 0x0 PUSH2 0x14F2 PUSH1 0xC9 SLOAD SWAP1 JUMP JUMPDEST DUP2 MSTORE PUSH1 0x20 DUP1 DUP3 ADD SWAP3 SWAP1 SWAP3 MSTORE PUSH1 0x40 SWAP1 DUP2 ADD PUSH1 0x0 KECCAK256 DUP4 MLOAD DUP2 SSTORE DUP4 DUP4 ADD MLOAD PUSH1 0x1 DUP3 ADD DUP1 SLOAD PUSH32 0xFFFFFFFFFFFFFFFFFFFFFFFF0000000000000000000000000000000000000000 AND PUSH1 0x1 PUSH1 0x1 PUSH1 0xA0 SHL SUB SWAP1 SWAP3 AND SWAP2 SWAP1 SWAP2 OR SWAP1 SSTORE SWAP1 DUP4 ADD MLOAD PUSH1 0x2 DUP3 ADD SSTORE PUSH1 0x60 DUP4 ADD MLOAD DUP1 MLOAD SWAP2 SWAP3 PUSH2 0x156A SWAP3 PUSH1 0x3 DUP6 ADD SWAP3 SWAP1 SWAP2 ADD SWAP1 PUSH2 0x2CED JUMP JUMPDEST POP PUSH1 0x80 DUP3 ADD MLOAD DUP1 MLOAD PUSH2 0x1586 SWAP2 PUSH1 0x4 DUP5 ADD SWAP2 PUSH1 0x20 SWAP1 SWAP2 ADD SWAP1 PUSH2 0x2CED JUMP JUMPDEST POP PUSH1 0xA0 SWAP2 SWAP1 SWAP2 ADD MLOAD PUSH1 0x5 SWAP1 SWAP2 ADD SSTORE CALLER PUSH1 0x0 SWAP1 DUP2 MSTORE PUSH1 0xCB PUSH1 0x20 MSTORE PUSH1 0x40 DUP2 KECCAK256 SWAP1 PUSH1 0xCA SWAP1 PUSH2 0x15B0 PUSH1 0xC9 SLOAD SWAP1 JUMP JUMPDEST DUP2 MSTORE PUSH1 0x20 DUP1 DUP3 ADD SWAP3 SWAP1 SWAP3 MSTORE PUSH1 0x40 ADD PUSH1 0x0 SWAP1 DUP2 KECCAK256 DUP4 SLOAD PUSH1 0x1 DUP2 DUP2 ADD DUP7 SSTORE SWAP5 DUP4 MSTORE SWAP3 SWAP1 SWAP2 KECCAK256 DUP2 SLOAD PUSH1 0x6 SWAP1 SWAP4 MUL ADD SWAP2 DUP3 SSTORE DUP3 DUP2 ADD SLOAD SWAP3 DUP3 ADD DUP1 SLOAD PUSH32 0xFFFFFFFFFFFFFFFFFFFFFFFF0000000000000000000000000000000000000000 AND PUSH1 0x1 PUSH1 0x1 PUSH1 0xA0 SHL SUB SWAP1 SWAP5 AND SWAP4 SWAP1 SWAP4 OR SWAP1 SWAP3 SSTORE PUSH1 0x2 DUP1 DUP4 ADD SLOAD SWAP1 DUP3 ADD SSTORE PUSH1 0x3 DUP1 DUP4 ADD DUP1 SLOAD SWAP2 DUP4 ADD SWAP2 PUSH2 0x1639 SWAP1 PUSH2 0x35EB JUMP JUMPDEST PUSH2 0x1644 SWAP3 SWAP2 SWAP1 PUSH2 0x2C62 JUMP JUMPDEST POP PUSH1 0x4 DUP3 ADD DUP2 PUSH1 0x4 ADD SWAP1 DUP1 SLOAD PUSH2 0x1659 SWAP1 PUSH2 0x35EB JUMP JUMPDEST PUSH2 0x1664 SWAP3 SWAP2 SWAP1 PUSH2 0x2C62 JUMP JUMPDEST POP PUSH1 0x5 SWAP2 DUP3 ADD SLOAD SWAP2 ADD SSTORE PUSH32 0xBDB0068D4DC68BFC2AB68BB13EE946CC8E0742AF7A38904598D16440DAC68DC2 PUSH2 0x1698 PUSH1 0xC9 SLOAD SWAP1 JUMP JUMPDEST PUSH1 0x40 DUP1 MLOAD SWAP2 DUP3 MSTORE PUSH1 0x20 DUP3 ADD DUP5 SWAP1 MSTORE CALLER SWAP1 DUP3 ADD MSTORE TIMESTAMP PUSH1 0x60 DUP3 ADD MSTORE PUSH1 0x80 ADD PUSH1 0x40 MLOAD DUP1 SWAP2 SUB SWAP1 LOG1 POP POP POP JUMP JUMPDEST PUSH1 0x0 DUP2 DUP2 MSTORE PUSH1 0xCE PUSH1 0x20 SWAP1 DUP2 MSTORE PUSH1 0x40 DUP1 DUP4 KECCAK256 CALLER DUP5 MSTORE PUSH1 0x1 DUP1 DUP3 ADD SWAP1 SWAP4 MSTORE SWAP3 KECCAK256 DUP1 SLOAD PUSH1 0xFF NOT DUP2 AND SWAP1 SWAP2 SSTORE PUSH1 0xFF AND SWAP1 DUP2 ISZERO ISZERO EQ DUP1 ISZERO PUSH2 0x6EA JUMPI POP DUP2 SLOAD ISZERO PUSH2 0x703 JUMPI DUP2 SLOAD DUP3 PUSH1 0x0 PUSH2 0x6FD DUP4 PUSH2 0x35B6 JUMP JUMPDEST PUSH2 0x1715 PUSH2 0x2790 JUMP JUMPDEST PUSH2 0x171F PUSH1 0x0 PUSH2 0x27EA JUMP JUMPDEST JUMP JUMPDEST PUSH1 0xCB PUSH1 0x20 MSTORE DUP2 PUSH1 0x0 MSTORE PUSH1 0x40 PUSH1 0x0 KECCAK256 DUP2 DUP2 SLOAD DUP2 LT PUSH2 0x173D JUMPI PUSH1 0x0 DUP1 REVERT JUMPDEST PUSH1 0x0 SWAP2 DUP3 MSTORE PUSH1 0x20 SWAP1 SWAP2 KECCAK256 PUSH1 0x6 SWAP1 SWAP2 MUL ADD DUP1 SLOAD PUSH1 0x1 DUP3 ADD SLOAD PUSH1 0x2 DUP4 ADD SLOAD PUSH1 0x3 DUP5 ADD DUP1 SLOAD SWAP4 SWAP7 POP PUSH1 0x1 PUSH1 0x1 PUSH1 0xA0 SHL SUB SWAP1 SWAP3 AND SWAP5 POP SWAP3 SWAP2 PUSH2 0x177A SWAP1 PUSH2 0x35EB JUMP JUMPDEST DUP1 PUSH1 0x1F ADD PUSH1 0x20 DUP1 SWAP2 DIV MUL PUSH1 0x20 ADD PUSH1 0x40 MLOAD SWAP1 DUP2 ADD PUSH1 0x40 MSTORE DUP1 SWAP3 SWAP2 SWAP1 DUP2 DUP2 MSTORE PUSH1 0x20 ADD DUP3 DUP1 SLOAD PUSH2 0x17A6 SWAP1 PUSH2 0x35EB JUMP JUMPDEST DUP1 ISZERO PUSH2 0x17F3 JUMPI DUP1 PUSH1 0x1F LT PUSH2 0x17C8 JUMPI PUSH2 0x100 DUP1 DUP4 SLOAD DIV MUL DUP4 MSTORE SWAP2 PUSH1 0x20 ADD SWAP2 PUSH2 0x17F3 JUMP JUMPDEST DUP3 ADD SWAP2 SWAP1 PUSH1 0x0 MSTORE PUSH1 0x20 PUSH1 0x0 KECCAK256 SWAP1 JUMPDEST DUP2 SLOAD DUP2 MSTORE SWAP1 PUSH1 0x1 ADD SWAP1 PUSH1 0x20 ADD DUP1 DUP4 GT PUSH2 0x17D6 JUMPI DUP3 SWAP1 SUB PUSH1 0x1F AND DUP3 ADD SWAP2 JUMPDEST POP POP POP POP POP SWAP1 DUP1 PUSH1 0x4 ADD DUP1 SLOAD PUSH2 0x1808 SWAP1 PUSH2 0x35EB JUMP JUMPDEST DUP1 PUSH1 0x1F ADD PUSH1 0x20 DUP1 SWAP2 DIV MUL PUSH1 0x20 ADD PUSH1 0x40 MLOAD SWAP1 DUP2 ADD PUSH1 0x40 MSTORE DUP1 SWAP3 SWAP2 SWAP1 DUP2 DUP2 MSTORE PUSH1 0x20 ADD DUP3 DUP1 SLOAD PUSH2 0x1834 SWAP1 PUSH2 0x35EB JUMP JUMPDEST DUP1 ISZERO PUSH2 0x1881 JUMPI DUP1 PUSH1 0x1F LT PUSH2 0x1856 JUMPI PUSH2 0x100 DUP1 DUP4 SLOAD DIV MUL DUP4 MSTORE SWAP2 PUSH1 0x20 ADD SWAP2 PUSH2 0x1881 JUMP JUMPDEST DUP3 ADD SWAP2 SWAP1 PUSH1 0x0 MSTORE PUSH1 0x20 PUSH1 0x0 KECCAK256 SWAP1 JUMPDEST DUP2 SLOAD DUP2 MSTORE SWAP1 PUSH1 0x1 ADD SWAP1 PUSH1 0x20 ADD DUP1 DUP4 GT PUSH2 0x1864 JUMPI DUP3 SWAP1 SUB PUSH1 0x1F AND DUP3 ADD SWAP2 JUMPDEST POP POP POP POP POP SWAP1 DUP1 PUSH1 0x5 ADD SLOAD SWAP1 POP DUP7 JUMP JUMPDEST PUSH1 0x0 DUP5 GT PUSH2 0x189E JUMPI PUSH1 0x0 DUP1 REVERT JUMPDEST PUSH1 0x0 DUP5 DUP2 MSTORE PUSH1 0xCA PUSH1 0x20 MSTORE PUSH1 0x40 SWAP1 KECCAK256 PUSH1 0x1 DUP2 ADD SLOAD PUSH1 0x1 PUSH1 0x1 PUSH1 0xA0 SHL SUB AND CALLER EQ PUSH2 0x1908 JUMPI PUSH1 0x40 MLOAD PUSH3 0x461BCD PUSH1 0xE5 SHL DUP2 MSTORE PUSH1 0x20 PUSH1 0x4 DUP3 ADD MSTORE PUSH1 0x1A PUSH1 0x24 DUP3 ADD MSTORE PUSH32 0x596F752063616E6E6F742065646974207468697320766964656F000000000000 PUSH1 0x44 DUP3 ADD MSTORE PUSH1 0x64 ADD PUSH2 0xA6E JUMP JUMPDEST PUSH1 0x1 DUP2 ADD SLOAD PUSH1 0x1 PUSH1 0x1 PUSH1 0xA0 SHL SUB AND PUSH2 0x1962 JUMPI PUSH1 0x40 MLOAD PUSH3 0x461BCD PUSH1 0xE5 SHL DUP2 MSTORE PUSH1 0x20 PUSH1 0x4 DUP3 ADD MSTORE PUSH1 0x10 PUSH1 0x24 DUP3 ADD MSTORE PUSH32 0x5265636F7264206E6F7420666F756E6400000000000000000000000000000000 PUSH1 0x44 DUP3 ADD MSTORE PUSH1 0x64 ADD PUSH2 0xA6E JUMP JUMPDEST DUP4 MLOAD PUSH2 0x1977 SWAP1 PUSH1 0x3 DUP4 ADD SWAP1 PUSH1 0x20 DUP8 ADD SWAP1 PUSH2 0x2CED JUMP JUMPDEST POP DUP3 MLOAD PUSH2 0x198D SWAP1 PUSH1 0x4 DUP4 ADD SWAP1 PUSH1 0x20 DUP7 ADD SWAP1 PUSH2 0x2CED JUMP JUMPDEST POP PUSH1 0x2 DUP2 ADD DUP3 SWAP1 SSTORE TIMESTAMP PUSH1 0x5 DUP3 ADD DUP2 SWAP1 SSTORE PUSH1 0x40 DUP1 MLOAD DUP8 DUP2 MSTORE PUSH1 0x20 DUP2 ADD DUP6 SWAP1 MSTORE CALLER DUP2 DUP4 ADD MSTORE PUSH1 0x60 DUP2 ADD SWAP3 SWAP1 SWAP3 MSTORE MLOAD PUSH32 0xBDB0068D4DC68BFC2AB68BB13EE946CC8E0742AF7A38904598D16440DAC68DC2 SWAP2 DUP2 SWAP1 SUB PUSH1 0x80 ADD SWAP1 LOG1 POP POP POP POP POP JUMP JUMPDEST PUSH1 0xCD PUSH1 0x20 MSTORE DUP2 PUSH1 0x0 MSTORE PUSH1 0x40 PUSH1 0x0 KECCAK256 DUP2 DUP2 SLOAD DUP2 LT PUSH2 0x173D JUMPI PUSH1 0x0 DUP1 REVERT JUMPDEST PUSH1 0x1 PUSH1 0x1 PUSH1 0xA0 SHL SUB DUP2 AND PUSH1 0x0 SWAP1 DUP2 MSTORE PUSH1 0xCB PUSH1 0x20 MSTORE PUSH1 0x40 DUP2 KECCAK256 SLOAD PUSH1 0x60 SWAP2 DUP2 PUSH8 0xFFFFFFFFFFFFFFFF DUP2 GT ISZERO PUSH2 0x1A62 JUMPI PUSH32 0x4E487B7100000000000000000000000000000000000000000000000000000000 PUSH1 0x0 MSTORE PUSH1 0x41 PUSH1 0x4 MSTORE PUSH1 0x24 PUSH1 0x0 REVERT JUMPDEST PUSH1 0x40 MLOAD SWAP1 DUP1 DUP3 MSTORE DUP1 PUSH1 0x20 MUL PUSH1 0x20 ADD DUP3 ADD PUSH1 0x40 MSTORE DUP1 ISZERO PUSH2 0x1ADF JUMPI DUP2 PUSH1 0x20 ADD JUMPDEST PUSH1 0x40 DUP1 MLOAD PUSH1 0xC0 DUP2 ADD DUP3 MSTORE PUSH1 0x0 DUP1 DUP3 MSTORE PUSH1 0x20 DUP1 DUP4 ADD DUP3 SWAP1 MSTORE SWAP3 DUP3 ADD DUP2 SWAP1 MSTORE PUSH1 0x60 DUP1 DUP4 ADD DUP2 SWAP1 MSTORE PUSH1 0x80 DUP4 ADD MSTORE PUSH1 0xA0 DUP3 ADD MSTORE DUP3 MSTORE PUSH32 0xFFFFFFFFFFFFFFFFFFFFFFFFFFFFFFFFFFFFFFFFFFFFFFFFFFFFFFFFFFFFFFFF SWAP1 SWAP3 ADD SWAP2 ADD DUP2 PUSH2 0x1A80 JUMPI SWAP1 POP JUMPDEST POP SWAP1 POP PUSH1 0x0 JUMPDEST DUP3 DUP2 LT ISZERO PUSH2 0x1D1F JUMPI PUSH1 0x1 PUSH1 0x1 PUSH1 0xA0 SHL SUB DUP6 AND PUSH1 0x0 SWAP1 DUP2 MSTORE PUSH1 0xCB PUSH1 0x20 MSTORE PUSH1 0x40 SWAP1 KECCAK256 DUP1 SLOAD DUP3 SWAP1 DUP2 LT PUSH2 0x1B3E JUMPI PUSH32 0x4E487B7100000000000000000000000000000000000000000000000000000000 PUSH1 0x0 MSTORE PUSH1 0x32 PUSH1 0x4 MSTORE PUSH1 0x24 PUSH1 0x0 REVERT JUMPDEST SWAP1 PUSH1 0x0 MSTORE PUSH1 0x20 PUSH1 0x0 KECCAK256 SWAP1 PUSH1 0x6 MUL ADD PUSH1 0x40 MLOAD DUP1 PUSH1 0xC0 ADD PUSH1 0x40 MSTORE SWAP1 DUP2 PUSH1 0x0 DUP3 ADD SLOAD DUP2 MSTORE PUSH1 0x20 ADD PUSH1 0x1 DUP3 ADD PUSH1 0x0 SWAP1 SLOAD SWAP1 PUSH2 0x100 EXP SWAP1 DIV PUSH1 0x1 PUSH1 0x1 PUSH1 0xA0 SHL SUB AND PUSH1 0x1 PUSH1 0x1 PUSH1 0xA0 SHL SUB AND PUSH1 0x1 PUSH1 0x1 PUSH1 0xA0 SHL SUB AND DUP2 MSTORE PUSH1 0x20 ADD PUSH1 0x2 DUP3 ADD SLOAD DUP2 MSTORE PUSH1 0x20 ADD PUSH1 0x3 DUP3 ADD DUP1 SLOAD PUSH2 0x1BAA SWAP1 PUSH2 0x35EB JUMP JUMPDEST DUP1 PUSH1 0x1F ADD PUSH1 0x20 DUP1 SWAP2 DIV MUL PUSH1 0x20 ADD PUSH1 0x40 MLOAD SWAP1 DUP2 ADD PUSH1 0x40 MSTORE DUP1 SWAP3 SWAP2 SWAP1 DUP2 DUP2 MSTORE PUSH1 0x20 ADD DUP3 DUP1 SLOAD PUSH2 0x1BD6 SWAP1 PUSH2 0x35EB JUMP JUMPDEST DUP1 ISZERO PUSH2 0x1C23 JUMPI DUP1 PUSH1 0x1F LT PUSH2 0x1BF8 JUMPI PUSH2 0x100 DUP1 DUP4 SLOAD DIV MUL DUP4 MSTORE SWAP2 PUSH1 0x20 ADD SWAP2 PUSH2 0x1C23 JUMP JUMPDEST DUP3 ADD SWAP2 SWAP1 PUSH1 0x0 MSTORE PUSH1 0x20 PUSH1 0x0 KECCAK256 SWAP1 JUMPDEST DUP2 SLOAD DUP2 MSTORE SWAP1 PUSH1 0x1 ADD SWAP1 PUSH1 0x20 ADD DUP1 DUP4 GT PUSH2 0x1C06 JUMPI DUP3 SWAP1 SUB PUSH1 0x1F AND DUP3 ADD SWAP2 JUMPDEST POP POP POP POP POP DUP2 MSTORE PUSH1 0x20 ADD PUSH1 0x4 DUP3 ADD DUP1 SLOAD PUSH2 0x1C3C SWAP1 PUSH2 0x35EB JUMP JUMPDEST DUP1 PUSH1 0x1F ADD PUSH1 0x20 DUP1 SWAP2 DIV MUL PUSH1 0x20 ADD PUSH1 0x40 MLOAD SWAP1 DUP2 ADD PUSH1 0x40 MSTORE DUP1 SWAP3 SWAP2 SWAP1 DUP2 DUP2 MSTORE PUSH1 0x20 ADD DUP3 DUP1 SLOAD PUSH2 0x1C68 SWAP1 PUSH2 0x35EB JUMP JUMPDEST DUP1 ISZERO PUSH2 0x1CB5 JUMPI DUP1 PUSH1 0x1F LT PUSH2 0x1C8A JUMPI PUSH2 0x100 DUP1 DUP4 SLOAD DIV MUL DUP4 MSTORE SWAP2 PUSH1 0x20 ADD SWAP2 PUSH2 0x1CB5 JUMP JUMPDEST DUP3 ADD SWAP2 SWAP1 PUSH1 0x0 MSTORE PUSH1 0x20 PUSH1 0x0 KECCAK256 SWAP1 JUMPDEST DUP2 SLOAD DUP2 MSTORE SWAP1 PUSH1 0x1 ADD SWAP1 PUSH1 0x20 ADD DUP1 DUP4 GT PUSH2 0x1C98 JUMPI DUP3 SWAP1 SUB PUSH1 0x1F AND DUP3 ADD SWAP2 JUMPDEST POP POP POP POP POP DUP2 MSTORE PUSH1 0x20 ADD PUSH1 0x5 DUP3 ADD SLOAD DUP2 MSTORE POP POP DUP3 DUP3 DUP2 MLOAD DUP2 LT PUSH2 0x1D01 JUMPI PUSH32 0x4E487B7100000000000000000000000000000000000000000000000000000000 PUSH1 0x0 MSTORE PUSH1 0x32 PUSH1 0x4 MSTORE PUSH1 0x24 PUSH1 0x0 REVERT JUMPDEST PUSH1 0x20 MUL PUSH1 0x20 ADD ADD DUP2 SWAP1 MSTORE POP DUP1 DUP1 PUSH2 0x1D17 SWAP1 PUSH2 0x363F JUMP JUMPDEST SWAP2 POP POP PUSH2 0x1AE5 JUMP JUMPDEST POP SWAP4 SWAP3 POP POP POP JUMP JUMPDEST PUSH1 0x0 PUSH2 0x1D32 PUSH1 0xC9 SLOAD SWAP1 JUMP JUMPDEST SWAP1 POP SWAP1 JUMP JUMPDEST PUSH1 0xD0 SLOAD PUSH1 0x40 MLOAD PUSH32 0xAF1D5E4800000000000000000000000000000000000000000000000000000000 DUP2 MSTORE PUSH1 0x1 PUSH1 0x1 PUSH1 0xA0 SHL SUB SWAP1 SWAP2 AND SWAP1 PUSH4 0xAF1D5E48 SWAP1 PUSH2 0x1D83 SWAP1 PUSH1 0xD1 SWAP1 CALLER SWAP1 PUSH1 0x4 ADD PUSH2 0x3433 JUMP JUMPDEST PUSH1 0x20 PUSH1 0x40 MLOAD DUP1 DUP4 SUB DUP2 DUP7 DUP1 EXTCODESIZE ISZERO DUP1 ISZERO PUSH2 0x1D9B JUMPI PUSH1 0x0 DUP1 REVERT JUMPDEST POP GAS STATICCALL ISZERO DUP1 ISZERO PUSH2 0x1DAF JUMPI RETURNDATASIZE PUSH1 0x0 DUP1 RETURNDATACOPY RETURNDATASIZE PUSH1 0x0 REVERT JUMPDEST POP POP POP POP PUSH1 0x40 MLOAD RETURNDATASIZE PUSH1 0x1F NOT PUSH1 0x1F DUP3 ADD AND DUP3 ADD DUP1 PUSH1 0x40 MSTORE POP DUP2 ADD SWAP1 PUSH2 0x1DD3 SWAP2 SWAP1 PUSH2 0x2FD9 JUMP JUMPDEST PUSH2 0x1E1F JUMPI PUSH1 0x40 MLOAD PUSH3 0x461BCD PUSH1 0xE5 SHL DUP2 MSTORE PUSH1 0x20 PUSH1 0x4 DUP3 ADD MSTORE PUSH1 0xE PUSH1 0x24 DUP3 ADD MSTORE PUSH32 0x4E6F742061206465706C6F796572000000000000000000000000000000000000 PUSH1 0x44 DUP3 ADD MSTORE PUSH1 0x64 ADD PUSH2 0xA6E JUMP JUMPDEST PUSH1 0x1 PUSH1 0x1 PUSH1 0xA0 SHL SUB DUP6 AND PUSH2 0x1E75 JUMPI PUSH1 0x40 MLOAD PUSH3 0x461BCD PUSH1 0xE5 SHL DUP2 MSTORE PUSH1 0x20 PUSH1 0x4 DUP3 ADD MSTORE PUSH1 0x17 PUSH1 0x24 DUP3 ADD MSTORE PUSH32 0x4E6F205A65726F204164647265737320416C6C6F776564000000000000000000 PUSH1 0x44 DUP3 ADD MSTORE PUSH1 0x64 ADD PUSH2 0xA6E JUMP JUMPDEST PUSH1 0x40 DUP1 MLOAD PUSH1 0xC0 DUP2 ADD DUP3 MSTORE DUP8 DUP2 MSTORE PUSH1 0x1 PUSH1 0x1 PUSH1 0xA0 SHL SUB DUP8 DUP2 AND PUSH1 0x20 DUP1 DUP5 ADD SWAP2 DUP3 MSTORE DUP4 DUP6 ADD DUP8 DUP2 MSTORE PUSH1 0x60 DUP6 ADD DUP11 DUP2 MSTORE PUSH1 0x80 DUP7 ADD DUP11 SWAP1 MSTORE PUSH1 0xA0 DUP7 ADD DUP9 SWAP1 MSTORE PUSH1 0x0 DUP14 DUP2 MSTORE PUSH1 0xCA DUP5 MSTORE SWAP7 SWAP1 SWAP7 KECCAK256 DUP6 MLOAD DUP2 SSTORE SWAP3 MLOAD PUSH1 0x1 DUP5 ADD DUP1 SLOAD PUSH32 0xFFFFFFFFFFFFFFFFFFFFFFFF0000000000000000000000000000000000000000 AND SWAP2 SWAP1 SWAP6 AND OR SWAP1 SWAP4 SSTORE SWAP2 MLOAD PUSH1 0x2 DUP3 ADD SSTORE SWAP3 MLOAD DUP1 MLOAD SWAP3 SWAP4 SWAP3 PUSH2 0x1F11 SWAP3 PUSH1 0x3 DUP6 ADD SWAP3 ADD SWAP1 PUSH2 0x2CED JUMP JUMPDEST POP PUSH1 0x80 DUP3 ADD MLOAD DUP1 MLOAD PUSH2 0x1F2D SWAP2 PUSH1 0x4 DUP5 ADD SWAP2 PUSH1 0x20 SWAP1 SWAP2 ADD SWAP1 PUSH2 0x2CED JUMP JUMPDEST POP PUSH1 0xA0 SWAP2 SWAP1 SWAP2 ADD MLOAD PUSH1 0x5 SWAP1 SWAP2 ADD SSTORE PUSH1 0x1 PUSH1 0x1 PUSH1 0xA0 SHL SUB DUP1 DUP7 AND PUSH1 0x0 SWAP1 DUP2 MSTORE PUSH1 0xCB PUSH1 0x20 SWAP1 DUP2 MSTORE PUSH1 0x40 DUP1 DUP4 KECCAK256 DUP11 DUP5 MSTORE PUSH1 0xCA DUP4 MSTORE SWAP1 DUP4 KECCAK256 DUP2 SLOAD PUSH1 0x1 DUP2 DUP2 ADD DUP5 SSTORE SWAP3 DUP6 MSTORE SWAP3 SWAP1 SWAP4 KECCAK256 DUP4 SLOAD PUSH1 0x6 SWAP1 SWAP4 MUL ADD SWAP2 DUP3 SSTORE DUP1 DUP4 ADD SLOAD SWAP1 DUP3 ADD DUP1 SLOAD PUSH32 0xFFFFFFFFFFFFFFFFFFFFFFFF0000000000000000000000000000000000000000 AND SWAP2 SWAP1 SWAP5 AND OR SWAP1 SWAP3 SSTORE PUSH1 0x2 DUP1 DUP3 ADD SLOAD SWAP1 DUP4 ADD SSTORE PUSH1 0x3 DUP1 DUP3 ADD DUP1 SLOAD SWAP3 SWAP4 SWAP3 SWAP2 DUP4 ADD SWAP2 PUSH2 0x1FD0 SWAP1 PUSH2 0x35EB JUMP JUMPDEST PUSH2 0x1FDB SWAP3 SWAP2 SWAP1 PUSH2 0x2C62 JUMP JUMPDEST POP PUSH1 0x4 DUP3 ADD DUP2 PUSH1 0x4 ADD SWAP1 DUP1 SLOAD PUSH2 0x1FF0 SWAP1 PUSH2 0x35EB JUMP JUMPDEST PUSH2 0x1FFB SWAP3 SWAP2 SWAP1 PUSH2 0x2C62 JUMP JUMPDEST POP PUSH1 0x5 SWAP2 DUP3 ADD SLOAD SWAP2 ADD SSTORE PUSH1 0x40 DUP1 MLOAD DUP8 DUP2 MSTORE PUSH1 0x20 DUP2 ADD DUP5 SWAP1 MSTORE PUSH1 0x1 PUSH1 0x1 PUSH1 0xA0 SHL SUB DUP8 AND DUP2 DUP4 ADD MSTORE PUSH1 0x60 DUP2 ADD DUP4 SWAP1 MSTORE SWAP1 MLOAD PUSH32 0xBDB0068D4DC68BFC2AB68BB13EE946CC8E0742AF7A38904598D16440DAC68DC2 SWAP2 DUP2 SWAP1 SUB PUSH1 0x80 ADD SWAP1 LOG1 PUSH1 0x40 DUP1 MLOAD DUP8 DUP2 MSTORE TIMESTAMP PUSH1 0x20 DUP3 ADD MSTORE PUSH32 0xBD391401F0A25CF7FF74A2C8C0B109D162A27F6007F6A39B00D6BE9866FC3E97 SWAP2 ADD PUSH1 0x40 MLOAD DUP1 SWAP2 SUB SWAP1 LOG1 POP POP POP POP POP POP JUMP JUMPDEST PUSH1 0x0 DUP2 DUP2 MSTORE PUSH1 0xCE PUSH1 0x20 SWAP1 DUP2 MSTORE PUSH1 0x40 DUP1 DUP4 KECCAK256 CALLER DUP5 MSTORE PUSH1 0x1 DUP2 ADD SWAP1 SWAP3 MSTORE SWAP1 SWAP2 KECCAK256 SLOAD PUSH1 0xFF AND ISZERO PUSH2 0xC15 JUMPI PUSH1 0x40 MLOAD PUSH3 0x461BCD PUSH1 0xE5 SHL DUP2 MSTORE PUSH1 0x20 PUSH1 0x4 DUP3 ADD MSTORE PUSH1 0x1C PUSH1 0x24 DUP3 ADD MSTORE PUSH32 0x596F7520616C7265616479206C696B6564207468697320766964656F00000000 PUSH1 0x44 DUP3 ADD MSTORE PUSH1 0x64 ADD PUSH2 0xA6E JUMP JUMPDEST PUSH2 0x210B PUSH2 0x2790 JUMP JUMPDEST PUSH1 0x1 PUSH1 0x1 PUSH1 0xA0 SHL SUB DUP2 AND PUSH2 0x2187 JUMPI PUSH1 0x40 MLOAD PUSH3 0x461BCD PUSH1 0xE5 SHL DUP2 MSTORE PUSH1 0x20 PUSH1 0x4 DUP3 ADD MSTORE PUSH1 0x26 PUSH1 0x24 DUP3 ADD MSTORE PUSH32 0x4F776E61626C653A206E6577206F776E657220697320746865207A65726F2061 PUSH1 0x44 DUP3 ADD MSTORE PUSH32 0x6464726573730000000000000000000000000000000000000000000000000000 PUSH1 0x64 DUP3 ADD MSTORE PUSH1 0x84 ADD PUSH2 0xA6E JUMP JUMPDEST PUSH2 0xB73 DUP2 PUSH2 0x27EA JUMP JUMPDEST PUSH1 0x0 SLOAD PUSH2 0x100 SWAP1 DIV PUSH1 0xFF AND ISZERO DUP1 DUP1 ISZERO PUSH2 0x21B0 JUMPI POP PUSH1 0x0 SLOAD PUSH1 0x1 PUSH1 0xFF SWAP1 SWAP2 AND LT JUMPDEST DUP1 PUSH2 0x21CA JUMPI POP ADDRESS EXTCODESIZE ISZERO DUP1 ISZERO PUSH2 0x21CA JUMPI POP PUSH1 0x0 SLOAD PUSH1 0xFF AND PUSH1 0x1 EQ JUMPDEST PUSH2 0x223C JUMPI PUSH1 0x40 MLOAD PUSH3 0x461BCD PUSH1 0xE5 SHL DUP2 MSTORE PUSH1 0x20 PUSH1 0x4 DUP3 ADD MSTORE PUSH1 0x2E PUSH1 0x24 DUP3 ADD MSTORE PUSH32 0x496E697469616C697A61626C653A20636F6E747261637420697320616C726561 PUSH1 0x44 DUP3 ADD MSTORE PUSH32 0x647920696E697469616C697A6564000000000000000000000000000000000000 PUSH1 0x64 DUP3 ADD MSTORE PUSH1 0x84 ADD PUSH2 0xA6E JUMP JUMPDEST PUSH1 0x0 DUP1 SLOAD PUSH1 0xFF NOT AND PUSH1 0x1 OR SWAP1 SSTORE DUP1 ISZERO PUSH2 0x227C JUMPI PUSH1 0x0 DUP1 SLOAD PUSH32 0xFFFFFFFFFFFFFFFFFFFFFFFFFFFFFFFFFFFFFFFFFFFFFFFFFFFFFFFFFFFF00FF AND PUSH2 0x100 OR SWAP1 SSTORE JUMPDEST ADDRESS PUSH1 0x1 PUSH1 0x1 PUSH1 0xA0 SHL SUB PUSH32 0x0 AND EQ ISZERO PUSH2 0x231B JUMPI PUSH1 0x40 MLOAD PUSH3 0x461BCD PUSH1 0xE5 SHL DUP2 MSTORE PUSH1 0x20 PUSH1 0x4 DUP3 ADD MSTORE PUSH1 0x2C PUSH1 0x24 DUP3 ADD MSTORE PUSH32 0x46756E6374696F6E206D7573742062652063616C6C6564207468726F75676820 PUSH1 0x44 DUP3 ADD MSTORE PUSH32 0x64656C656761746563616C6C0000000000000000000000000000000000000000 PUSH1 0x64 DUP3 ADD MSTORE PUSH1 0x84 ADD PUSH2 0xA6E JUMP JUMPDEST PUSH32 0x0 PUSH1 0x1 PUSH1 0x1 PUSH1 0xA0 SHL SUB AND PUSH2 0x2376 PUSH32 0x360894A13BA1A3210667C828492DB98DCA3E2076CC3735A920A3CA505D382BBC SLOAD PUSH1 0x1 PUSH1 0x1 PUSH1 0xA0 SHL SUB AND SWAP1 JUMP JUMPDEST PUSH1 0x1 PUSH1 0x1 PUSH1 0xA0 SHL SUB AND EQ PUSH2 0x23F2 JUMPI PUSH1 0x40 MLOAD PUSH3 0x461BCD PUSH1 0xE5 SHL DUP2 MSTORE PUSH1 0x20 PUSH1 0x4 DUP3 ADD MSTORE PUSH1 0x2C PUSH1 0x24 DUP3 ADD MSTORE PUSH32 0x46756E6374696F6E206D7573742062652063616C6C6564207468726F75676820 PUSH1 0x44 DUP3 ADD MSTORE PUSH32 0x6163746976652070726F78790000000000000000000000000000000000000000 PUSH1 0x64 DUP3 ADD MSTORE PUSH1 0x84 ADD PUSH2 0xA6E JUMP JUMPDEST PUSH2 0x23FA PUSH2 0x2854 JUMP JUMPDEST PUSH2 0x2402 PUSH2 0x28D9 JUMP JUMPDEST PUSH1 0xD0 DUP1 SLOAD PUSH32 0xFFFFFFFFFFFFFFFFFFFFFFFF0000000000000000000000000000000000000000 AND PUSH1 0x1 PUSH1 0x1 PUSH1 0xA0 SHL SUB DUP7 AND OR SWAP1 SSTORE PUSH2 0x2441 PUSH1 0xD1 DUP5 DUP5 PUSH2 0x2D61 JUMP JUMPDEST POP DUP1 ISZERO PUSH2 0x24A5 JUMPI PUSH1 0x0 DUP1 SLOAD PUSH32 0xFFFFFFFFFFFFFFFFFFFFFFFFFFFFFFFFFFFFFFFFFFFFFFFFFFFFFFFFFFFF00FF AND SWAP1 SSTORE PUSH1 0x40 MLOAD PUSH1 0x1 DUP2 MSTORE PUSH32 0x7F26B83FF96E1F2B6A682F133852F6798A09C465DA95921460CEFB3847402498 SWAP1 PUSH1 0x20 ADD PUSH1 0x40 MLOAD DUP1 SWAP2 SUB SWAP1 LOG1 JUMPDEST POP POP POP POP JUMP JUMPDEST PUSH1 0xCA PUSH1 0x20 MSTORE PUSH1 0x0 SWAP1 DUP2 MSTORE PUSH1 0x40 SWAP1 KECCAK256 DUP1 SLOAD PUSH1 0x1 DUP3 ADD SLOAD PUSH1 0x2 DUP4 ADD SLOAD PUSH1 0x3 DUP5 ADD DUP1 SLOAD SWAP4 SWAP5 PUSH1 0x1 PUSH1 0x1 PUSH1 0xA0 SHL SUB SWAP1 SWAP4 AND SWAP4 SWAP2 SWAP3 SWAP2 PUSH2 0x177A SWAP1 PUSH2 0x35EB JUMP JUMPDEST PUSH1 0xCC PUSH1 0x20 MSTORE DUP2 PUSH1 0x0 MSTORE PUSH1 0x40 PUSH1 0x0 KECCAK256 DUP2 DUP2 SLOAD DUP2 LT PUSH2 0x2501 JUMPI PUSH1 0x0 DUP1 REVERT JUMPDEST PUSH1 0x0 SWAP2 DUP3 MSTORE PUSH1 0x20 SWAP1 SWAP2 KECCAK256 PUSH1 0x3 SWAP1 SWAP2 MUL ADD DUP1 SLOAD PUSH1 0x1 DUP3 ADD DUP1 SLOAD PUSH1 0x1 PUSH1 0x1 PUSH1 0xA0 SHL SUB SWAP1 SWAP3 AND SWAP5 POP SWAP2 SWAP3 POP PUSH2 0x2532 SWAP1 PUSH2 0x35EB JUMP JUMPDEST DUP1 PUSH1 0x1F ADD PUSH1 0x20 DUP1 SWAP2 DIV MUL PUSH1 0x20 ADD PUSH1 0x40 MLOAD SWAP1 DUP2 ADD PUSH1 0x40 MSTORE DUP1 SWAP3 SWAP2 SWAP1 DUP2 DUP2 MSTORE PUSH1 0x20 ADD DUP3 DUP1 SLOAD PUSH2 0x255E SWAP1 PUSH2 0x35EB JUMP JUMPDEST DUP1 ISZERO PUSH2 0x25AB JUMPI DUP1 PUSH1 0x1F LT PUSH2 0x2580 JUMPI PUSH2 0x100 DUP1 DUP4 SLOAD DIV MUL DUP4 MSTORE SWAP2 PUSH1 0x20 ADD SWAP2 PUSH2 0x25AB JUMP JUMPDEST DUP3 ADD SWAP2 SWAP1 PUSH1 0x0 MSTORE PUSH1 0x20 PUSH1 0x0 KECCAK256 SWAP1 JUMPDEST DUP2 SLOAD DUP2 MSTORE SWAP1 PUSH1 0x1 ADD SWAP1 PUSH1 0x20 ADD DUP1 DUP4 GT PUSH2 0x258E JUMPI DUP3 SWAP1 SUB PUSH1 0x1F AND DUP3 ADD SWAP2 JUMPDEST POP POP POP POP POP SWAP1 DUP1 PUSH1 0x2 ADD SLOAD SWAP1 POP DUP4 JUMP JUMPDEST PUSH2 0xB73 PUSH2 0x2790 JUMP JUMPDEST PUSH32 0x4910FDFA16FED3260ED0E7147F7CC6DA11A60208B5B9406D12A635614FFD9143 SLOAD PUSH1 0xFF AND ISZERO PUSH2 0x25F6 JUMPI PUSH2 0x703 DUP4 PUSH2 0x2956 JUMP JUMPDEST DUP3 PUSH1 0x1 PUSH1 0x1 PUSH1 0xA0 SHL SUB AND PUSH4 0x52D1902D PUSH1 0x40 MLOAD DUP2 PUSH4 0xFFFFFFFF AND PUSH1 0xE0 SHL DUP2 MSTORE PUSH1 0x4 ADD PUSH1 0x20 PUSH1 0x40 MLOAD DUP1 DUP4 SUB DUP2 DUP7 DUP1 EXTCODESIZE ISZERO DUP1 ISZERO PUSH2 0x262F JUMPI PUSH1 0x0 DUP1 REVERT JUMPDEST POP GAS STATICCALL SWAP3 POP POP POP DUP1 ISZERO PUSH2 0x267D JUMPI POP PUSH1 0x40 DUP1 MLOAD PUSH1 0x1F RETURNDATASIZE SWAP1 DUP2 ADD PUSH32 0xFFFFFFFFFFFFFFFFFFFFFFFFFFFFFFFFFFFFFFFFFFFFFFFFFFFFFFFFFFFFFFE0 AND DUP3 ADD SWAP1 SWAP3 MSTORE PUSH2 0x267A SWAP2 DUP2 ADD SWAP1 PUSH2 0x2FF9 JUMP JUMPDEST PUSH1 0x1 JUMPDEST PUSH2 0x26EF JUMPI PUSH1 0x40 MLOAD PUSH3 0x461BCD PUSH1 0xE5 SHL DUP2 MSTORE PUSH1 0x20 PUSH1 0x4 DUP3 ADD MSTORE PUSH1 0x2E PUSH1 0x24 DUP3 ADD MSTORE PUSH32 0x45524331393637557067726164653A206E657720696D706C656D656E74617469 PUSH1 0x44 DUP3 ADD MSTORE PUSH32 0x6F6E206973206E6F742055555053000000000000000000000000000000000000 PUSH1 0x64 DUP3 ADD MSTORE PUSH1 0x84 ADD PUSH2 0xA6E JUMP JUMPDEST PUSH32 0x360894A13BA1A3210667C828492DB98DCA3E2076CC3735A920A3CA505D382BBC DUP2 EQ PUSH2 0x2784 JUMPI PUSH1 0x40 MLOAD PUSH3 0x461BCD PUSH1 0xE5 SHL DUP2 MSTORE PUSH1 0x20 PUSH1 0x4 DUP3 ADD MSTORE PUSH1 0x29 PUSH1 0x24 DUP3 ADD MSTORE PUSH32 0x45524331393637557067726164653A20756E737570706F727465642070726F78 PUSH1 0x44 DUP3 ADD MSTORE PUSH32 0x6961626C65555549440000000000000000000000000000000000000000000000 PUSH1 0x64 DUP3 ADD MSTORE PUSH1 0x84 ADD PUSH2 0xA6E JUMP JUMPDEST POP PUSH2 0x703 DUP4 DUP4 DUP4 PUSH2 0x2A2C JUMP JUMPDEST PUSH1 0x97 SLOAD PUSH1 0x1 PUSH1 0x1 PUSH1 0xA0 SHL SUB AND CALLER EQ PUSH2 0x171F JUMPI PUSH1 0x40 MLOAD PUSH3 0x461BCD PUSH1 0xE5 SHL DUP2 MSTORE PUSH1 0x20 PUSH1 0x4 DUP3 ADD DUP2 SWAP1 MSTORE PUSH1 0x24 DUP3 ADD MSTORE PUSH32 0x4F776E61626C653A2063616C6C6572206973206E6F7420746865206F776E6572 PUSH1 0x44 DUP3 ADD MSTORE PUSH1 0x64 ADD PUSH2 0xA6E JUMP JUMPDEST PUSH1 0x97 DUP1 SLOAD PUSH1 0x1 PUSH1 0x1 PUSH1 0xA0 SHL SUB DUP4 DUP2 AND PUSH32 0xFFFFFFFFFFFFFFFFFFFFFFFF0000000000000000000000000000000000000000 DUP4 AND DUP2 OR SWAP1 SWAP4 SSTORE PUSH1 0x40 MLOAD SWAP2 AND SWAP2 SWAP1 DUP3 SWAP1 PUSH32 0x8BE0079C531659141344CD1FD0A4F28419497F9722A3DAAFE3B4186F6B6457E0 SWAP1 PUSH1 0x0 SWAP1 LOG3 POP POP JUMP JUMPDEST PUSH1 0x0 SLOAD PUSH2 0x100 SWAP1 DIV PUSH1 0xFF AND PUSH2 0x28D1 JUMPI PUSH1 0x40 MLOAD PUSH3 0x461BCD PUSH1 0xE5 SHL DUP2 MSTORE PUSH1 0x20 PUSH1 0x4 DUP3 ADD MSTORE PUSH1 0x2B PUSH1 0x24 DUP3 ADD MSTORE PUSH32 0x496E697469616C697A61626C653A20636F6E7472616374206973206E6F742069 PUSH1 0x44 DUP3 ADD MSTORE PUSH32 0x6E697469616C697A696E67000000000000000000000000000000000000000000 PUSH1 0x64 DUP3 ADD MSTORE PUSH1 0x84 ADD PUSH2 0xA6E JUMP JUMPDEST PUSH2 0x171F PUSH2 0x2A51 JUMP JUMPDEST PUSH1 0x0 SLOAD PUSH2 0x100 SWAP1 DIV PUSH1 0xFF AND PUSH2 0x171F JUMPI PUSH1 0x40 MLOAD PUSH3 0x461BCD PUSH1 0xE5 SHL DUP2 MSTORE PUSH1 0x20 PUSH1 0x4 DUP3 ADD MSTORE PUSH1 0x2B PUSH1 0x24 DUP3 ADD MSTORE PUSH32 0x496E697469616C697A61626C653A20636F6E7472616374206973206E6F742069 PUSH1 0x44 DUP3 ADD MSTORE PUSH32 0x6E697469616C697A696E67000000000000000000000000000000000000000000 PUSH1 0x64 DUP3 ADD MSTORE PUSH1 0x84 ADD PUSH2 0xA6E JUMP JUMPDEST PUSH1 0x1 PUSH1 0x1 PUSH1 0xA0 SHL SUB DUP2 AND EXTCODESIZE PUSH2 0x29D3 JUMPI PUSH1 0x40 MLOAD PUSH3 0x461BCD PUSH1 0xE5 SHL DUP2 MSTORE PUSH1 0x20 PUSH1 0x4 DUP3 ADD MSTORE PUSH1 0x2D PUSH1 0x24 DUP3 ADD MSTORE PUSH32 0x455243313936373A206E657720696D706C656D656E746174696F6E206973206E PUSH1 0x44 DUP3 ADD MSTORE PUSH32 0x6F74206120636F6E747261637400000000000000000000000000000000000000 PUSH1 0x64 DUP3 ADD MSTORE PUSH1 0x84 ADD PUSH2 0xA6E JUMP JUMPDEST PUSH32 0x360894A13BA1A3210667C828492DB98DCA3E2076CC3735A920A3CA505D382BBC DUP1 SLOAD PUSH32 0xFFFFFFFFFFFFFFFFFFFFFFFF0000000000000000000000000000000000000000 AND PUSH1 0x1 PUSH1 0x1 PUSH1 0xA0 SHL SUB SWAP3 SWAP1 SWAP3 AND SWAP2 SWAP1 SWAP2 OR SWAP1 SSTORE JUMP JUMPDEST PUSH2 0x2A35 DUP4 PUSH2 0x2AD7 JUMP JUMPDEST PUSH1 0x0 DUP3 MLOAD GT DUP1 PUSH2 0x2A42 JUMPI POP DUP1 JUMPDEST ISZERO PUSH2 0x703 JUMPI PUSH2 0x24A5 DUP4 DUP4 PUSH2 0x2B17 JUMP JUMPDEST PUSH1 0x0 SLOAD PUSH2 0x100 SWAP1 DIV PUSH1 0xFF AND PUSH2 0x2ACE JUMPI PUSH1 0x40 MLOAD PUSH3 0x461BCD PUSH1 0xE5 SHL DUP2 MSTORE PUSH1 0x20 PUSH1 0x4 DUP3 ADD MSTORE PUSH1 0x2B PUSH1 0x24 DUP3 ADD MSTORE PUSH32 0x496E697469616C697A61626C653A20636F6E7472616374206973206E6F742069 PUSH1 0x44 DUP3 ADD MSTORE PUSH32 0x6E697469616C697A696E67000000000000000000000000000000000000000000 PUSH1 0x64 DUP3 ADD MSTORE PUSH1 0x84 ADD PUSH2 0xA6E JUMP JUMPDEST PUSH2 0x171F CALLER PUSH2 0x27EA JUMP JUMPDEST PUSH2 0x2AE0 DUP2 PUSH2 0x2956 JUMP JUMPDEST PUSH1 0x40 MLOAD PUSH1 0x1 PUSH1 0x1 PUSH1 0xA0 SHL SUB DUP3 AND SWAP1 PUSH32 0xBC7CD75A20EE27FD9ADEBAB32041F755214DBC6BFFA90CC0225B39DA2E5C2D3B SWAP1 PUSH1 0x0 SWAP1 LOG2 POP JUMP JUMPDEST PUSH1 0x60 PUSH1 0x1 PUSH1 0x1 PUSH1 0xA0 SHL SUB DUP4 AND EXTCODESIZE PUSH2 0x2B96 JUMPI PUSH1 0x40 MLOAD PUSH3 0x461BCD PUSH1 0xE5 SHL DUP2 MSTORE PUSH1 0x20 PUSH1 0x4 DUP3 ADD MSTORE PUSH1 0x26 PUSH1 0x24 DUP3 ADD MSTORE PUSH32 0x416464726573733A2064656C65676174652063616C6C20746F206E6F6E2D636F PUSH1 0x44 DUP3 ADD MSTORE PUSH32 0x6E74726163740000000000000000000000000000000000000000000000000000 PUSH1 0x64 DUP3 ADD MSTORE PUSH1 0x84 ADD PUSH2 0xA6E JUMP JUMPDEST PUSH1 0x0 DUP1 DUP5 PUSH1 0x1 PUSH1 0x1 PUSH1 0xA0 SHL SUB AND DUP5 PUSH1 0x40 MLOAD PUSH2 0x2BB1 SWAP2 SWAP1 PUSH2 0x32AC JUMP JUMPDEST PUSH1 0x0 PUSH1 0x40 MLOAD DUP1 DUP4 SUB DUP2 DUP6 GAS DELEGATECALL SWAP2 POP POP RETURNDATASIZE DUP1 PUSH1 0x0 DUP2 EQ PUSH2 0x2BEC JUMPI PUSH1 0x40 MLOAD SWAP2 POP PUSH1 0x1F NOT PUSH1 0x3F RETURNDATASIZE ADD AND DUP3 ADD PUSH1 0x40 MSTORE RETURNDATASIZE DUP3 MSTORE RETURNDATASIZE PUSH1 0x0 PUSH1 0x20 DUP5 ADD RETURNDATACOPY PUSH2 0x2BF1 JUMP JUMPDEST PUSH1 0x60 SWAP2 POP JUMPDEST POP SWAP2 POP SWAP2 POP PUSH2 0x2C19 DUP3 DUP3 PUSH1 0x40 MLOAD DUP1 PUSH1 0x60 ADD PUSH1 0x40 MSTORE DUP1 PUSH1 0x27 DUP2 MSTORE PUSH1 0x20 ADD PUSH2 0x36D7 PUSH1 0x27 SWAP2 CODECOPY PUSH2 0x2C22 JUMP JUMPDEST SWAP6 SWAP5 POP POP POP POP POP JUMP JUMPDEST PUSH1 0x60 DUP4 ISZERO PUSH2 0x2C31 JUMPI POP DUP2 PUSH2 0x2C5B JUMP JUMPDEST DUP3 MLOAD ISZERO PUSH2 0x2C41 JUMPI DUP3 MLOAD DUP1 DUP5 PUSH1 0x20 ADD REVERT JUMPDEST DUP2 PUSH1 0x40 MLOAD PUSH3 0x461BCD PUSH1 0xE5 SHL DUP2 MSTORE PUSH1 0x4 ADD PUSH2 0xA6E SWAP2 SWAP1 PUSH2 0x3420 JUMP JUMPDEST SWAP4 SWAP3 POP POP POP JUMP JUMPDEST DUP3 DUP1 SLOAD PUSH2 0x2C6E SWAP1 PUSH2 0x35EB JUMP JUMPDEST SWAP1 PUSH1 0x0 MSTORE PUSH1 0x20 PUSH1 0x0 KECCAK256 SWAP1 PUSH1 0x1F ADD PUSH1 0x20 SWAP1 DIV DUP2 ADD SWAP3 DUP3 PUSH2 0x2C90 JUMPI PUSH1 0x0 DUP6 SSTORE PUSH2 0x2CDD JUMP JUMPDEST DUP3 PUSH1 0x1F LT PUSH2 0x2CA1 JUMPI DUP1 SLOAD DUP6 SSTORE PUSH2 0x2CDD JUMP JUMPDEST DUP3 DUP1 ADD PUSH1 0x1 ADD DUP6 SSTORE DUP3 ISZERO PUSH2 0x2CDD JUMPI PUSH1 0x0 MSTORE PUSH1 0x20 PUSH1 0x0 KECCAK256 SWAP2 PUSH1 0x1F ADD PUSH1 0x20 SWAP1 DIV DUP3 ADD JUMPDEST DUP3 DUP2 GT ISZERO PUSH2 0x2CDD JUMPI DUP3 SLOAD DUP3 SSTORE SWAP2 PUSH1 0x1 ADD SWAP2 SWAP1 PUSH1 0x1 ADD SWAP1 PUSH2 0x2CC2 JUMP JUMPDEST POP PUSH2 0x2CE9 SWAP3 SWAP2 POP PUSH2 0x2DD5 JUMP JUMPDEST POP SWAP1 JUMP JUMPDEST DUP3 DUP1 SLOAD PUSH2 0x2CF9 SWAP1 PUSH2 0x35EB JUMP JUMPDEST SWAP1 PUSH1 0x0 MSTORE PUSH1 0x20 PUSH1 0x0 KECCAK256 SWAP1 PUSH1 0x1F ADD PUSH1 0x20 SWAP1 DIV DUP2 ADD SWAP3 DUP3 PUSH2 0x2D1B JUMPI PUSH1 0x0 DUP6 SSTORE PUSH2 0x2CDD JUMP JUMPDEST DUP3 PUSH1 0x1F LT PUSH2 0x2D34 JUMPI DUP1 MLOAD PUSH1 0xFF NOT AND DUP4 DUP1 ADD OR DUP6 SSTORE PUSH2 0x2CDD JUMP JUMPDEST DUP3 DUP1 ADD PUSH1 0x1 ADD DUP6 SSTORE DUP3 ISZERO PUSH2 0x2CDD JUMPI SWAP2 DUP3 ADD JUMPDEST DUP3 DUP2 GT ISZERO PUSH2 0x2CDD JUMPI DUP3 MLOAD DUP3 SSTORE SWAP2 PUSH1 0x20 ADD SWAP2 SWAP1 PUSH1 0x1 ADD SWAP1 PUSH2 0x2D46 JUMP JUMPDEST DUP3 DUP1 SLOAD PUSH2 0x2D6D SWAP1 PUSH2 0x35EB JUMP JUMPDEST SWAP1 PUSH1 0x0 MSTORE PUSH1 0x20 PUSH1 0x0 KECCAK256 SWAP1 PUSH1 0x1F ADD PUSH1 0x20 SWAP1 DIV DUP2 ADD SWAP3 DUP3 PUSH2 0x2D8F JUMPI PUSH1 0x0 DUP6 SSTORE PUSH2 0x2CDD JUMP JUMPDEST DUP3 PUSH1 0x1F LT PUSH2 0x2DA8 JUMPI DUP3 DUP1 ADD PUSH1 0xFF NOT DUP3 CALLDATALOAD AND OR DUP6 SSTORE PUSH2 0x2CDD JUMP JUMPDEST DUP3 DUP1 ADD PUSH1 0x1 ADD DUP6 SSTORE DUP3 ISZERO PUSH2 0x2CDD JUMPI SWAP2 DUP3 ADD JUMPDEST DUP3 DUP2 GT ISZERO PUSH2 0x2CDD JUMPI DUP3 CALLDATALOAD DUP3 SSTORE SWAP2 PUSH1 0x20 ADD SWAP2 SWAP1 PUSH1 0x1 ADD SWAP1 PUSH2 0x2DBA JUMP JUMPDEST JUMPDEST DUP1 DUP3 GT ISZERO PUSH2 0x2CE9 JUMPI PUSH1 0x0 DUP2 SSTORE PUSH1 0x1 ADD PUSH2 0x2DD6 JUMP JUMPDEST PUSH1 0x0 PUSH8 0xFFFFFFFFFFFFFFFF DUP1 DUP5 GT ISZERO PUSH2 0x2E05 JUMPI PUSH2 0x2E05 PUSH2 0x36A7 JUMP JUMPDEST PUSH1 0x40 MLOAD PUSH1 0x1F DUP6 ADD PUSH32 0xFFFFFFFFFFFFFFFFFFFFFFFFFFFFFFFFFFFFFFFFFFFFFFFFFFFFFFFFFFFFFFE0 SWAP1 DUP2 AND PUSH1 0x3F ADD AND DUP2 ADD SWAP1 DUP3 DUP3 GT DUP2 DUP4 LT OR ISZERO PUSH2 0x2E4B JUMPI PUSH2 0x2E4B PUSH2 0x36A7 JUMP JUMPDEST DUP2 PUSH1 0x40 MSTORE DUP1 SWAP4 POP DUP6 DUP2 MSTORE DUP7 DUP7 DUP7 ADD GT ISZERO PUSH2 0x2E64 JUMPI PUSH1 0x0 DUP1 REVERT JUMPDEST DUP6 DUP6 PUSH1 0x20 DUP4 ADD CALLDATACOPY PUSH1 0x0 PUSH1 0x20 DUP8 DUP4 ADD ADD MSTORE POP POP POP SWAP4 SWAP3 POP POP POP JUMP JUMPDEST DUP1 CALLDATALOAD PUSH1 0x1 PUSH1 0x1 PUSH1 0xA0 SHL SUB DUP2 AND DUP2 EQ PUSH2 0x2E95 JUMPI PUSH1 0x0 DUP1 REVERT JUMPDEST SWAP2 SWAP1 POP JUMP JUMPDEST PUSH1 0x0 DUP3 PUSH1 0x1F DUP4 ADD SLT PUSH2 0x2EAA JUMPI DUP1 DUP2 REVERT JUMPDEST PUSH2 0x2C5B DUP4 DUP4 CALLDATALOAD PUSH1 0x20 DUP6 ADD PUSH2 0x2DEA JUMP JUMPDEST PUSH1 0x0 PUSH1 0x20 DUP3 DUP5 SUB SLT ISZERO PUSH2 0x2ECA JUMPI DUP1 DUP2 REVERT JUMPDEST PUSH2 0x2C5B DUP3 PUSH2 0x2E7E JUMP JUMPDEST PUSH1 0x0 DUP1 PUSH1 0x40 DUP4 DUP6 SUB SLT ISZERO PUSH2 0x2EE5 JUMPI DUP1 DUP2 REVERT JUMPDEST PUSH2 0x2EEE DUP4 PUSH2 0x2E7E JUMP JUMPDEST SWAP2 POP PUSH1 0x20 DUP4 ADD CALLDATALOAD PUSH8 0xFFFFFFFFFFFFFFFF DUP2 GT ISZERO PUSH2 0x2F09 JUMPI DUP2 DUP3 REVERT JUMPDEST DUP4 ADD PUSH1 0x1F DUP2 ADD DUP6 SGT PUSH2 0x2F19 JUMPI DUP2 DUP3 REVERT JUMPDEST PUSH2 0x2F28 DUP6 DUP3 CALLDATALOAD PUSH1 0x20 DUP5 ADD PUSH2 0x2DEA JUMP JUMPDEST SWAP2 POP POP SWAP3 POP SWAP3 SWAP1 POP JUMP JUMPDEST PUSH1 0x0 DUP1 PUSH1 0x0 PUSH1 0x40 DUP5 DUP7 SUB SLT ISZERO PUSH2 0x2F46 JUMPI DUP1 DUP2 REVERT JUMPDEST PUSH2 0x2F4F DUP5 PUSH2 0x2E7E JUMP JUMPDEST SWAP3 POP PUSH1 0x20 DUP5 ADD CALLDATALOAD PUSH8 0xFFFFFFFFFFFFFFFF DUP1 DUP3 GT ISZERO PUSH2 0x2F6B JUMPI DUP3 DUP4 REVERT JUMPDEST DUP2 DUP7 ADD SWAP2 POP DUP7 PUSH1 0x1F DUP4 ADD SLT PUSH2 0x2F7E JUMPI DUP3 DUP4 REVERT JUMPDEST DUP2 CALLDATALOAD DUP2 DUP2 GT ISZERO PUSH2 0x2F8C JUMPI DUP4 DUP5 REVERT JUMPDEST DUP8 PUSH1 0x20 DUP3 DUP6 ADD ADD GT ISZERO PUSH2 0x2F9D JUMPI DUP4 DUP5 REVERT JUMPDEST PUSH1 0x20 DUP4 ADD SWAP5 POP DUP1 SWAP4 POP POP POP POP SWAP3 POP SWAP3 POP SWAP3 JUMP JUMPDEST PUSH1 0x0 DUP1 PUSH1 0x40 DUP4 DUP6 SUB SLT ISZERO PUSH2 0x2FC2 JUMPI DUP2 DUP3 REVERT JUMPDEST PUSH2 0x2FCB DUP4 PUSH2 0x2E7E JUMP JUMPDEST SWAP5 PUSH1 0x20 SWAP4 SWAP1 SWAP4 ADD CALLDATALOAD SWAP4 POP POP POP JUMP JUMPDEST PUSH1 0x0 PUSH1 0x20 DUP3 DUP5 SUB SLT ISZERO PUSH2 0x2FEA JUMPI DUP1 DUP2 REVERT JUMPDEST DUP2 MLOAD DUP1 ISZERO ISZERO DUP2 EQ PUSH2 0x2C5B JUMPI DUP2 DUP3 REVERT JUMPDEST PUSH1 0x0 PUSH1 0x20 DUP3 DUP5 SUB SLT ISZERO PUSH2 0x300A JUMPI DUP1 DUP2 REVERT JUMPDEST POP MLOAD SWAP2 SWAP1 POP JUMP JUMPDEST PUSH1 0x0 DUP1 PUSH1 0x0 PUSH1 0x60 DUP5 DUP7 SUB SLT ISZERO PUSH2 0x3025 JUMPI DUP3 DUP4 REVERT JUMPDEST DUP4 CALLDATALOAD PUSH8 0xFFFFFFFFFFFFFFFF DUP1 DUP3 GT ISZERO PUSH2 0x303C JUMPI DUP5 DUP6 REVERT JUMPDEST PUSH2 0x3048 DUP8 DUP4 DUP9 ADD PUSH2 0x2E9A JUMP JUMPDEST SWAP5 POP PUSH1 0x20 DUP7 ADD CALLDATALOAD SWAP2 POP DUP1 DUP3 GT ISZERO PUSH2 0x305D JUMPI DUP4 DUP5 REVERT JUMPDEST POP PUSH2 0x306A DUP7 DUP3 DUP8 ADD PUSH2 0x2E9A JUMP JUMPDEST SWAP3 POP POP PUSH1 0x40 DUP5 ADD CALLDATALOAD SWAP1 POP SWAP3 POP SWAP3 POP SWAP3 JUMP JUMPDEST PUSH1 0x0 DUP1 PUSH1 0x40 DUP4 DUP6 SUB SLT ISZERO PUSH2 0x308D JUMPI DUP2 DUP3 REVERT JUMPDEST DUP3 CALLDATALOAD PUSH8 0xFFFFFFFFFFFFFFFF DUP2 GT ISZERO PUSH2 0x30A3 JUMPI DUP3 DUP4 REVERT JUMPDEST PUSH2 0x30AF DUP6 DUP3 DUP7 ADD PUSH2 0x2E9A JUMP JUMPDEST SWAP6 PUSH1 0x20 SWAP5 SWAP1 SWAP5 ADD CALLDATALOAD SWAP5 POP POP POP POP JUMP JUMPDEST PUSH1 0x0 PUSH1 0x20 DUP3 DUP5 SUB SLT ISZERO PUSH2 0x30CF JUMPI DUP1 DUP2 REVERT JUMPDEST POP CALLDATALOAD SWAP2 SWAP1 POP JUMP JUMPDEST PUSH1 0x0 DUP1 PUSH1 0x0 DUP1 PUSH1 0x0 DUP1 PUSH1 0xC0 DUP8 DUP10 SUB SLT ISZERO PUSH2 0x30EE JUMPI DUP2 DUP3 REVERT JUMPDEST DUP7 CALLDATALOAD SWAP6 POP PUSH2 0x30FE PUSH1 0x20 DUP9 ADD PUSH2 0x2E7E JUMP JUMPDEST SWAP5 POP PUSH1 0x40 DUP8 ADD CALLDATALOAD PUSH8 0xFFFFFFFFFFFFFFFF DUP1 DUP3 GT ISZERO PUSH2 0x311A JUMPI DUP4 DUP5 REVERT JUMPDEST PUSH2 0x3126 DUP11 DUP4 DUP12 ADD PUSH2 0x2E9A JUMP JUMPDEST SWAP6 POP PUSH1 0x60 DUP10 ADD CALLDATALOAD SWAP2 POP DUP1 DUP3 GT ISZERO PUSH2 0x313B JUMPI DUP4 DUP5 REVERT JUMPDEST POP PUSH2 0x3148 DUP10 DUP3 DUP11 ADD PUSH2 0x2E9A JUMP JUMPDEST SWAP4 POP POP PUSH1 0x80 DUP8 ADD CALLDATALOAD SWAP2 POP PUSH1 0xA0 DUP8 ADD CALLDATALOAD SWAP1 POP SWAP3 SWAP6 POP SWAP3 SWAP6 POP SWAP3 SWAP6 JUMP JUMPDEST PUSH1 0x0 DUP1 PUSH1 0x0 DUP1 PUSH1 0x80 DUP6 DUP8 SUB SLT ISZERO PUSH2 0x3178 JUMPI DUP4 DUP5 REVERT JUMPDEST DUP5 CALLDATALOAD SWAP4 POP PUSH1 0x20 DUP6 ADD CALLDATALOAD PUSH8 0xFFFFFFFFFFFFFFFF DUP1 DUP3 GT ISZERO PUSH2 0x3196 JUMPI DUP5 DUP6 REVERT JUMPDEST PUSH2 0x31A2 DUP9 DUP4 DUP10 ADD PUSH2 0x2E9A JUMP JUMPDEST SWAP5 POP PUSH1 0x40 DUP8 ADD CALLDATALOAD SWAP2 POP DUP1 DUP3 GT ISZERO PUSH2 0x31B7 JUMPI DUP4 DUP5 REVERT JUMPDEST POP PUSH2 0x31C4 DUP8 DUP3 DUP9 ADD PUSH2 0x2E9A JUMP JUMPDEST SWAP5 SWAP8 SWAP4 SWAP7 POP SWAP4 SWAP5 PUSH1 0x60 ADD CALLDATALOAD SWAP4 POP POP POP JUMP JUMPDEST PUSH1 0x0 DUP1 PUSH1 0x40 DUP4 DUP6 SUB SLT ISZERO PUSH2 0x31E7 JUMPI DUP2 DUP3 REVERT JUMPDEST POP POP DUP1 CALLDATALOAD SWAP3 PUSH1 0x20 SWAP1 SWAP2 ADD CALLDATALOAD SWAP2 POP JUMP JUMPDEST PUSH1 0x0 DUP2 MLOAD DUP1 DUP5 MSTORE PUSH2 0x320E DUP2 PUSH1 0x20 DUP7 ADD PUSH1 0x20 DUP7 ADD PUSH2 0x358A JUMP JUMPDEST PUSH1 0x1F ADD PUSH32 0xFFFFFFFFFFFFFFFFFFFFFFFFFFFFFFFFFFFFFFFFFFFFFFFFFFFFFFFFFFFFFFE0 AND SWAP3 SWAP1 SWAP3 ADD PUSH1 0x20 ADD SWAP3 SWAP2 POP POP JUMP JUMPDEST DUP1 MLOAD DUP3 MSTORE PUSH1 0x1 PUSH1 0x1 PUSH1 0xA0 SHL SUB PUSH1 0x20 DUP3 ADD MLOAD AND PUSH1 0x20 DUP4 ADD MSTORE PUSH1 0x40 DUP2 ADD MLOAD PUSH1 0x40 DUP4 ADD MSTORE PUSH1 0x0 PUSH1 0x60 DUP3 ADD MLOAD PUSH1 0xC0 PUSH1 0x60 DUP6 ADD MSTORE PUSH2 0x327C PUSH1 0xC0 DUP6 ADD DUP3 PUSH2 0x31F6 JUMP JUMPDEST SWAP1 POP PUSH1 0x80 DUP4 ADD MLOAD DUP5 DUP3 SUB PUSH1 0x80 DUP7 ADD MSTORE PUSH2 0x3295 DUP3 DUP3 PUSH2 0x31F6 JUMP JUMPDEST SWAP2 POP POP PUSH1 0xA0 DUP4 ADD MLOAD PUSH1 0xA0 DUP6 ADD MSTORE DUP1 SWAP2 POP POP SWAP3 SWAP2 POP POP JUMP JUMPDEST PUSH1 0x0 DUP3 MLOAD PUSH2 0x32BE DUP2 DUP5 PUSH1 0x20 DUP8 ADD PUSH2 0x358A JUMP JUMPDEST SWAP2 SWAP1 SWAP2 ADD SWAP3 SWAP2 POP POP JUMP JUMPDEST PUSH1 0x1 PUSH1 0x1 PUSH1 0xA0 SHL SUB DUP5 AND DUP2 MSTORE PUSH1 0x60 PUSH1 0x20 DUP3 ADD MSTORE PUSH1 0x0 PUSH2 0x32EA PUSH1 0x60 DUP4 ADD DUP6 PUSH2 0x31F6 JUMP JUMPDEST SWAP1 POP DUP3 PUSH1 0x40 DUP4 ADD MSTORE SWAP5 SWAP4 POP POP POP POP JUMP JUMPDEST PUSH1 0x0 PUSH1 0x20 DUP1 DUP4 ADD DUP2 DUP5 MSTORE DUP1 DUP6 MLOAD DUP1 DUP4 MSTORE PUSH1 0x40 SWAP3 POP DUP3 DUP7 ADD SWAP2 POP DUP3 DUP2 PUSH1 0x5 SHL DUP8 ADD ADD DUP5 DUP9 ADD DUP7 JUMPDEST DUP4 DUP2 LT ISZERO PUSH2 0x3393 JUMPI PUSH32 0xFFFFFFFFFFFFFFFFFFFFFFFFFFFFFFFFFFFFFFFFFFFFFFFFFFFFFFFFFFFFFFC0 DUP10 DUP5 SUB ADD DUP6 MSTORE DUP2 MLOAD PUSH1 0x60 PUSH1 0x1 PUSH1 0x1 PUSH1 0xA0 SHL SUB DUP3 MLOAD AND DUP6 MSTORE DUP9 DUP3 ADD MLOAD DUP2 DUP11 DUP8 ADD MSTORE PUSH2 0x3375 DUP3 DUP8 ADD DUP3 PUSH2 0x31F6 JUMP JUMPDEST SWAP3 DUP10 ADD MLOAD SWAP6 DUP10 ADD SWAP6 SWAP1 SWAP6 MSTORE POP SWAP5 DUP8 ADD SWAP5 SWAP3 POP SWAP1 DUP7 ADD SWAP1 PUSH1 0x1 ADD PUSH2 0x3320 JUMP JUMPDEST POP SWAP1 SWAP9 SWAP8 POP POP POP POP POP POP POP POP JUMP JUMPDEST PUSH1 0x0 PUSH1 0x20 DUP1 DUP4 ADD DUP2 DUP5 MSTORE DUP1 DUP6 MLOAD DUP1 DUP4 MSTORE PUSH1 0x40 DUP7 ADD SWAP2 POP PUSH1 0x40 DUP2 PUSH1 0x5 SHL DUP8 ADD ADD SWAP3 POP DUP4 DUP8 ADD DUP6 JUMPDEST DUP3 DUP2 LT ISZERO PUSH2 0x3413 JUMPI PUSH32 0xFFFFFFFFFFFFFFFFFFFFFFFFFFFFFFFFFFFFFFFFFFFFFFFFFFFFFFFFFFFFFFC0 DUP9 DUP7 SUB ADD DUP5 MSTORE PUSH2 0x3401 DUP6 DUP4 MLOAD PUSH2 0x3240 JUMP JUMPDEST SWAP5 POP SWAP3 DUP6 ADD SWAP3 SWAP1 DUP6 ADD SWAP1 PUSH1 0x1 ADD PUSH2 0x33C7 JUMP JUMPDEST POP SWAP3 SWAP8 SWAP7 POP POP POP POP POP POP POP JUMP JUMPDEST PUSH1 0x20 DUP2 MSTORE PUSH1 0x0 PUSH2 0x2C5B PUSH1 0x20 DUP4 ADD DUP5 PUSH2 0x31F6 JUMP JUMPDEST PUSH1 0x40 DUP2 MSTORE PUSH1 0x0 DUP1 DUP5 SLOAD DUP3 PUSH1 0x1 DUP3 DUP2 SHR SWAP2 POP DUP1 DUP4 AND DUP1 PUSH2 0x3453 JUMPI PUSH1 0x7F DUP4 AND SWAP3 POP JUMPDEST PUSH1 0x20 DUP1 DUP5 LT DUP3 EQ ISZERO PUSH2 0x348C JUMPI PUSH32 0x4E487B7100000000000000000000000000000000000000000000000000000000 DUP8 MSTORE PUSH1 0x22 PUSH1 0x4 MSTORE PUSH1 0x24 DUP8 REVERT JUMPDEST PUSH1 0x40 DUP9 ADD DUP5 SWAP1 MSTORE PUSH1 0x60 DUP9 ADD DUP3 DUP1 ISZERO PUSH2 0x34AB JUMPI PUSH1 0x1 DUP2 EQ PUSH2 0x34BC JUMPI PUSH2 0x34E6 JUMP JUMPDEST PUSH1 0xFF NOT DUP8 AND DUP3 MSTORE DUP3 DUP3 ADD SWAP8 POP PUSH2 0x34E6 JUMP JUMPDEST PUSH1 0x0 DUP13 DUP2 MSTORE PUSH1 0x20 SWAP1 KECCAK256 DUP10 JUMPDEST DUP8 DUP2 LT ISZERO PUSH2 0x34E0 JUMPI DUP2 SLOAD DUP5 DUP3 ADD MSTORE SWAP1 DUP7 ADD SWAP1 DUP5 ADD PUSH2 0x34C7 JUMP JUMPDEST DUP4 ADD SWAP9 POP POP JUMPDEST POP POP DUP6 SWAP7 POP PUSH2 0x34FF DUP2 DUP10 ADD DUP11 PUSH1 0x1 PUSH1 0x1 PUSH1 0xA0 SHL SUB AND SWAP1 MSTORE JUMP JUMPDEST POP POP POP POP POP POP SWAP4 SWAP3 POP POP POP JUMP JUMPDEST PUSH1 0x20 DUP2 MSTORE PUSH1 0x0 PUSH2 0x2C5B PUSH1 0x20 DUP4 ADD DUP5 PUSH2 0x3240 JUMP JUMPDEST DUP7 DUP2 MSTORE PUSH1 0x1 PUSH1 0x1 PUSH1 0xA0 SHL SUB DUP7 AND PUSH1 0x20 DUP3 ADD MSTORE DUP5 PUSH1 0x40 DUP3 ADD MSTORE PUSH1 0xC0 PUSH1 0x60 DUP3 ADD MSTORE PUSH1 0x0 PUSH2 0x354D PUSH1 0xC0 DUP4 ADD DUP7 PUSH2 0x31F6 JUMP JUMPDEST DUP3 DUP2 SUB PUSH1 0x80 DUP5 ADD MSTORE PUSH2 0x355F DUP2 DUP7 PUSH2 0x31F6 JUMP JUMPDEST SWAP2 POP POP DUP3 PUSH1 0xA0 DUP4 ADD MSTORE SWAP8 SWAP7 POP POP POP POP POP POP POP JUMP JUMPDEST PUSH1 0x0 DUP3 DUP3 LT ISZERO PUSH2 0x3585 JUMPI PUSH2 0x3585 PUSH2 0x3678 JUMP JUMPDEST POP SUB SWAP1 JUMP JUMPDEST PUSH1 0x0 JUMPDEST DUP4 DUP2 LT ISZERO PUSH2 0x35A5 JUMPI DUP2 DUP2 ADD MLOAD DUP4 DUP3 ADD MSTORE PUSH1 0x20 ADD PUSH2 0x358D JUMP JUMPDEST DUP4 DUP2 GT ISZERO PUSH2 0x24A5 JUMPI POP POP PUSH1 0x0 SWAP2 ADD MSTORE JUMP JUMPDEST PUSH1 0x0 DUP2 PUSH2 0x35C5 JUMPI PUSH2 0x35C5 PUSH2 0x3678 JUMP JUMPDEST POP PUSH32 0xFFFFFFFFFFFFFFFFFFFFFFFFFFFFFFFFFFFFFFFFFFFFFFFFFFFFFFFFFFFFFFFF ADD SWAP1 JUMP JUMPDEST PUSH1 0x1 DUP2 DUP2 SHR SWAP1 DUP3 AND DUP1 PUSH2 0x35FF JUMPI PUSH1 0x7F DUP3 AND SWAP2 POP JUMPDEST PUSH1 0x20 DUP3 LT DUP2 EQ ISZERO PUSH2 0x3639 JUMPI PUSH32 0x4E487B7100000000000000000000000000000000000000000000000000000000 PUSH1 0x0 MSTORE PUSH1 0x22 PUSH1 0x4 MSTORE PUSH1 0x24 PUSH1 0x0 REVERT JUMPDEST POP SWAP2 SWAP1 POP JUMP JUMPDEST PUSH1 0x0 PUSH32 0xFFFFFFFFFFFFFFFFFFFFFFFFFFFFFFFFFFFFFFFFFFFFFFFFFFFFFFFFFFFFFFFF DUP3 EQ ISZERO PUSH2 0x3671 JUMPI PUSH2 0x3671 PUSH2 0x3678 JUMP JUMPDEST POP PUSH1 0x1 ADD SWAP1 JUMP JUMPDEST PUSH32 0x4E487B7100000000000000000000000000000000000000000000000000000000 PUSH1 0x0 MSTORE PUSH1 0x11 PUSH1 0x4 MSTORE PUSH1 0x24 PUSH1 0x0 REVERT JUMPDEST PUSH32 0x4E487B7100000000000000000000000000000000000000000000000000000000 PUSH1 0x0 MSTORE PUSH1 0x41 PUSH1 0x4 MSTORE PUSH1 0x24 PUSH1 0x0 REVERT INVALID COINBASE PUSH5 0x6472657373 GASPRICE KECCAK256 PUSH13 0x6F772D6C6576656C2064656C65 PUSH8 0x6174652063616C6C KECCAK256 PUSH7 0x61696C6564A264 PUSH10 0x70667358221220F85CF9 PUSH22 0x4CE008D8C35706074BAD97FE589D3C2AA14EE3DFC9A5 PUSH14 0xE6BC365F5D64736F6C6343000804 STOP CALLER "},"methodIdentifiers":{"addFilesFromMigration(uint256,address,string,string,bytes32,uint256)":"d927af7b","addToPlaylist(uint256)":"567cf437","comment(string,uint256)":"5c751ff2","comments(uint256,uint256)":"fc6c776f","dislike(uint256)":"618f8bbb","files(uint256)":"f4c714b4","getAllVideosLength()":"d2759879","getComments(uint256)":"23edf697","getCommentsLength(uint256)":"52273582","getLikes(uint256)":"a209081e","getPaginatedVideos(uint256,uint256)":"5f54241c","getPlaylist(address)":"5e897224","getSubscribe(address)":"f64faf31","getVideo(uint256)":"2893eca2","getVideosByUser(address)":"a8db2e32","initialize(address,string)":"f399e22e","isSubscribed(address)":"b92ae87c","like(uint256)":"e82935da","likes(uint256)":"7e9dffe6","owner()":"8da5cb5b","playlist(address,uint256)":"9dfa9f73","proxiableUUID()":"52d1902d","renounceOwnership()":"715018a6","subscribe(address)":"41a7726a","subscribers(address)":"5745ae28","transferOwnership(address)":"f2fde38b","unSubscribe(address)":"041d8c91","updateVideo(uint256,string,string,bytes32)":"96a01631","upgradeTo(address)":"3659cfe6","upgradeToAndCall(address,bytes)":"4f1ef286","uploadVideo(string,string,bytes32)":"60492269","userLinkedFiles(address,uint256)":"7e091bff"}},"storageLayout":{"storage":[{"astId":527,"contract":"contracts/TubePoint.sol:TubePoint","label":"_initialized","offset":0,"slot":"0","type":"t_uint8"},{"astId":530,"contract":"contracts/TubePoint.sol:TubePoint","label":"_initializing","offset":1,"slot":"0","type":"t_bool"},{"astId":509,"contract":"contracts/TubePoint.sol:TubePoint","label":"__gap","offset":0,"slot":"1","type":"t_array(t_uint256)50_storage"},{"astId":806,"contract":"contracts/TubePoint.sol:TubePoint","label":"__gap","offset":0,"slot":"51","type":"t_array(t_uint256)50_storage"},{"astId":1091,"contract":"contracts/TubePoint.sol:TubePoint","label":"__gap","offset":0,"slot":"101","type":"t_array(t_uint256)50_storage"},{"astId":10,"contract":"contracts/TubePoint.sol:TubePoint","label":"_owner","offset":0,"slot":"151","type":"t_address"},{"astId":130,"contract":"contracts/TubePoint.sol:TubePoint","label":"__gap","offset":0,"slot":"152","type":"t_array(t_uint256)49_storage"},{"astId":1247,"contract":"contracts/TubePoint.sol:TubePoint","label":"fileCount","offset":0,"slot":"201","type":"t_struct(Counter)1158_storage"},{"astId":1286,"contract":"contracts/TubePoint.sol:TubePoint","label":"files","offset":0,"slot":"202","type":"t_mapping(t_uint256,t_struct(File)1260_storage)"},{"astId":1292,"contract":"contracts/TubePoint.sol:TubePoint","label":"userLinkedFiles","offset":0,"slot":"203","type":"t_mapping(t_address,t_array(t_struct(File)1260_storage)dyn_storage)"},{"astId":1298,"contract":"contracts/TubePoint.sol:TubePoint","label":"comments","offset":0,"slot":"204","type":"t_mapping(t_uint256,t_array(t_struct(Comment)1267_storage)dyn_storage)"},{"astId":1304,"contract":"contracts/TubePoint.sol:TubePoint","label":"playlist","offset":0,"slot":"205","type":"t_mapping(t_address,t_array(t_struct(File)1260_storage)dyn_storage)"},{"astId":1309,"contract":"contracts/TubePoint.sol:TubePoint","label":"likes","offset":0,"slot":"206","type":"t_mapping(t_uint256,t_struct(Like)1274_storage)"},{"astId":1314,"contract":"contracts/TubePoint.sol:TubePoint","label":"subscribers","offset":0,"slot":"207","type":"t_mapping(t_address,t_struct(Subscribe)1281_storage)"},{"astId":1316,"contract":"contracts/TubePoint.sol:TubePoint","label":"identityContractAddress","offset":0,"slot":"208","type":"t_address"},{"astId":1318,"contract":"contracts/TubePoint.sol:TubePoint","label":"identityHandle","offset":0,"slot":"209","type":"t_string_storage"}],"types":{"t_address":{"encoding":"inplace","label":"address","numberOfBytes":"20"},"t_array(t_struct(Comment)1267_storage)dyn_storage":{"base":"t_struct(Comment)1267_storage","encoding":"dynamic_array","label":"struct TubePoint.Comment[]","numberOfBytes":"32"},"t_array(t_struct(File)1260_storage)dyn_storage":{"base":"t_struct(File)1260_storage","encoding":"dynamic_array","label":"struct TubePoint.File[]","numberOfBytes":"32"},"t_array(t_uint256)49_storage":{"base":"t_uint256","encoding":"inplace","label":"uint256[49]","numberOfBytes":"1568"},"t_array(t_uint256)50_storage":{"base":"t_uint256","encoding":"inplace","label":"uint256[50]","numberOfBytes":"1600"},"t_bool":{"encoding":"inplace","label":"bool","numberOfBytes":"1"},"t_bytes32":{"encoding":"inplace","label":"bytes32","numberOfBytes":"32"},"t_mapping(t_address,t_array(t_struct(File)1260_storage)dyn_storage)":{"encoding":"mapping","key":"t_address","label":"mapping(address => struct TubePoint.File[])","numberOfBytes":"32","value":"t_array(t_struct(File)1260_storage)dyn_storage"},"t_mapping(t_address,t_bool)":{"encoding":"mapping","key":"t_address","label":"mapping(address => bool)","numberOfBytes":"32","value":"t_bool"},"t_mapping(t_address,t_struct(Subscribe)1281_storage)":{"encoding":"mapping","key":"t_address","label":"mapping(address => struct TubePoint.Subscribe)","numberOfBytes":"32","value":"t_struct(Subscribe)1281_storage"},"t_mapping(t_uint256,t_array(t_struct(Comment)1267_storage)dyn_storage)":{"encoding":"mapping","key":"t_uint256","label":"mapping(uint256 => struct TubePoint.Comment[])","numberOfBytes":"32","value":"t_array(t_struct(Comment)1267_storage)dyn_storage"},"t_mapping(t_uint256,t_struct(File)1260_storage)":{"encoding":"mapping","key":"t_uint256","label":"mapping(uint256 => struct TubePoint.File)","numberOfBytes":"32","value":"t_struct(File)1260_storage"},"t_mapping(t_uint256,t_struct(Like)1274_storage)":{"encoding":"mapping","key":"t_uint256","label":"mapping(uint256 => struct TubePoint.Like)","numberOfBytes":"32","value":"t_struct(Like)1274_storage"},"t_string_storage":{"encoding":"bytes","label":"string","numberOfBytes":"32"},"t_struct(Comment)1267_storage":{"encoding":"inplace","label":"struct TubePoint.Comment","members":[{"astId":1262,"contract":"contracts/TubePoint.sol:TubePoint","label":"user","offset":0,"slot":"0","type":"t_address"},{"astId":1264,"contract":"contracts/TubePoint.sol:TubePoint","label":"message","offset":0,"slot":"1","type":"t_string_storage"},{"astId":1266,"contract":"contracts/TubePoint.sol:TubePoint","label":"timestamp","offset":0,"slot":"2","type":"t_uint256"}],"numberOfBytes":"96"},"t_struct(Counter)1158_storage":{"encoding":"inplace","label":"struct Counters.Counter","members":[{"astId":1157,"contract":"contracts/TubePoint.sol:TubePoint","label":"_value","offset":0,"slot":"0","type":"t_uint256"}],"numberOfBytes":"32"},"t_struct(File)1260_storage":{"encoding":"inplace","label":"struct TubePoint.File","members":[{"astId":1249,"contract":"contracts/TubePoint.sol:TubePoint","label":"id","offset":0,"slot":"0","type":"t_uint256"},{"astId":1251,"contract":"contracts/TubePoint.sol:TubePoint","label":"from","offset":0,"slot":"1","type":"t_address"},{"astId":1253,"contract":"contracts/TubePoint.sol:TubePoint","label":"fileId","offset":0,"slot":"2","type":"t_bytes32"},{"astId":1255,"contract":"contracts/TubePoint.sol:TubePoint","label":"title","offset":0,"slot":"3","type":"t_string_storage"},{"astId":1257,"contract":"contracts/TubePoint.sol:TubePoint","label":"desc","offset":0,"slot":"4","type":"t_string_storage"},{"astId":1259,"contract":"contracts/TubePoint.sol:TubePoint","label":"timestamp","offset":0,"slot":"5","type":"t_uint256"}],"numberOfBytes":"192"},"t_struct(Like)1274_storage":{"encoding":"inplace","label":"struct TubePoint.Like","members":[{"astId":1269,"contract":"contracts/TubePoint.sol:TubePoint","label":"counter","offset":0,"slot":"0","type":"t_uint256"},{"astId":1273,"contract":"contracts/TubePoint.sol:TubePoint","label":"userAddress","offset":0,"slot":"1","type":"t_mapping(t_address,t_bool)"}],"numberOfBytes":"64"},"t_struct(Subscribe)1281_storage":{"encoding":"inplace","label":"struct TubePoint.Subscribe","members":[{"astId":1276,"contract":"contracts/TubePoint.sol:TubePoint","label":"counter","offset":0,"slot":"0","type":"t_uint256"},{"astId":1280,"contract":"contracts/TubePoint.sol:TubePoint","label":"userAddress","offset":0,"slot":"1","type":"t_mapping(t_address,t_bool)"}],"numberOfBytes":"64"},"t_uint256":{"encoding":"inplace","label":"uint256","numberOfBytes":"32"},"t_uint8":{"encoding":"inplace","label":"uint8","numberOfBytes":"1"}}}}}}