{
  "_format": "hh-sol-artifact-1",
  "contractName": "TubePoint",
  "sourceName": "contracts/TubePoint.sol",
  "abi": [
    {
      "anonymous": false,
      "inputs": [
        {
          "indexed": false,
          "internalType": "address",
          "name": "previousAdmin",
          "type": "address"
        },
        {
          "indexed": false,
          "internalType": "address",
          "name": "newAdmin",
          "type": "address"
        }
      ],
      "name": "AdminChanged",
      "type": "event"
    },
    {
      "anonymous": false,
      "inputs": [
        {
          "indexed": true,
          "internalType": "address",
          "name": "beacon",
          "type": "address"
        }
      ],
      "name": "BeaconUpgraded",
      "type": "event"
    },
    {
      "anonymous": false,
      "inputs": [
        {
          "indexed": false,
          "internalType": "address",
          "name": "user",
          "type": "address"
        },
        {
          "indexed": false,
          "internalType": "string",
          "name": "message",
          "type": "string"
        },
        {
          "indexed": false,
          "internalType": "uint256",
          "name": "timestamp",
          "type": "uint256"
        }
      ],
      "name": "Commented",
      "type": "event"
    },
    {
      "anonymous": false,
      "inputs": [
        {
          "indexed": false,
          "internalType": "uint256",
          "name": "_id",
          "type": "uint256"
        },
        {
          "indexed": false,
          "internalType": "uint256",
          "name": "_timestamp",
          "type": "uint256"
        }
      ],
      "name": "FileMigrated",
      "type": "event"
    },
    {
      "anonymous": false,
      "inputs": [
        {
          "indexed": false,
          "internalType": "uint256",
          "name": "id",
          "type": "uint256"
        },
        {
          "indexed": false,
          "internalType": "bytes32",
          "name": "fileId",
          "type": "bytes32"
        },
        {
          "indexed": false,
          "internalType": "address",
          "name": "from",
          "type": "address"
        },
        {
          "indexed": false,
          "internalType": "uint256",
          "name": "timestamp",
          "type": "uint256"
        }
      ],
      "name": "FileUploaded",
      "type": "event"
    },
    {
      "anonymous": false,
      "inputs": [
        {
          "indexed": false,
          "internalType": "uint8",
          "name": "version",
          "type": "uint8"
        }
      ],
      "name": "Initialized",
      "type": "event"
    },
    {
      "anonymous": false,
      "inputs": [
        {
          "indexed": true,
          "internalType": "address",
          "name": "previousOwner",
          "type": "address"
        },
        {
          "indexed": true,
          "internalType": "address",
          "name": "newOwner",
          "type": "address"
        }
      ],
      "name": "OwnershipTransferred",
      "type": "event"
    },
    {
      "anonymous": false,
      "inputs": [
        {
          "indexed": true,
          "internalType": "address",
          "name": "implementation",
          "type": "address"
        }
      ],
      "name": "Upgraded",
      "type": "event"
    },
    {
      "inputs": [
        {
          "internalType": "uint256",
          "name": "_id",
          "type": "uint256"
        },
        {
          "internalType": "address",
          "name": "_from",
          "type": "address"
        },
        {
          "internalType": "string",
          "name": "title",
          "type": "string"
        },
        {
          "internalType": "string",
          "name": "desc",
          "type": "string"
        },
        {
          "internalType": "bytes32",
          "name": "fileId",
          "type": "bytes32"
        },
        {
          "internalType": "uint256",
          "name": "dateTime",
          "type": "uint256"
        }
      ],
      "name": "addFilesFromMigration",
      "outputs": [],
      "stateMutability": "nonpayable",
      "type": "function"
    },
    {
      "inputs": [
        {
          "internalType": "uint256",
          "name": "id",
          "type": "uint256"
        }
      ],
      "name": "addToPlaylist",
      "outputs": [],
      "stateMutability": "nonpayable",
      "type": "function"
    },
    {
      "inputs": [
        {
          "internalType": "string",
          "name": "_message",
          "type": "string"
        },
        {
          "internalType": "uint256",
          "name": "id",
          "type": "uint256"
        }
      ],
      "name": "comment",
      "outputs": [],
      "stateMutability": "nonpayable",
      "type": "function"
    },
    {
      "inputs": [
        {
          "internalType": "uint256",
          "name": "",
          "type": "uint256"
        },
        {
          "internalType": "uint256",
          "name": "",
          "type": "uint256"
        }
      ],
      "name": "comments",
      "outputs": [
        {
          "internalType": "address",
          "name": "user",
          "type": "address"
        },
        {
          "internalType": "string",
          "name": "message",
          "type": "string"
        },
        {
          "internalType": "uint256",
          "name": "timestamp",
          "type": "uint256"
        }
      ],
      "stateMutability": "view",
      "type": "function"
    },
    {
      "inputs": [
        {
          "internalType": "uint256",
          "name": "id",
          "type": "uint256"
        }
      ],
      "name": "dislike",
      "outputs": [],
      "stateMutability": "nonpayable",
      "type": "function"
    },
    {
      "inputs": [
        {
          "internalType": "uint256",
          "name": "",
          "type": "uint256"
        }
      ],
      "name": "files",
      "outputs": [
        {
          "internalType": "uint256",
          "name": "id",
          "type": "uint256"
        },
        {
          "internalType": "address",
          "name": "from",
          "type": "address"
        },
        {
          "internalType": "bytes32",
          "name": "fileId",
          "type": "bytes32"
        },
        {
          "internalType": "string",
          "name": "title",
          "type": "string"
        },
        {
          "internalType": "string",
          "name": "desc",
          "type": "string"
        },
        {
          "internalType": "uint256",
          "name": "timestamp",
          "type": "uint256"
        }
      ],
      "stateMutability": "view",
      "type": "function"
    },
    {
      "inputs": [],
      "name": "getAllVideosLength",
      "outputs": [
        {
          "internalType": "uint256",
          "name": "",
          "type": "uint256"
        }
      ],
      "stateMutability": "view",
      "type": "function"
    },
    {
      "inputs": [
        {
          "internalType": "uint256",
          "name": "id",
          "type": "uint256"
        }
      ],
      "name": "getComments",
      "outputs": [
        {
          "components": [
            {
              "internalType": "address",
              "name": "user",
              "type": "address"
            },
            {
              "internalType": "string",
              "name": "message",
              "type": "string"
            },
            {
              "internalType": "uint256",
              "name": "timestamp",
              "type": "uint256"
            }
          ],
          "internalType": "struct TubePoint.Comment[]",
          "name": "",
          "type": "tuple[]"
        }
      ],
      "stateMutability": "view",
      "type": "function"
    },
    {
      "inputs": [
        {
          "internalType": "uint256",
          "name": "id",
          "type": "uint256"
        }
      ],
      "name": "getCommentsLength",
      "outputs": [
        {
          "internalType": "uint256",
          "name": "",
          "type": "uint256"
        }
      ],
      "stateMutability": "view",
      "type": "function"
    },
    {
      "inputs": [
        {
          "internalType": "uint256",
          "name": "id",
          "type": "uint256"
        }
      ],
      "name": "getLikes",
      "outputs": [
        {
          "internalType": "uint256",
          "name": "",
          "type": "uint256"
        }
      ],
      "stateMutability": "view",
      "type": "function"
    },
    {
      "inputs": [
        {
          "internalType": "uint256",
          "name": "cursor",
          "type": "uint256"
        },
        {
          "internalType": "uint256",
          "name": "howMany",
          "type": "uint256"
        }
      ],
      "name": "getPaginatedVideos",
      "outputs": [
        {
          "components": [
            {
              "internalType": "uint256",
              "name": "id",
              "type": "uint256"
            },
            {
              "internalType": "address",
              "name": "from",
              "type": "address"
            },
            {
              "internalType": "bytes32",
              "name": "fileId",
              "type": "bytes32"
            },
            {
              "internalType": "string",
              "name": "title",
              "type": "string"
            },
            {
              "internalType": "string",
              "name": "desc",
              "type": "string"
            },
            {
              "internalType": "uint256",
              "name": "timestamp",
              "type": "uint256"
            }
          ],
          "internalType": "struct TubePoint.File[]",
          "name": "",
          "type": "tuple[]"
        }
      ],
      "stateMutability": "view",
      "type": "function"
    },
    {
      "inputs": [
        {
          "internalType": "address",
          "name": "_address",
          "type": "address"
        }
      ],
      "name": "getPlaylist",
      "outputs": [
        {
          "components": [
            {
              "internalType": "uint256",
              "name": "id",
              "type": "uint256"
            },
            {
              "internalType": "address",
              "name": "from",
              "type": "address"
            },
            {
              "internalType": "bytes32",
              "name": "fileId",
              "type": "bytes32"
            },
            {
              "internalType": "string",
              "name": "title",
              "type": "string"
            },
            {
              "internalType": "string",
              "name": "desc",
              "type": "string"
            },
            {
              "internalType": "uint256",
              "name": "timestamp",
              "type": "uint256"
            }
          ],
          "internalType": "struct TubePoint.File[]",
          "name": "",
          "type": "tuple[]"
        }
      ],
      "stateMutability": "view",
      "type": "function"
    },
    {
      "inputs": [
        {
          "internalType": "address",
          "name": "_subAddress",
          "type": "address"
        }
      ],
      "name": "getSubscribe",
      "outputs": [
        {
          "internalType": "uint256",
          "name": "",
          "type": "uint256"
        }
      ],
      "stateMutability": "view",
      "type": "function"
    },
    {
      "inputs": [
        {
          "internalType": "uint256",
          "name": "fileId",
          "type": "uint256"
        }
      ],
      "name": "getVideo",
      "outputs": [
        {
          "components": [
            {
              "internalType": "uint256",
              "name": "id",
              "type": "uint256"
            },
            {
              "internalType": "address",
              "name": "from",
              "type": "address"
            },
            {
              "internalType": "bytes32",
              "name": "fileId",
              "type": "bytes32"
            },
            {
              "internalType": "string",
              "name": "title",
              "type": "string"
            },
            {
              "internalType": "string",
              "name": "desc",
              "type": "string"
            },
            {
              "internalType": "uint256",
              "name": "timestamp",
              "type": "uint256"
            }
          ],
          "internalType": "struct TubePoint.File",
          "name": "",
          "type": "tuple"
        }
      ],
      "stateMutability": "view",
      "type": "function"
    },
    {
      "inputs": [
        {
          "internalType": "address",
          "name": "_user",
          "type": "address"
        }
      ],
      "name": "getVideosByUser",
      "outputs": [
        {
          "components": [
            {
              "internalType": "uint256",
              "name": "id",
              "type": "uint256"
            },
            {
              "internalType": "address",
              "name": "from",
              "type": "address"
            },
            {
              "internalType": "bytes32",
              "name": "fileId",
              "type": "bytes32"
            },
            {
              "internalType": "string",
              "name": "title",
              "type": "string"
            },
            {
              "internalType": "string",
              "name": "desc",
              "type": "string"
            },
            {
              "internalType": "uint256",
              "name": "timestamp",
              "type": "uint256"
            }
          ],
          "internalType": "struct TubePoint.File[]",
          "name": "",
          "type": "tuple[]"
        }
      ],
      "stateMutability": "view",
      "type": "function"
    },
    {
      "inputs": [
        {
          "internalType": "address",
          "name": "_identityContractAddress",
          "type": "address"
        },
        {
          "internalType": "string",
          "name": "_identityHandle",
          "type": "string"
        }
      ],
      "name": "initialize",
      "outputs": [],
      "stateMutability": "nonpayable",
      "type": "function"
    },
    {
      "inputs": [
        {
          "internalType": "address",
          "name": "_subAddress",
          "type": "address"
        }
      ],
      "name": "isSubscribed",
      "outputs": [
        {
          "internalType": "bool",
          "name": "",
          "type": "bool"
        }
      ],
      "stateMutability": "view",
      "type": "function"
    },
    {
      "inputs": [
        {
          "internalType": "uint256",
          "name": "id",
          "type": "uint256"
        }
      ],
      "name": "like",
      "outputs": [],
      "stateMutability": "nonpayable",
      "type": "function"
    },
    {
      "inputs": [
        {
          "internalType": "uint256",
          "name": "",
          "type": "uint256"
        }
      ],
      "name": "likes",
      "outputs": [
        {
          "internalType": "uint256",
          "name": "counter",
          "type": "uint256"
        }
      ],
      "stateMutability": "view",
      "type": "function"
    },
    {
      "inputs": [],
      "name": "owner",
      "outputs": [
        {
          "internalType": "address",
          "name": "",
          "type": "address"
        }
      ],
      "stateMutability": "view",
      "type": "function"
    },
    {
      "inputs": [
        {
          "internalType": "address",
          "name": "",
          "type": "address"
        },
        {
          "internalType": "uint256",
          "name": "",
          "type": "uint256"
        }
      ],
      "name": "playlist",
      "outputs": [
        {
          "internalType": "uint256",
          "name": "id",
          "type": "uint256"
        },
        {
          "internalType": "address",
          "name": "from",
          "type": "address"
        },
        {
          "internalType": "bytes32",
          "name": "fileId",
          "type": "bytes32"
        },
        {
          "internalType": "string",
          "name": "title",
          "type": "string"
        },
        {
          "internalType": "string",
          "name": "desc",
          "type": "string"
        },
        {
          "internalType": "uint256",
          "name": "timestamp",
          "type": "uint256"
        }
      ],
      "stateMutability": "view",
      "type": "function"
    },
    {
      "inputs": [],
      "name": "proxiableUUID",
      "outputs": [
        {
          "internalType": "bytes32",
          "name": "",
          "type": "bytes32"
        }
      ],
      "stateMutability": "view",
      "type": "function"
    },
    {
      "inputs": [],
      "name": "renounceOwnership",
      "outputs": [],
      "stateMutability": "nonpayable",
      "type": "function"
    },
    {
      "inputs": [
        {
          "internalType": "address",
          "name": "_subAddress",
          "type": "address"
        }
      ],
      "name": "subscribe",
      "outputs": [],
      "stateMutability": "nonpayable",
      "type": "function"
    },
    {
      "inputs": [
        {
          "internalType": "address",
          "name": "",
          "type": "address"
        }
      ],
      "name": "subscribers",
      "outputs": [
        {
          "internalType": "uint256",
          "name": "counter",
          "type": "uint256"
        }
      ],
      "stateMutability": "view",
      "type": "function"
    },
    {
      "inputs": [
        {
          "internalType": "address",
          "name": "newOwner",
          "type": "address"
        }
      ],
      "name": "transferOwnership",
      "outputs": [],
      "stateMutability": "nonpayable",
      "type": "function"
    },
    {
      "inputs": [
        {
          "internalType": "address",
          "name": "_subAddress",
          "type": "address"
        }
      ],
      "name": "unSubscribe",
      "outputs": [],
      "stateMutability": "nonpayable",
      "type": "function"
    },
    {
      "inputs": [
        {
          "internalType": "uint256",
          "name": "id",
          "type": "uint256"
        },
        {
          "internalType": "string",
          "name": "title",
          "type": "string"
        },
        {
          "internalType": "string",
          "name": "desc",
          "type": "string"
        },
        {
          "internalType": "bytes32",
          "name": "fileId",
          "type": "bytes32"
        }
      ],
      "name": "updateVideo",
      "outputs": [],
      "stateMutability": "nonpayable",
      "type": "function"
    },
    {
      "inputs": [
        {
          "internalType": "address",
          "name": "newImplementation",
          "type": "address"
        }
      ],
      "name": "upgradeTo",
      "outputs": [],
      "stateMutability": "nonpayable",
      "type": "function"
    },
    {
      "inputs": [
        {
          "internalType": "address",
          "name": "newImplementation",
          "type": "address"
        },
        {
          "internalType": "bytes",
          "name": "data",
          "type": "bytes"
        }
      ],
      "name": "upgradeToAndCall",
      "outputs": [],
      "stateMutability": "payable",
      "type": "function"
    },
    {
      "inputs": [
        {
          "internalType": "string",
          "name": "title",
          "type": "string"
        },
        {
          "internalType": "string",
          "name": "desc",
          "type": "string"
        },
        {
          "internalType": "bytes32",
          "name": "fileId",
          "type": "bytes32"
        }
      ],
      "name": "uploadVideo",
      "outputs": [],
      "stateMutability": "nonpayable",
      "type": "function"
    },
    {
      "inputs": [
        {
          "internalType": "address",
          "name": "",
          "type": "address"
        },
        {
          "internalType": "uint256",
          "name": "",
          "type": "uint256"
        }
      ],
      "name": "userLinkedFiles",
      "outputs": [
        {
          "internalType": "uint256",
          "name": "id",
          "type": "uint256"
        },
        {
          "internalType": "address",
          "name": "from",
          "type": "address"
        },
        {
          "internalType": "bytes32",
          "name": "fileId",
          "type": "bytes32"
        },
        {
          "internalType": "string",
          "name": "title",
          "type": "string"
        },
        {
          "internalType": "string",
          "name": "desc",
          "type": "string"
        },
        {
          "internalType": "uint256",
          "name": "timestamp",
          "type": "uint256"
        }
      ],
      "stateMutability": "view",
      "type": "function"
    }
  ],
  "bytecode": "0x60a06040523060601b60805234801561001757600080fd5b5060805160601c613733610060600039600081816109de01528181610a7901528181610c5301528181610ce901528181610de401528181612287015261231d01526137336000f3fe6080604052600436106101e35760003560e01c80637e091bff11610102578063d275987911610095578063f399e22e11610064578063f399e22e146105ff578063f4c714b41461061f578063f64faf311461063f578063fc6c776f1461067557600080fd5b8063d27598791461058a578063d927af7b1461059f578063e82935da146105bf578063f2fde38b146105df57600080fd5b80639dfa9f73116100d15780639dfa9f73146104c6578063a209081e146104e6578063a8db2e3214610513578063b92ae87c1461053357600080fd5b80637e091bff1461041f5780637e9dffe6146104515780638da5cb5b1461047e57806396a01631146104a657600080fd5b8063567cf4371161017a5780635f54241c116101495780635f54241c146103aa57806360492269146103ca578063618f8bbb146103ea578063715018a61461040a57600080fd5b8063567cf437146103105780635745ae28146103305780635c751ff21461035d5780635e8972241461037d57600080fd5b806341a7726a116101b657806341a7726a1461028d5780634f1ef286146102ad57806352273582146102c057806352d1902d146102fb57600080fd5b8063041d8c91146101e857806323edf6971461020a5780632893eca2146102405780633659cfe61461026d575b600080fd5b3480156101f457600080fd5b50610208610203366004612eb9565b6106a4565b005b34801561021657600080fd5b5061022a6102253660046130be565b610708565b60405161023791906132fa565b60405180910390f35b34801561024c57600080fd5b5061026061025b3660046130be565b61082c565b604051610237919061350c565b34801561027957600080fd5b50610208610288366004612eb9565b6109d3565b34801561029957600080fd5b506102086102a8366004612eb9565b610b76565b6102086102bb366004612ed3565b610c48565b3480156102cc57600080fd5b506102ed6102db3660046130be565b600090815260cc602052604090205490565b604051908152602001610237565b34801561030757600080fd5b506102ed610dd7565b34801561031c57600080fd5b5061020861032b3660046130be565b610e9c565b34801561033c57600080fd5b506102ed61034b366004612eb9565b60cf6020526000908152604090205481565b34801561036957600080fd5b5061020861037836600461307b565b611075565b34801561038957600080fd5b5061039d610398366004612eb9565b611167565b60405161023791906133a1565b3480156103b657600080fd5b5061039d6103c53660046131d5565b61132a565b3480156103d657600080fd5b506102086103e5366004613011565b61148f565b3480156103f657600080fd5b506102086104053660046130be565b6116c1565b34801561041657600080fd5b5061020861170d565b34801561042b57600080fd5b5061043f61043a366004612fb0565b611721565b6040516102379695949392919061351f565b34801561045d57600080fd5b506102ed61046c3660046130be565b60ce6020526000908152604090205481565b34801561048a57600080fd5b506097546040516001600160a01b039091168152602001610237565b3480156104b257600080fd5b506102086104c1366004613163565b611891565b3480156104d257600080fd5b5061043f6104e1366004612fb0565b6119ea565b3480156104f257600080fd5b506102ed6105013660046130be565b600090815260ce602052604090205490565b34801561051f57600080fd5b5061039d61052e366004612eb9565b611a06565b34801561053f57600080fd5b5061057a61054e366004612eb9565b6001600160a01b0316600090815260cf6020908152604080832033845260010190915290205460ff1690565b6040519015158152602001610237565b34801561059657600080fd5b506102ed611d27565b3480156105ab57600080fd5b506102086105ba3660046130d6565b611d37565b3480156105cb57600080fd5b506102086105da3660046130be565b612094565b3480156105eb57600080fd5b506102086105fa366004612eb9565b612103565b34801561060b57600080fd5b5061020861061a366004612f32565b612190565b34801561062b57600080fd5b5061043f61063a3660046130be565b6124ab565b34801561064b57600080fd5b506102ed61065a366004612eb9565b6001600160a01b0316600090815260cf602052604090205490565b34801561068157600080fd5b506106956106903660046131d5565b6124e5565b604051610237939291906132c8565b6001600160a01b038116600090815260cf6020908152604080832033845260018082019093529220805460ff19811690915560ff16908115151480156106ea5750815415155b156107035781548260006106fd836135b6565b91905055505b505050565b606060cc6000838152602001908152602001600020805480602002602001604051908101604052809291908181526020016000905b8282101561082157600084815260209081902060408051606081019091526003850290910180546001600160a01b031682526001810180549293919291840191610786906135eb565b80601f01602080910402602001604051908101604052809291908181526020018280546107b2906135eb565b80156107ff5780601f106107d4576101008083540402835291602001916107ff565b820191906000526020600020905b8154815290600101906020018083116107e257829003601f168201915b505050505081526020016002820154815250508152602001906001019061073d565b505050509050919050565b6040805160c080820183526000808352602080840182905283850182905260608085018190526080850181905260a0850183905286835260ca825291859020855193840186528054845260018101546001600160a01b03169184019190915260028101549483019490945260038401805493949293918401916108ae906135eb565b80601f01602080910402602001604051908101604052809291908181526020018280546108da906135eb565b80156109275780601f106108fc57610100808354040283529160200191610927565b820191906000526020600020905b81548152906001019060200180831161090a57829003601f168201915b50505050508152602001600482018054610940906135eb565b80601f016020809104026020016040519081016040528092919081815260200182805461096c906135eb565b80156109b95780601f1061098e576101008083540402835291602001916109b9565b820191906000526020600020905b81548152906001019060200180831161099c57829003601f168201915b505050505081526020016005820154815250509050919050565b306001600160a01b037f0000000000000000000000000000000000000000000000000000000000000000161415610a775760405162461bcd60e51b815260206004820152602c60248201527f46756e6374696f6e206d7573742062652063616c6c6564207468726f7567682060448201527f64656c656761746563616c6c000000000000000000000000000000000000000060648201526084015b60405180910390fd5b7f00000000000000000000000000000000000000000000000000000000000000006001600160a01b0316610ad27f360894a13ba1a3210667c828492db98dca3e2076cc3735a920a3ca505d382bbc546001600160a01b031690565b6001600160a01b031614610b4e5760405162461bcd60e51b815260206004820152602c60248201527f46756e6374696f6e206d7573742062652063616c6c6564207468726f7567682060448201527f6163746976652070726f787900000000000000000000000000000000000000006064820152608401610a6e565b610b57816125bb565b60408051600080825260208201909252610b73918391906125c3565b50565b6001600160a01b038116600090815260cf60209081526040808320338452600181019092529091205460ff1615610c155760405162461bcd60e51b815260206004820152602360248201527f596f7520616c7265616479207375627363726962656420746f2074686973207560448201527f73657200000000000000000000000000000000000000000000000000000000006064820152608401610a6e565b8054816000610c238361363f565b9091555050336000908152600191820160205260409020805460ff1916909117905550565b306001600160a01b037f0000000000000000000000000000000000000000000000000000000000000000161415610ce75760405162461bcd60e51b815260206004820152602c60248201527f46756e6374696f6e206d7573742062652063616c6c6564207468726f7567682060448201527f64656c656761746563616c6c00000000000000000000000000000000000000006064820152608401610a6e565b7f00000000000000000000000000000000000000000000000000000000000000006001600160a01b0316610d427f360894a13ba1a3210667c828492db98dca3e2076cc3735a920a3ca505d382bbc546001600160a01b031690565b6001600160a01b031614610dbe5760405162461bcd60e51b815260206004820152602c60248201527f46756e6374696f6e206d7573742062652063616c6c6564207468726f7567682060448201527f6163746976652070726f787900000000000000000000000000000000000000006064820152608401610a6e565b610dc7826125bb565b610dd3828260016125c3565b5050565b6000306001600160a01b037f00000000000000000000000000000000000000000000000000000000000000001614610e775760405162461bcd60e51b815260206004820152603860248201527f555550535570677261646561626c653a206d757374206e6f742062652063616c60448201527f6c6564207468726f7567682064656c656761746563616c6c00000000000000006064820152608401610a6e565b507f360894a13ba1a3210667c828492db98dca3e2076cc3735a920a3ca505d382bbc90565b6000805b33600090815260cd6020526040902054811015610f355733600090815260cd60205260409020805484919083908110610f02577f4e487b7100000000000000000000000000000000000000000000000000000000600052603260045260246000fd5b9060005260206000209060060201600001541415610f235760019150610f35565b80610f2d8161363f565b915050610ea0565b508015610faa5760405162461bcd60e51b815260206004820152602d60248201527f796f75206861766520616c72656164792061646465642074686973207669646560448201527f6f20696e20706c61796c697374000000000000000000000000000000000000006064820152608401610a6e565b33600090815260cd6020908152604080832085845260ca83529083208154600181810184559285529290932083546006909302019182558083015490820180547fffffffffffffffffffffffff0000000000000000000000000000000000000000166001600160a01b039290921691909117905560028083015490820155600380830180549183019161103c906135eb565b611047929190612c62565b50600482018160040190805461105c906135eb565b611067929190612c62565b506005918201549101555050565b600082511161108357600080fd5b3361108d57600080fd5b600081815260cc602090815260408083208151606081018352338152808401878152429382019390935281546001808201845592865294849020815160039096020180547fffffffffffffffffffffffff0000000000000000000000000000000000000000166001600160a01b039096169590951785559151805192949361111b9392850192910190612ced565b506040820151816002015550507f59aee10a182c49d9f99f11ce9e7eac21ff5c85878c9a52a91f4be25c9a4e0f4033834260405161115b939291906132c8565b60405180910390a15050565b6001600160a01b038116600090815260cd60209081526040808320805482518185028101850190935280835260609492939192909184015b828210156108215760008481526020908190206040805160c081018252600686029092018054835260018101546001600160a01b0316938301939093526002830154908201526003820180549192916060840191906111fd906135eb565b80601f0160208091040260200160405190810160405280929190818152602001828054611229906135eb565b80156112765780601f1061124b57610100808354040283529160200191611276565b820191906000526020600020905b81548152906001019060200180831161125957829003601f168201915b5050505050815260200160048201805461128f906135eb565b80601f01602080910402602001604051908101604052809291908181526020018280546112bb906135eb565b80156113085780601f106112dd57610100808354040283529160200191611308565b820191906000526020600020905b8154815290600101906020018083116112eb57829003601f168201915b505050505081526020016005820154815250508152602001906001019061119f565b60608161133660c95490565b811115611342575060c9545b60008167ffffffffffffffff811115611384577f4e487b7100000000000000000000000000000000000000000000000000000000600052604160045260246000fd5b60405190808252806020026020018201604052801561140157816020015b6040805160c081018252600080825260208083018290529282018190526060808301819052608083015260a082015282527fffffffffffffffffffffffffffffffffffffffffffffffffffffffffffffffff9092019101816113a25790505b50905060015b828111611486576114178661082c565b82611423600184613573565b8151811061145a577f4e487b7100000000000000000000000000000000000000000000000000000000600052603260045260246000fd5b602002602001018190525085806114709061363f565b965050808061147e9061363f565b915050611407565b50949350505050565b3361149957600080fd5b6114a760c980546001019055565b6040518060c001604052806114bb60c95490565b8152602001336001600160a01b031681526020018281526020018481526020018381526020014281525060ca60006114f260c95490565b8152602080820192909252604090810160002083518155838301516001820180547fffffffffffffffffffffffff0000000000000000000000000000000000000000166001600160a01b0390921691909117905590830151600282015560608301518051919261156a92600385019290910190612ced565b5060808201518051611586916004840191602090910190612ced565b5060a0919091015160059091015533600090815260cb602052604081209060ca906115b060c95490565b815260208082019290925260400160009081208354600181810186559483529290912081546006909302019182558281015492820180547fffffffffffffffffffffffff0000000000000000000000000000000000000000166001600160a01b0390941693909317909255600280830154908201556003808301805491830191611639906135eb565b611644929190612c62565b506004820181600401908054611659906135eb565b611664929190612c62565b506005918201549101557fbdb0068d4dc68bfc2ab68bb13ee946cc8e0742af7a38904598d16440dac68dc261169860c95490565b6040805191825260208201849052339082015242606082015260800160405180910390a1505050565b600081815260ce6020908152604080832033845260018082019093529220805460ff19811690915560ff16908115151480156106ea57508154156107035781548260006106fd836135b6565b611715612790565b61171f60006127ea565b565b60cb602052816000526040600020818154811061173d57600080fd5b600091825260209091206006909102018054600182015460028301546003840180549396506001600160a01b039092169450929161177a906135eb565b80601f01602080910402602001604051908101604052809291908181526020018280546117a6906135eb565b80156117f35780601f106117c8576101008083540402835291602001916117f3565b820191906000526020600020905b8154815290600101906020018083116117d657829003601f168201915b505050505090806004018054611808906135eb565b80601f0160208091040260200160405190810160405280929190818152602001828054611834906135eb565b80156118815780601f1061185657610100808354040283529160200191611881565b820191906000526020600020905b81548152906001019060200180831161186457829003601f168201915b5050505050908060050154905086565b6000841161189e57600080fd5b600084815260ca6020526040902060018101546001600160a01b031633146119085760405162461bcd60e51b815260206004820152601a60248201527f596f752063616e6e6f742065646974207468697320766964656f0000000000006044820152606401610a6e565b60018101546001600160a01b03166119625760405162461bcd60e51b815260206004820152601060248201527f5265636f7264206e6f7420666f756e64000000000000000000000000000000006044820152606401610a6e565b83516119779060038301906020870190612ced565b50825161198d9060048301906020860190612ced565b50600281018290554260058201819055604080518781526020810185905233818301526060810192909252517fbdb0068d4dc68bfc2ab68bb13ee946cc8e0742af7a38904598d16440dac68dc29181900360800190a15050505050565b60cd602052816000526040600020818154811061173d57600080fd5b6001600160a01b038116600090815260cb60205260408120546060918167ffffffffffffffff811115611a62577f4e487b7100000000000000000000000000000000000000000000000000000000600052604160045260246000fd5b604051908082528060200260200182016040528015611adf57816020015b6040805160c081018252600080825260208083018290529282018190526060808301819052608083015260a082015282527fffffffffffffffffffffffffffffffffffffffffffffffffffffffffffffffff909201910181611a805790505b50905060005b82811015611d1f576001600160a01b038516600090815260cb60205260409020805482908110611b3e577f4e487b7100000000000000000000000000000000000000000000000000000000600052603260045260246000fd5b90600052602060002090600602016040518060c0016040529081600082015481526020016001820160009054906101000a90046001600160a01b03166001600160a01b03166001600160a01b0316815260200160028201548152602001600382018054611baa906135eb565b80601f0160208091040260200160405190810160405280929190818152602001828054611bd6906135eb565b8015611c235780601f10611bf857610100808354040283529160200191611c23565b820191906000526020600020905b815481529060010190602001808311611c0657829003601f168201915b50505050508152602001600482018054611c3c906135eb565b80601f0160208091040260200160405190810160405280929190818152602001828054611c68906135eb565b8015611cb55780601f10611c8a57610100808354040283529160200191611cb5565b820191906000526020600020905b815481529060010190602001808311611c9857829003601f168201915b50505050508152602001600582015481525050828281518110611d01577f4e487b7100000000000000000000000000000000000000000000000000000000600052603260045260246000fd5b60200260200101819052508080611d179061363f565b915050611ae5565b509392505050565b6000611d3260c95490565b905090565b60d0546040517faf1d5e480000000000000000000000000000000000000000000000000000000081526001600160a01b039091169063af1d5e4890611d839060d1903390600401613433565b60206040518083038186803b158015611d9b57600080fd5b505afa158015611daf573d6000803e3d6000fd5b505050506040513d601f19601f82011682018060405250810190611dd39190612fd9565b611e1f5760405162461bcd60e51b815260206004820152600e60248201527f4e6f742061206465706c6f7965720000000000000000000000000000000000006044820152606401610a6e565b6001600160a01b038516611e755760405162461bcd60e51b815260206004820152601760248201527f4e6f205a65726f204164647265737320416c6c6f7765640000000000000000006044820152606401610a6e565b6040805160c0810182528781526001600160a01b038781166020808401918252838501878152606085018a8152608086018a905260a0860188905260008d815260ca8452969096208551815592516001840180547fffffffffffffffffffffffff00000000000000000000000000000000000000001691909516179093559151600282015592518051929392611f119260038501920190612ced565b5060808201518051611f2d916004840191602090910190612ced565b5060a091909101516005909101556001600160a01b03808616600090815260cb602090815260408083208a845260ca83529083208154600181810184559285529290932083546006909302019182558083015490820180547fffffffffffffffffffffffff0000000000000000000000000000000000000000169190941617909255600280820154908301556003808201805492939291830191611fd0906135eb565b611fdb929190612c62565b506004820181600401908054611ff0906135eb565b611ffb929190612c62565b5060059182015491015560408051878152602081018490526001600160a01b038716818301526060810183905290517fbdb0068d4dc68bfc2ab68bb13ee946cc8e0742af7a38904598d16440dac68dc29181900360800190a1604080518781524260208201527fbd391401f0a25cf7ff74a2c8c0b109d162a27f6007f6a39b00d6be9866fc3e97910160405180910390a1505050505050565b600081815260ce60209081526040808320338452600181019092529091205460ff1615610c155760405162461bcd60e51b815260206004820152601c60248201527f596f7520616c7265616479206c696b6564207468697320766964656f000000006044820152606401610a6e565b61210b612790565b6001600160a01b0381166121875760405162461bcd60e51b815260206004820152602660248201527f4f776e61626c653a206e6577206f776e657220697320746865207a65726f206160448201527f64647265737300000000000000000000000000000000000000000000000000006064820152608401610a6e565b610b73816127ea565b600054610100900460ff16158080156121b05750600054600160ff909116105b806121ca5750303b1580156121ca575060005460ff166001145b61223c5760405162461bcd60e51b815260206004820152602e60248201527f496e697469616c697a61626c653a20636f6e747261637420697320616c72656160448201527f647920696e697469616c697a65640000000000000000000000000000000000006064820152608401610a6e565b6000805460ff19166001179055801561227c57600080547fffffffffffffffffffffffffffffffffffffffffffffffffffffffffffff00ff166101001790555b306001600160a01b037f000000000000000000000000000000000000000000000000000000000000000016141561231b5760405162461bcd60e51b815260206004820152602c60248201527f46756e6374696f6e206d7573742062652063616c6c6564207468726f7567682060448201527f64656c656761746563616c6c00000000000000000000000000000000000000006064820152608401610a6e565b7f00000000000000000000000000000000000000000000000000000000000000006001600160a01b03166123767f360894a13ba1a3210667c828492db98dca3e2076cc3735a920a3ca505d382bbc546001600160a01b031690565b6001600160a01b0316146123f25760405162461bcd60e51b815260206004820152602c60248201527f46756e6374696f6e206d7573742062652063616c6c6564207468726f7567682060448201527f6163746976652070726f787900000000000000000000000000000000000000006064820152608401610a6e565b6123fa612854565b6124026128d9565b60d080547fffffffffffffffffffffffff0000000000000000000000000000000000000000166001600160a01b03861617905561244160d18484612d61565b5080156124a557600080547fffffffffffffffffffffffffffffffffffffffffffffffffffffffffffff00ff169055604051600181527f7f26b83ff96e1f2b6a682f133852f6798a09c465da95921460cefb38474024989060200160405180910390a15b50505050565b60ca60205260009081526040902080546001820154600283015460038401805493946001600160a01b039093169391929161177a906135eb565b60cc602052816000526040600020818154811061250157600080fd5b6000918252602090912060039091020180546001820180546001600160a01b039092169450919250612532906135eb565b80601f016020809104026020016040519081016040528092919081815260200182805461255e906135eb565b80156125ab5780601f10612580576101008083540402835291602001916125ab565b820191906000526020600020905b81548152906001019060200180831161258e57829003601f168201915b5050505050908060020154905083565b610b73612790565b7f4910fdfa16fed3260ed0e7147f7cc6da11a60208b5b9406d12a635614ffd91435460ff16156125f65761070383612956565b826001600160a01b03166352d1902d6040518163ffffffff1660e01b815260040160206040518083038186803b15801561262f57600080fd5b505afa92505050801561267d575060408051601f3d9081017fffffffffffffffffffffffffffffffffffffffffffffffffffffffffffffffe016820190925261267a91810190612ff9565b60015b6126ef5760405162461bcd60e51b815260206004820152602e60248201527f45524331393637557067726164653a206e657720696d706c656d656e7461746960448201527f6f6e206973206e6f7420555550530000000000000000000000000000000000006064820152608401610a6e565b7f360894a13ba1a3210667c828492db98dca3e2076cc3735a920a3ca505d382bbc81146127845760405162461bcd60e51b815260206004820152602960248201527f45524331393637557067726164653a20756e737570706f727465642070726f7860448201527f6961626c655555494400000000000000000000000000000000000000000000006064820152608401610a6e565b50610703838383612a2c565b6097546001600160a01b0316331461171f5760405162461bcd60e51b815260206004820181905260248201527f4f776e61626c653a2063616c6c6572206973206e6f7420746865206f776e65726044820152606401610a6e565b609780546001600160a01b038381167fffffffffffffffffffffffff0000000000000000000000000000000000000000831681179093556040519116919082907f8be0079c531659141344cd1fd0a4f28419497f9722a3daafe3b4186f6b6457e090600090a35050565b600054610100900460ff166128d15760405162461bcd60e51b815260206004820152602b60248201527f496e697469616c697a61626c653a20636f6e7472616374206973206e6f74206960448201527f6e697469616c697a696e670000000000000000000000000000000000000000006064820152608401610a6e565b61171f612a51565b600054610100900460ff1661171f5760405162461bcd60e51b815260206004820152602b60248201527f496e697469616c697a61626c653a20636f6e7472616374206973206e6f74206960448201527f6e697469616c697a696e670000000000000000000000000000000000000000006064820152608401610a6e565b6001600160a01b0381163b6129d35760405162461bcd60e51b815260206004820152602d60248201527f455243313936373a206e657720696d706c656d656e746174696f6e206973206e60448201527f6f74206120636f6e7472616374000000000000000000000000000000000000006064820152608401610a6e565b7f360894a13ba1a3210667c828492db98dca3e2076cc3735a920a3ca505d382bbc80547fffffffffffffffffffffffff0000000000000000000000000000000000000000166001600160a01b0392909216919091179055565b612a3583612ad7565b600082511180612a425750805b15610703576124a58383612b17565b600054610100900460ff16612ace5760405162461bcd60e51b815260206004820152602b60248201527f496e697469616c697a61626c653a20636f6e7472616374206973206e6f74206960448201527f6e697469616c697a696e670000000000000000000000000000000000000000006064820152608401610a6e565b61171f336127ea565b612ae081612956565b6040516001600160a01b038216907fbc7cd75a20ee27fd9adebab32041f755214dbc6bffa90cc0225b39da2e5c2d3b90600090a250565b60606001600160a01b0383163b612b965760405162461bcd60e51b815260206004820152602660248201527f416464726573733a2064656c65676174652063616c6c20746f206e6f6e2d636f60448201527f6e747261637400000000000000000000000000000000000000000000000000006064820152608401610a6e565b600080846001600160a01b031684604051612bb191906132ac565b600060405180830381855af49150503d8060008114612bec576040519150601f19603f3d011682016040523d82523d6000602084013e612bf1565b606091505b5091509150612c1982826040518060600160405280602781526020016136d760279139612c22565b95945050505050565b60608315612c31575081612c5b565b825115612c415782518084602001fd5b8160405162461bcd60e51b8152600401610a6e9190613420565b9392505050565b828054612c6e906135eb565b90600052602060002090601f016020900481019282612c905760008555612cdd565b82601f10612ca15780548555612cdd565b82800160010185558215612cdd57600052602060002091601f016020900482015b82811115612cdd578254825591600101919060010190612cc2565b50612ce9929150612dd5565b5090565b828054612cf9906135eb565b90600052602060002090601f016020900481019282612d1b5760008555612cdd565b82601f10612d3457805160ff1916838001178555612cdd565b82800160010185558215612cdd579182015b82811115612cdd578251825591602001919060010190612d46565b828054612d6d906135eb565b90600052602060002090601f016020900481019282612d8f5760008555612cdd565b82601f10612da85782800160ff19823516178555612cdd565b82800160010185558215612cdd579182015b82811115612cdd578235825591602001919060010190612dba565b5b80821115612ce95760008155600101612dd6565b600067ffffffffffffffff80841115612e0557612e056136a7565b604051601f85017fffffffffffffffffffffffffffffffffffffffffffffffffffffffffffffffe0908116603f01168101908282118183101715612e4b57612e4b6136a7565b81604052809350858152868686011115612e6457600080fd5b858560208301376000602087830101525050509392505050565b80356001600160a01b0381168114612e9557600080fd5b919050565b600082601f830112612eaa578081fd5b612c5b83833560208501612dea565b600060208284031215612eca578081fd5b612c5b82612e7e565b60008060408385031215612ee5578081fd5b612eee83612e7e565b9150602083013567ffffffffffffffff811115612f09578182fd5b8301601f81018513612f19578182fd5b612f2885823560208401612dea565b9150509250929050565b600080600060408486031215612f46578081fd5b612f4f84612e7e565b9250602084013567ffffffffffffffff80821115612f6b578283fd5b818601915086601f830112612f7e578283fd5b813581811115612f8c578384fd5b876020828501011115612f9d578384fd5b6020830194508093505050509250925092565b60008060408385031215612fc2578182fd5b612fcb83612e7e565b946020939093013593505050565b600060208284031215612fea578081fd5b81518015158114612c5b578182fd5b60006020828403121561300a578081fd5b5051919050565b600080600060608486031215613025578283fd5b833567ffffffffffffffff8082111561303c578485fd5b61304887838801612e9a565b9450602086013591508082111561305d578384fd5b5061306a86828701612e9a565b925050604084013590509250925092565b6000806040838503121561308d578182fd5b823567ffffffffffffffff8111156130a3578283fd5b6130af85828601612e9a565b95602094909401359450505050565b6000602082840312156130cf578081fd5b5035919050565b60008060008060008060c087890312156130ee578182fd5b863595506130fe60208801612e7e565b9450604087013567ffffffffffffffff8082111561311a578384fd5b6131268a838b01612e9a565b9550606089013591508082111561313b578384fd5b5061314889828a01612e9a565b9350506080870135915060a087013590509295509295509295565b60008060008060808587031215613178578384fd5b84359350602085013567ffffffffffffffff80821115613196578485fd5b6131a288838901612e9a565b945060408701359150808211156131b7578384fd5b506131c487828801612e9a565b949793965093946060013593505050565b600080604083850312156131e7578182fd5b50508035926020909101359150565b6000815180845261320e81602086016020860161358a565b601f017fffffffffffffffffffffffffffffffffffffffffffffffffffffffffffffffe0169290920160200192915050565b805182526001600160a01b036020820151166020830152604081015160408301526000606082015160c0606085015261327c60c08501826131f6565b90506080830151848203608086015261329582826131f6565b91505060a083015160a08501528091505092915050565b600082516132be81846020870161358a565b9190910192915050565b6001600160a01b03841681526060602082015260006132ea60608301856131f6565b9050826040830152949350505050565b60006020808301818452808551808352604092508286019150828160051b870101848801865b83811015613393577fffffffffffffffffffffffffffffffffffffffffffffffffffffffffffffffc0898403018552815160606001600160a01b03825116855288820151818a870152613375828701826131f6565b92890151958901959095525094870194925090860190600101613320565b509098975050505050505050565b6000602080830181845280855180835260408601915060408160051b8701019250838701855b82811015613413577fffffffffffffffffffffffffffffffffffffffffffffffffffffffffffffffc0888603018452613401858351613240565b945092850192908501906001016133c7565b5092979650505050505050565b602081526000612c5b60208301846131f6565b60408152600080845482600182811c91508083168061345357607f831692505b602080841082141561348c577f4e487b710000000000000000000000000000000000000000000000000000000087526022600452602487fd5b60408801849052606088018280156134ab57600181146134bc576134e6565b60ff198716825282820197506134e6565b60008c815260209020895b878110156134e0578154848201529086019084016134c7565b83019850505b50508596506134ff8189018a6001600160a01b03169052565b5050505050509392505050565b602081526000612c5b6020830184613240565b8681526001600160a01b038616602082015284604082015260c06060820152600061354d60c08301866131f6565b828103608084015261355f81866131f6565b9150508260a0830152979650505050505050565b60008282101561358557613585613678565b500390565b60005b838110156135a557818101518382015260200161358d565b838111156124a55750506000910152565b6000816135c5576135c5613678565b507fffffffffffffffffffffffffffffffffffffffffffffffffffffffffffffffff0190565b600181811c908216806135ff57607f821691505b60208210811415613639577f4e487b7100000000000000000000000000000000000000000000000000000000600052602260045260246000fd5b50919050565b60007fffffffffffffffffffffffffffffffffffffffffffffffffffffffffffffffff82141561367157613671613678565b5060010190565b7f4e487b7100000000000000000000000000000000000000000000000000000000600052601160045260246000fd5b7f4e487b7100000000000000000000000000000000000000000000000000000000600052604160045260246000fdfe416464726573733a206c6f772d6c6576656c2064656c65676174652063616c6c206661696c6564a2646970667358221220f85cf9754ce008d8c35706074bad97fe589d3c2aa14ee3dfc9a56de6bc365f5d64736f6c63430008040033",
  "linkReferences": {},
  "deployedLinkReferences": {}
}