{
  "_format": "hh-sol-artifact-1",
  "contractName": "TubePoint",
  "sourceName": "contracts/TubePoint.sol",
  "abi": [
    {
      "anonymous": false,
      "inputs": [
        {
          "indexed": false,
          "internalType": "address",
          "name": "previousAdmin",
          "type": "address"
        },
        {
          "indexed": false,
          "internalType": "address",
          "name": "newAdmin",
          "type": "address"
        }
      ],
      "name": "AdminChanged",
      "type": "event"
    },
    {
      "anonymous": false,
      "inputs": [
        {
          "indexed": true,
          "internalType": "address",
          "name": "beacon",
          "type": "address"
        }
      ],
      "name": "BeaconUpgraded",
      "type": "event"
    },
    {
      "anonymous": false,
      "inputs": [
        {
          "indexed": false,
          "internalType": "address",
          "name": "user",
          "type": "address"
        },
        {
          "indexed": false,
          "internalType": "string",
          "name": "message",
          "type": "string"
        },
        {
          "indexed": false,
          "internalType": "uint256",
          "name": "timestamp",
          "type": "uint256"
        }
      ],
      "name": "Commented",
      "type": "event"
    },
    {
      "anonymous": false,
      "inputs": [
        {
          "indexed": false,
          "internalType": "uint256",
          "name": "_id",
          "type": "uint256"
        },
        {
          "indexed": false,
          "internalType": "uint256",
          "name": "_timestamp",
          "type": "uint256"
        }
      ],
      "name": "FileMigrated",
      "type": "event"
    },
    {
      "anonymous": false,
      "inputs": [
        {
          "indexed": false,
          "internalType": "uint256",
          "name": "id",
          "type": "uint256"
        },
        {
          "indexed": false,
          "internalType": "bytes32",
          "name": "fileId",
          "type": "bytes32"
        },
        {
          "indexed": false,
          "internalType": "address",
          "name": "from",
          "type": "address"
        },
        {
          "indexed": false,
          "internalType": "uint256",
          "name": "timestamp",
          "type": "uint256"
        }
      ],
      "name": "FileUploaded",
      "type": "event"
    },
    {
      "anonymous": false,
      "inputs": [
        {
          "indexed": false,
          "internalType": "uint8",
          "name": "version",
          "type": "uint8"
        }
      ],
      "name": "Initialized",
      "type": "event"
    },
    {
      "anonymous": false,
      "inputs": [
        {
          "indexed": true,
          "internalType": "address",
          "name": "previousOwner",
          "type": "address"
        },
        {
          "indexed": true,
          "internalType": "address",
          "name": "newOwner",
          "type": "address"
        }
      ],
      "name": "OwnershipTransferred",
      "type": "event"
    },
    {
      "anonymous": false,
      "inputs": [
        {
          "indexed": true,
          "internalType": "address",
          "name": "implementation",
          "type": "address"
        }
      ],
      "name": "Upgraded",
      "type": "event"
    },
    {
      "inputs": [
        {
          "internalType": "uint256",
          "name": "_id",
          "type": "uint256"
        },
        {
          "internalType": "address",
          "name": "_from",
          "type": "address"
        },
        {
          "internalType": "string",
          "name": "title",
          "type": "string"
        },
        {
          "internalType": "string",
          "name": "desc",
          "type": "string"
        },
        {
          "internalType": "bytes32",
          "name": "fileId",
          "type": "bytes32"
        },
        {
          "internalType": "uint256",
          "name": "dateTime",
          "type": "uint256"
        }
      ],
      "name": "addFilesFromMigration",
      "outputs": [],
      "stateMutability": "nonpayable",
      "type": "function"
    },
    {
      "inputs": [
        {
          "internalType": "uint256",
          "name": "id",
          "type": "uint256"
        }
      ],
      "name": "addToPlaylist",
      "outputs": [],
      "stateMutability": "nonpayable",
      "type": "function"
    },
    {
      "inputs": [
        {
          "internalType": "string",
          "name": "_message",
          "type": "string"
        },
        {
          "internalType": "uint256",
          "name": "id",
          "type": "uint256"
        }
      ],
      "name": "comment",
      "outputs": [],
      "stateMutability": "nonpayable",
      "type": "function"
    },
    {
      "inputs": [
        {
          "internalType": "uint256",
          "name": "",
          "type": "uint256"
        },
        {
          "internalType": "uint256",
          "name": "",
          "type": "uint256"
        }
      ],
      "name": "comments",
      "outputs": [
        {
          "internalType": "address",
          "name": "user",
          "type": "address"
        },
        {
          "internalType": "string",
          "name": "message",
          "type": "string"
        },
        {
          "internalType": "uint256",
          "name": "timestamp",
          "type": "uint256"
        }
      ],
      "stateMutability": "view",
      "type": "function"
    },
    {
      "inputs": [
        {
          "internalType": "uint256",
          "name": "id",
          "type": "uint256"
        }
      ],
      "name": "dislike",
      "outputs": [],
      "stateMutability": "nonpayable",
      "type": "function"
    },
    {
      "inputs": [
        {
          "internalType": "uint256",
          "name": "",
          "type": "uint256"
        }
      ],
      "name": "files",
      "outputs": [
        {
          "internalType": "uint256",
          "name": "id",
          "type": "uint256"
        },
        {
          "internalType": "address",
          "name": "from",
          "type": "address"
        },
        {
          "internalType": "bytes32",
          "name": "fileId",
          "type": "bytes32"
        },
        {
          "internalType": "string",
          "name": "title",
          "type": "string"
        },
        {
          "internalType": "string",
          "name": "desc",
          "type": "string"
        },
        {
          "internalType": "uint256",
          "name": "timestamp",
          "type": "uint256"
        }
      ],
      "stateMutability": "view",
      "type": "function"
    },
    {
      "inputs": [],
      "name": "getAllVideosLength",
      "outputs": [
        {
          "internalType": "uint256",
          "name": "",
          "type": "uint256"
        }
      ],
      "stateMutability": "view",
      "type": "function"
    },
    {
      "inputs": [
        {
          "internalType": "uint256",
          "name": "id",
          "type": "uint256"
        }
      ],
      "name": "getComments",
      "outputs": [
        {
          "components": [
            {
              "internalType": "address",
              "name": "user",
              "type": "address"
            },
            {
              "internalType": "string",
              "name": "message",
              "type": "string"
            },
            {
              "internalType": "uint256",
              "name": "timestamp",
              "type": "uint256"
            }
          ],
          "internalType": "struct TubePoint.Comment[]",
          "name": "",
          "type": "tuple[]"
        }
      ],
      "stateMutability": "view",
      "type": "function"
    },
    {
      "inputs": [
        {
          "internalType": "uint256",
          "name": "id",
          "type": "uint256"
        }
      ],
      "name": "getCommentsLength",
      "outputs": [
        {
          "internalType": "uint256",
          "name": "",
          "type": "uint256"
        }
      ],
      "stateMutability": "view",
      "type": "function"
    },
    {
      "inputs": [
        {
          "internalType": "uint256",
          "name": "id",
          "type": "uint256"
        }
      ],
      "name": "getLikes",
      "outputs": [
        {
          "internalType": "uint256",
          "name": "",
          "type": "uint256"
        }
      ],
      "stateMutability": "view",
      "type": "function"
    },
    {
      "inputs": [
        {
          "internalType": "uint256",
          "name": "cursor",
          "type": "uint256"
        },
        {
          "internalType": "uint256",
          "name": "howMany",
          "type": "uint256"
        }
      ],
      "name": "getPaginatedVideos",
      "outputs": [
        {
          "components": [
            {
              "internalType": "uint256",
              "name": "id",
              "type": "uint256"
            },
            {
              "internalType": "address",
              "name": "from",
              "type": "address"
            },
            {
              "internalType": "bytes32",
              "name": "fileId",
              "type": "bytes32"
            },
            {
              "internalType": "string",
              "name": "title",
              "type": "string"
            },
            {
              "internalType": "string",
              "name": "desc",
              "type": "string"
            },
            {
              "internalType": "uint256",
              "name": "timestamp",
              "type": "uint256"
            }
          ],
          "internalType": "struct TubePoint.File[]",
          "name": "",
          "type": "tuple[]"
        }
      ],
      "stateMutability": "view",
      "type": "function"
    },
    {
      "inputs": [
        {
          "internalType": "address",
          "name": "_address",
          "type": "address"
        }
      ],
      "name": "getPlaylist",
      "outputs": [
        {
          "components": [
            {
              "internalType": "uint256",
              "name": "id",
              "type": "uint256"
            },
            {
              "internalType": "address",
              "name": "from",
              "type": "address"
            },
            {
              "internalType": "bytes32",
              "name": "fileId",
              "type": "bytes32"
            },
            {
              "internalType": "string",
              "name": "title",
              "type": "string"
            },
            {
              "internalType": "string",
              "name": "desc",
              "type": "string"
            },
            {
              "internalType": "uint256",
              "name": "timestamp",
              "type": "uint256"
            }
          ],
          "internalType": "struct TubePoint.File[]",
          "name": "",
          "type": "tuple[]"
        }
      ],
      "stateMutability": "view",
      "type": "function"
    },
    {
      "inputs": [
        {
          "internalType": "address",
          "name": "_subAddress",
          "type": "address"
        }
      ],
      "name": "getSubscribe",
      "outputs": [
        {
          "internalType": "uint256",
          "name": "",
          "type": "uint256"
        }
      ],
      "stateMutability": "view",
      "type": "function"
    },
    {
      "inputs": [
        {
          "internalType": "uint256",
          "name": "fileId",
          "type": "uint256"
        }
      ],
      "name": "getVideo",
      "outputs": [
        {
          "components": [
            {
              "internalType": "uint256",
              "name": "id",
              "type": "uint256"
            },
            {
              "internalType": "address",
              "name": "from",
              "type": "address"
            },
            {
              "internalType": "bytes32",
              "name": "fileId",
              "type": "bytes32"
            },
            {
              "internalType": "string",
              "name": "title",
              "type": "string"
            },
            {
              "internalType": "string",
              "name": "desc",
              "type": "string"
            },
            {
              "internalType": "uint256",
              "name": "timestamp",
              "type": "uint256"
            }
          ],
          "internalType": "struct TubePoint.File",
          "name": "",
          "type": "tuple"
        }
      ],
      "stateMutability": "view",
      "type": "function"
    },
    {
      "inputs": [
        {
          "internalType": "address",
          "name": "_user",
          "type": "address"
        }
      ],
      "name": "getVideosByUser",
      "outputs": [
        {
          "components": [
            {
              "internalType": "uint256",
              "name": "id",
              "type": "uint256"
            },
            {
              "internalType": "address",
              "name": "from",
              "type": "address"
            },
            {
              "internalType": "bytes32",
              "name": "fileId",
              "type": "bytes32"
            },
            {
              "internalType": "string",
              "name": "title",
              "type": "string"
            },
            {
              "internalType": "string",
              "name": "desc",
              "type": "string"
            },
            {
              "internalType": "uint256",
              "name": "timestamp",
              "type": "uint256"
            }
          ],
          "internalType": "struct TubePoint.File[]",
          "name": "",
          "type": "tuple[]"
        }
      ],
      "stateMutability": "view",
      "type": "function"
    },
    {
      "inputs": [],
      "name": "initialize",
      "outputs": [],
      "stateMutability": "nonpayable",
      "type": "function"
    },
    {
      "inputs": [
        {
          "internalType": "address",
          "name": "_subAddress",
          "type": "address"
        }
      ],
      "name": "isSubscribed",
      "outputs": [
        {
          "internalType": "bool",
          "name": "",
          "type": "bool"
        }
      ],
      "stateMutability": "view",
      "type": "function"
    },
    {
      "inputs": [
        {
          "internalType": "uint256",
          "name": "id",
          "type": "uint256"
        }
      ],
      "name": "like",
      "outputs": [],
      "stateMutability": "nonpayable",
      "type": "function"
    },
    {
      "inputs": [
        {
          "internalType": "uint256",
          "name": "",
          "type": "uint256"
        }
      ],
      "name": "likes",
      "outputs": [
        {
          "internalType": "uint256",
          "name": "counter",
          "type": "uint256"
        }
      ],
      "stateMutability": "view",
      "type": "function"
    },
    {
      "inputs": [],
      "name": "owner",
      "outputs": [
        {
          "internalType": "address",
          "name": "",
          "type": "address"
        }
      ],
      "stateMutability": "view",
      "type": "function"
    },
    {
      "inputs": [
        {
          "internalType": "address",
          "name": "",
          "type": "address"
        },
        {
          "internalType": "uint256",
          "name": "",
          "type": "uint256"
        }
      ],
      "name": "playlist",
      "outputs": [
        {
          "internalType": "uint256",
          "name": "id",
          "type": "uint256"
        },
        {
          "internalType": "address",
          "name": "from",
          "type": "address"
        },
        {
          "internalType": "bytes32",
          "name": "fileId",
          "type": "bytes32"
        },
        {
          "internalType": "string",
          "name": "title",
          "type": "string"
        },
        {
          "internalType": "string",
          "name": "desc",
          "type": "string"
        },
        {
          "internalType": "uint256",
          "name": "timestamp",
          "type": "uint256"
        }
      ],
      "stateMutability": "view",
      "type": "function"
    },
    {
      "inputs": [],
      "name": "proxiableUUID",
      "outputs": [
        {
          "internalType": "bytes32",
          "name": "",
          "type": "bytes32"
        }
      ],
      "stateMutability": "view",
      "type": "function"
    },
    {
      "inputs": [],
      "name": "renounceOwnership",
      "outputs": [],
      "stateMutability": "nonpayable",
      "type": "function"
    },
    {
      "inputs": [
        {
          "internalType": "address",
          "name": "_subAddress",
          "type": "address"
        }
      ],
      "name": "subscribe",
      "outputs": [],
      "stateMutability": "nonpayable",
      "type": "function"
    },
    {
      "inputs": [
        {
          "internalType": "address",
          "name": "",
          "type": "address"
        }
      ],
      "name": "subscribers",
      "outputs": [
        {
          "internalType": "uint256",
          "name": "counter",
          "type": "uint256"
        }
      ],
      "stateMutability": "view",
      "type": "function"
    },
    {
      "inputs": [
        {
          "internalType": "address",
          "name": "newOwner",
          "type": "address"
        }
      ],
      "name": "transferOwnership",
      "outputs": [],
      "stateMutability": "nonpayable",
      "type": "function"
    },
    {
      "inputs": [
        {
          "internalType": "address",
          "name": "_subAddress",
          "type": "address"
        }
      ],
      "name": "unSubscribe",
      "outputs": [],
      "stateMutability": "nonpayable",
      "type": "function"
    },
    {
      "inputs": [
        {
          "internalType": "uint256",
          "name": "id",
          "type": "uint256"
        },
        {
          "internalType": "string",
          "name": "title",
          "type": "string"
        },
        {
          "internalType": "string",
          "name": "desc",
          "type": "string"
        },
        {
          "internalType": "bytes32",
          "name": "fileId",
          "type": "bytes32"
        }
      ],
      "name": "updateVideo",
      "outputs": [],
      "stateMutability": "nonpayable",
      "type": "function"
    },
    {
      "inputs": [
        {
          "internalType": "address",
          "name": "newImplementation",
          "type": "address"
        }
      ],
      "name": "upgradeTo",
      "outputs": [],
      "stateMutability": "nonpayable",
      "type": "function"
    },
    {
      "inputs": [
        {
          "internalType": "address",
          "name": "newImplementation",
          "type": "address"
        },
        {
          "internalType": "bytes",
          "name": "data",
          "type": "bytes"
        }
      ],
      "name": "upgradeToAndCall",
      "outputs": [],
      "stateMutability": "payable",
      "type": "function"
    },
    {
      "inputs": [
        {
          "internalType": "string",
          "name": "title",
          "type": "string"
        },
        {
          "internalType": "string",
          "name": "desc",
          "type": "string"
        },
        {
          "internalType": "bytes32",
          "name": "fileId",
          "type": "bytes32"
        }
      ],
      "name": "uploadVideo",
      "outputs": [],
      "stateMutability": "nonpayable",
      "type": "function"
    },
    {
      "inputs": [
        {
          "internalType": "address",
          "name": "",
          "type": "address"
        },
        {
          "internalType": "uint256",
          "name": "",
          "type": "uint256"
        }
      ],
      "name": "userLinkedFiles",
      "outputs": [
        {
          "internalType": "uint256",
          "name": "id",
          "type": "uint256"
        },
        {
          "internalType": "address",
          "name": "from",
          "type": "address"
        },
        {
          "internalType": "bytes32",
          "name": "fileId",
          "type": "bytes32"
        },
        {
          "internalType": "string",
          "name": "title",
          "type": "string"
        },
        {
          "internalType": "string",
          "name": "desc",
          "type": "string"
        },
        {
          "internalType": "uint256",
          "name": "timestamp",
          "type": "uint256"
        }
      ],
      "stateMutability": "view",
      "type": "function"
    }
  ],
  "bytecode": "0x60a06040523060601b60805234801561001757600080fd5b5060805160601c61363f610060600039600081816109f101528181610a8c01528181610c8401528181610d1a01528181610e15015281816119f50152611a8b015261363f6000f3fe6080604052600436106101e35760003560e01c80637e091bff11610102578063b92ae87c11610095578063f2fde38b11610064578063f2fde38b146105f4578063f4c714b414610614578063f64faf3114610634578063fc6c776f1461066a57600080fd5b8063b92ae87c14610548578063d27598791461059f578063d927af7b146105b4578063e82935da146105d457600080fd5b806396a01631116100d157806396a01631146104bb5780639dfa9f73146104db578063a209081e146104fb578063a8db2e321461052857600080fd5b80637e091bff1461041f5780637e9dffe6146104515780638129fc1c1461047e5780638da5cb5b1461049357600080fd5b8063567cf4371161017a5780635f54241c116101495780635f54241c146103aa57806360492269146103ca578063618f8bbb146103ea578063715018a61461040a57600080fd5b8063567cf437146103105780635745ae28146103305780635c751ff21461035d5780635e8972241461037d57600080fd5b806341a7726a116101b657806341a7726a1461028d5780634f1ef286146102ad57806352273582146102c057806352d1902d146102fb57600080fd5b8063041d8c91146101e857806323edf6971461020a5780632893eca2146102405780633659cfe61461026d575b600080fd5b3480156101f457600080fd5b50610208610203366004612e25565b610699565b005b34801561021657600080fd5b5061022a610225366004612fac565b61071b565b60405161023791906131e8565b60405180910390f35b34801561024c57600080fd5b5061026061025b366004612fac565b61083f565b6040516102379190613418565b34801561027957600080fd5b50610208610288366004612e25565b6109e6565b34801561029957600080fd5b506102086102a8366004612e25565b610b89565b6102086102bb366004612e3f565b610c79565b3480156102cc57600080fd5b506102ed6102db366004612fac565b600090815260cc602052604090205490565b604051908152602001610237565b34801561030757600080fd5b506102ed610e08565b34801561031c57600080fd5b5061020861032b366004612fac565b610ecd565b34801561033c57600080fd5b506102ed61034b366004612e25565b60cf6020526000908152604090205481565b34801561036957600080fd5b50610208610378366004612f69565b6110a6565b34801561038957600080fd5b5061039d610398366004612e25565b611198565b604051610237919061328f565b3480156103b657600080fd5b5061039d6103c53660046130c3565b61135b565b3480156103d657600080fd5b506102086103e5366004612eff565b6114c0565b3480156103f657600080fd5b50610208610405366004612fac565b6116f2565b34801561041657600080fd5b5061020861175c565b34801561042b57600080fd5b5061043f61043a366004612e9e565b611770565b6040516102379695949392919061342b565b34801561045d57600080fd5b506102ed61046c366004612fac565b60ce6020526000908152604090205481565b34801561048a57600080fd5b506102086118e0565b34801561049f57600080fd5b506097546040516001600160a01b039091168152602001610237565b3480156104c757600080fd5b506102086104d6366004613051565b611bd5565b3480156104e757600080fd5b5061043f6104f6366004612e9e565b611d2e565b34801561050757600080fd5b506102ed610516366004612fac565b600090815260ce602052604090205490565b34801561053457600080fd5b5061039d610543366004612e25565b611d4a565b34801561055457600080fd5b5061058f610563366004612e25565b6001600160a01b0316600090815260cf6020908152604080832033845260010190915290205460ff1690565b6040519015158152602001610237565b3480156105ab57600080fd5b506102ed61206b565b3480156105c057600080fd5b506102086105cf366004612fc4565b61207b565b3480156105e057600080fd5b506102086105ef366004612fac565b612389565b34801561060057600080fd5b5061020861060f366004612e25565b6123f8565b34801561062057600080fd5b5061043f61062f366004612fac565b612485565b34801561064057600080fd5b506102ed61064f366004612e25565b6001600160a01b0316600090815260cf602052604090205490565b34801561067657600080fd5b5061068a6106853660046130c3565b6124bf565b604051610237939291906131b6565b6001600160a01b038116600090815260cf602090815260408083203384526001808201909352922080547fffffffffffffffffffffffffffffffffffffffffffffffffffffffffffffff00811690915560ff16908115151480156106fd5750815415155b15610716578154826000610710836134c2565b91905055505b505050565b606060cc6000838152602001908152602001600020805480602002602001604051908101604052809291908181526020016000905b8282101561083457600084815260209081902060408051606081019091526003850290910180546001600160a01b031682526001810180549293919291840191610799906134f7565b80601f01602080910402602001604051908101604052809291908181526020018280546107c5906134f7565b80156108125780601f106107e757610100808354040283529160200191610812565b820191906000526020600020905b8154815290600101906020018083116107f557829003601f168201915b5050505050815260200160028201548152505081526020019060010190610750565b505050509050919050565b6040805160c080820183526000808352602080840182905283850182905260608085018190526080850181905260a0850183905286835260ca825291859020855193840186528054845260018101546001600160a01b03169184019190915260028101549483019490945260038401805493949293918401916108c1906134f7565b80601f01602080910402602001604051908101604052809291908181526020018280546108ed906134f7565b801561093a5780601f1061090f5761010080835404028352916020019161093a565b820191906000526020600020905b81548152906001019060200180831161091d57829003601f168201915b50505050508152602001600482018054610953906134f7565b80601f016020809104026020016040519081016040528092919081815260200182805461097f906134f7565b80156109cc5780601f106109a1576101008083540402835291602001916109cc565b820191906000526020600020905b8154815290600101906020018083116109af57829003601f168201915b505050505081526020016005820154815250509050919050565b306001600160a01b037f0000000000000000000000000000000000000000000000000000000000000000161415610a8a5760405162461bcd60e51b815260206004820152602c60248201527f46756e6374696f6e206d7573742062652063616c6c6564207468726f7567682060448201527f64656c656761746563616c6c000000000000000000000000000000000000000060648201526084015b60405180910390fd5b7f00000000000000000000000000000000000000000000000000000000000000006001600160a01b0316610ae57f360894a13ba1a3210667c828492db98dca3e2076cc3735a920a3ca505d382bbc546001600160a01b031690565b6001600160a01b031614610b615760405162461bcd60e51b815260206004820152602c60248201527f46756e6374696f6e206d7573742062652063616c6c6564207468726f7567682060448201527f6163746976652070726f787900000000000000000000000000000000000000006064820152608401610a81565b610b6a81612595565b60408051600080825260208201909252610b869183919061259d565b50565b6001600160a01b038116600090815260cf60209081526040808320338452600181019092529091205460ff1615610c285760405162461bcd60e51b815260206004820152602360248201527f596f7520616c7265616479207375627363726962656420746f2074686973207560448201527f73657200000000000000000000000000000000000000000000000000000000006064820152608401610a81565b8054816000610c368361354b565b909155505033600090815260019182016020526040902080547fffffffffffffffffffffffffffffffffffffffffffffffffffffffffffffff0016909117905550565b306001600160a01b037f0000000000000000000000000000000000000000000000000000000000000000161415610d185760405162461bcd60e51b815260206004820152602c60248201527f46756e6374696f6e206d7573742062652063616c6c6564207468726f7567682060448201527f64656c656761746563616c6c00000000000000000000000000000000000000006064820152608401610a81565b7f00000000000000000000000000000000000000000000000000000000000000006001600160a01b0316610d737f360894a13ba1a3210667c828492db98dca3e2076cc3735a920a3ca505d382bbc546001600160a01b031690565b6001600160a01b031614610def5760405162461bcd60e51b815260206004820152602c60248201527f46756e6374696f6e206d7573742062652063616c6c6564207468726f7567682060448201527f6163746976652070726f787900000000000000000000000000000000000000006064820152608401610a81565b610df882612595565b610e048282600161259d565b5050565b6000306001600160a01b037f00000000000000000000000000000000000000000000000000000000000000001614610ea85760405162461bcd60e51b815260206004820152603860248201527f555550535570677261646561626c653a206d757374206e6f742062652063616c60448201527f6c6564207468726f7567682064656c656761746563616c6c00000000000000006064820152608401610a81565b507f360894a13ba1a3210667c828492db98dca3e2076cc3735a920a3ca505d382bbc90565b6000805b33600090815260cd6020526040902054811015610f665733600090815260cd60205260409020805484919083908110610f33577f4e487b7100000000000000000000000000000000000000000000000000000000600052603260045260246000fd5b9060005260206000209060060201600001541415610f545760019150610f66565b80610f5e8161354b565b915050610ed1565b508015610fdb5760405162461bcd60e51b815260206004820152602d60248201527f796f75206861766520616c72656164792061646465642074686973207669646560448201527f6f20696e20706c61796c697374000000000000000000000000000000000000006064820152608401610a81565b33600090815260cd6020908152604080832085845260ca83529083208154600181810184559285529290932083546006909302019182558083015490820180547fffffffffffffffffffffffff0000000000000000000000000000000000000000166001600160a01b039290921691909117905560028083015490820155600380830180549183019161106d906134f7565b611078929190612c42565b50600482018160040190805461108d906134f7565b611098929190612c42565b506005918201549101555050565b60008251116110b457600080fd5b336110be57600080fd5b600081815260cc602090815260408083208151606081018352338152808401878152429382019390935281546001808201845592865294849020815160039096020180547fffffffffffffffffffffffff0000000000000000000000000000000000000000166001600160a01b039096169590951785559151805192949361114c9392850192910190612ccd565b506040820151816002015550507f59aee10a182c49d9f99f11ce9e7eac21ff5c85878c9a52a91f4be25c9a4e0f4033834260405161118c939291906131b6565b60405180910390a15050565b6001600160a01b038116600090815260cd60209081526040808320805482518185028101850190935280835260609492939192909184015b828210156108345760008481526020908190206040805160c081018252600686029092018054835260018101546001600160a01b03169383019390935260028301549082015260038201805491929160608401919061122e906134f7565b80601f016020809104026020016040519081016040528092919081815260200182805461125a906134f7565b80156112a75780601f1061127c576101008083540402835291602001916112a7565b820191906000526020600020905b81548152906001019060200180831161128a57829003601f168201915b505050505081526020016004820180546112c0906134f7565b80601f01602080910402602001604051908101604052809291908181526020018280546112ec906134f7565b80156113395780601f1061130e57610100808354040283529160200191611339565b820191906000526020600020905b81548152906001019060200180831161131c57829003601f168201915b50505050508152602001600582015481525050815260200190600101906111d0565b60608161136760c95490565b811115611373575060c9545b60008167ffffffffffffffff8111156113b5577f4e487b7100000000000000000000000000000000000000000000000000000000600052604160045260246000fd5b60405190808252806020026020018201604052801561143257816020015b6040805160c081018252600080825260208083018290529282018190526060808301819052608083015260a082015282527fffffffffffffffffffffffffffffffffffffffffffffffffffffffffffffffff9092019101816113d35790505b50905060015b8281116114b7576114488661083f565b8261145460018461347f565b8151811061148b577f4e487b7100000000000000000000000000000000000000000000000000000000600052603260045260246000fd5b602002602001018190525085806114a19061354b565b96505080806114af9061354b565b915050611438565b50949350505050565b336114ca57600080fd5b6114d860c980546001019055565b6040518060c001604052806114ec60c95490565b8152602001336001600160a01b031681526020018281526020018481526020018381526020014281525060ca600061152360c95490565b8152602080820192909252604090810160002083518155838301516001820180547fffffffffffffffffffffffff0000000000000000000000000000000000000000166001600160a01b0390921691909117905590830151600282015560608301518051919261159b92600385019290910190612ccd565b50608082015180516115b7916004840191602090910190612ccd565b5060a0919091015160059091015533600090815260cb602052604081209060ca906115e160c95490565b815260208082019290925260400160009081208354600181810186559483529290912081546006909302019182558281015492820180547fffffffffffffffffffffffff0000000000000000000000000000000000000000166001600160a01b039094169390931790925560028083015490820155600380830180549183019161166a906134f7565b611675929190612c42565b50600482018160040190805461168a906134f7565b611695929190612c42565b506005918201549101557fbdb0068d4dc68bfc2ab68bb13ee946cc8e0742af7a38904598d16440dac68dc26116c960c95490565b6040805191825260208201849052339082015242606082015260800160405180910390a1505050565b600081815260ce602090815260408083203384526001808201909352922080547fffffffffffffffffffffffffffffffffffffffffffffffffffffffffffffff00811690915560ff16908115151480156106fd5750815415610716578154826000610710836134c2565b61176461276a565b61176e60006127c4565b565b60cb602052816000526040600020818154811061178c57600080fd5b600091825260209091206006909102018054600182015460028301546003840180549396506001600160a01b03909216945092916117c9906134f7565b80601f01602080910402602001604051908101604052809291908181526020018280546117f5906134f7565b80156118425780601f1061181757610100808354040283529160200191611842565b820191906000526020600020905b81548152906001019060200180831161182557829003601f168201915b505050505090806004018054611857906134f7565b80601f0160208091040260200160405190810160405280929190818152602001828054611883906134f7565b80156118d05780601f106118a5576101008083540402835291602001916118d0565b820191906000526020600020905b8154815290600101906020018083116118b357829003601f168201915b5050505050908060050154905086565b600054610100900460ff16158080156119005750600054600160ff909116105b8061191a5750303b15801561191a575060005460ff166001145b61198c5760405162461bcd60e51b815260206004820152602e60248201527f496e697469616c697a61626c653a20636f6e747261637420697320616c72656160448201527f647920696e697469616c697a65640000000000000000000000000000000000006064820152608401610a81565b600080547fffffffffffffffffffffffffffffffffffffffffffffffffffffffffffffff0016600117905580156119ea57600080547fffffffffffffffffffffffffffffffffffffffffffffffffffffffffffff00ff166101001790555b306001600160a01b037f0000000000000000000000000000000000000000000000000000000000000000161415611a895760405162461bcd60e51b815260206004820152602c60248201527f46756e6374696f6e206d7573742062652063616c6c6564207468726f7567682060448201527f64656c656761746563616c6c00000000000000000000000000000000000000006064820152608401610a81565b7f00000000000000000000000000000000000000000000000000000000000000006001600160a01b0316611ae47f360894a13ba1a3210667c828492db98dca3e2076cc3735a920a3ca505d382bbc546001600160a01b031690565b6001600160a01b031614611b605760405162461bcd60e51b815260206004820152602c60248201527f46756e6374696f6e206d7573742062652063616c6c6564207468726f7567682060448201527f6163746976652070726f787900000000000000000000000000000000000000006064820152608401610a81565b611b6861282e565b611b706128b3565b8015610b8657600080547fffffffffffffffffffffffffffffffffffffffffffffffffffffffffffff00ff169055604051600181527f7f26b83ff96e1f2b6a682f133852f6798a09c465da95921460cefb38474024989060200160405180910390a150565b60008411611be257600080fd5b600084815260ca6020526040902060018101546001600160a01b03163314611c4c5760405162461bcd60e51b815260206004820152601a60248201527f596f752063616e6e6f742065646974207468697320766964656f0000000000006044820152606401610a81565b60018101546001600160a01b0316611ca65760405162461bcd60e51b815260206004820152601060248201527f5265636f7264206e6f7420666f756e64000000000000000000000000000000006044820152606401610a81565b8351611cbb9060038301906020870190612ccd565b508251611cd19060048301906020860190612ccd565b50600281018290554260058201819055604080518781526020810185905233818301526060810192909252517fbdb0068d4dc68bfc2ab68bb13ee946cc8e0742af7a38904598d16440dac68dc29181900360800190a15050505050565b60cd602052816000526040600020818154811061178c57600080fd5b6001600160a01b038116600090815260cb60205260408120546060918167ffffffffffffffff811115611da6577f4e487b7100000000000000000000000000000000000000000000000000000000600052604160045260246000fd5b604051908082528060200260200182016040528015611e2357816020015b6040805160c081018252600080825260208083018290529282018190526060808301819052608083015260a082015282527fffffffffffffffffffffffffffffffffffffffffffffffffffffffffffffffff909201910181611dc45790505b50905060005b82811015612063576001600160a01b038516600090815260cb60205260409020805482908110611e82577f4e487b7100000000000000000000000000000000000000000000000000000000600052603260045260246000fd5b90600052602060002090600602016040518060c0016040529081600082015481526020016001820160009054906101000a90046001600160a01b03166001600160a01b03166001600160a01b0316815260200160028201548152602001600382018054611eee906134f7565b80601f0160208091040260200160405190810160405280929190818152602001828054611f1a906134f7565b8015611f675780601f10611f3c57610100808354040283529160200191611f67565b820191906000526020600020905b815481529060010190602001808311611f4a57829003601f168201915b50505050508152602001600482018054611f80906134f7565b80601f0160208091040260200160405190810160405280929190818152602001828054611fac906134f7565b8015611ff95780601f10611fce57610100808354040283529160200191611ff9565b820191906000526020600020905b815481529060010190602001808311611fdc57829003601f168201915b50505050508152602001600582015481525050828281518110612045577f4e487b7100000000000000000000000000000000000000000000000000000000600052603260045260246000fd5b6020026020010181905250808061205b9061354b565b915050611e29565b509392505050565b600061207660c95490565b905090565b60d0546040517faf1d5e480000000000000000000000000000000000000000000000000000000081526001600160a01b039091169063af1d5e48906120c79060d1903390600401613321565b60206040518083038186803b1580156120df57600080fd5b505afa1580156120f3573d6000803e3d6000fd5b505050506040513d601f19601f820116820180604052508101906121179190612ec7565b6121635760405162461bcd60e51b815260206004820152600e60248201527f4e6f742061206465706c6f7965720000000000000000000000000000000000006044820152606401610a81565b6001600160a01b03851661217657600080fd5b6040805160c0810182528781526001600160a01b038781166020808401918252838501878152606085018a8152608086018a905260a0860188905260008d815260ca8452969096208551815592516001840180547fffffffffffffffffffffffff000000000000000000000000000000000000000016919095161790935591516002820155925180519293926122129260038501920190612ccd565b506080820151805161222e916004840191602090910190612ccd565b5060a0919091015160059091015533600090815260cb6020908152604080832089845260ca83529083208154600181810184559285529290932083546006909302019182558083015490820180547fffffffffffffffffffffffff0000000000000000000000000000000000000000166001600160a01b03929092169190911790556002808301549082015560038083018054918301916122ce906134f7565b6122d9929190612c42565b5060048201816004019080546122ee906134f7565b6122f9929190612c42565b50600591820154910155604080518781526020810184905233818301526060810183905290517fbdb0068d4dc68bfc2ab68bb13ee946cc8e0742af7a38904598d16440dac68dc29181900360800190a1604080518781524260208201527fbd391401f0a25cf7ff74a2c8c0b109d162a27f6007f6a39b00d6be9866fc3e97910160405180910390a1505050505050565b600081815260ce60209081526040808320338452600181019092529091205460ff1615610c285760405162461bcd60e51b815260206004820152601c60248201527f596f7520616c7265616479206c696b6564207468697320766964656f000000006044820152606401610a81565b61240061276a565b6001600160a01b03811661247c5760405162461bcd60e51b815260206004820152602660248201527f4f776e61626c653a206e6577206f776e657220697320746865207a65726f206160448201527f64647265737300000000000000000000000000000000000000000000000000006064820152608401610a81565b610b86816127c4565b60ca60205260009081526040902080546001820154600283015460038401805493946001600160a01b03909316939192916117c9906134f7565b60cc60205281600052604060002081815481106124db57600080fd5b6000918252602090912060039091020180546001820180546001600160a01b03909216945091925061250c906134f7565b80601f0160208091040260200160405190810160405280929190818152602001828054612538906134f7565b80156125855780601f1061255a57610100808354040283529160200191612585565b820191906000526020600020905b81548152906001019060200180831161256857829003601f168201915b5050505050908060020154905083565b610b8661276a565b7f4910fdfa16fed3260ed0e7147f7cc6da11a60208b5b9406d12a635614ffd91435460ff16156125d05761071683612930565b826001600160a01b03166352d1902d6040518163ffffffff1660e01b815260040160206040518083038186803b15801561260957600080fd5b505afa925050508015612657575060408051601f3d9081017fffffffffffffffffffffffffffffffffffffffffffffffffffffffffffffffe016820190925261265491810190612ee7565b60015b6126c95760405162461bcd60e51b815260206004820152602e60248201527f45524331393637557067726164653a206e657720696d706c656d656e7461746960448201527f6f6e206973206e6f7420555550530000000000000000000000000000000000006064820152608401610a81565b7f360894a13ba1a3210667c828492db98dca3e2076cc3735a920a3ca505d382bbc811461275e5760405162461bcd60e51b815260206004820152602960248201527f45524331393637557067726164653a20756e737570706f727465642070726f7860448201527f6961626c655555494400000000000000000000000000000000000000000000006064820152608401610a81565b50610716838383612a06565b6097546001600160a01b0316331461176e5760405162461bcd60e51b815260206004820181905260248201527f4f776e61626c653a2063616c6c6572206973206e6f7420746865206f776e65726044820152606401610a81565b609780546001600160a01b038381167fffffffffffffffffffffffff0000000000000000000000000000000000000000831681179093556040519116919082907f8be0079c531659141344cd1fd0a4f28419497f9722a3daafe3b4186f6b6457e090600090a35050565b600054610100900460ff166128ab5760405162461bcd60e51b815260206004820152602b60248201527f496e697469616c697a61626c653a20636f6e7472616374206973206e6f74206960448201527f6e697469616c697a696e670000000000000000000000000000000000000000006064820152608401610a81565b61176e612a31565b600054610100900460ff1661176e5760405162461bcd60e51b815260206004820152602b60248201527f496e697469616c697a61626c653a20636f6e7472616374206973206e6f74206960448201527f6e697469616c697a696e670000000000000000000000000000000000000000006064820152608401610a81565b6001600160a01b0381163b6129ad5760405162461bcd60e51b815260206004820152602d60248201527f455243313936373a206e657720696d706c656d656e746174696f6e206973206e60448201527f6f74206120636f6e7472616374000000000000000000000000000000000000006064820152608401610a81565b7f360894a13ba1a3210667c828492db98dca3e2076cc3735a920a3ca505d382bbc80547fffffffffffffffffffffffff0000000000000000000000000000000000000000166001600160a01b0392909216919091179055565b612a0f83612ab7565b600082511180612a1c5750805b1561071657612a2b8383612af7565b50505050565b600054610100900460ff16612aae5760405162461bcd60e51b815260206004820152602b60248201527f496e697469616c697a61626c653a20636f6e7472616374206973206e6f74206960448201527f6e697469616c697a696e670000000000000000000000000000000000000000006064820152608401610a81565b61176e336127c4565b612ac081612930565b6040516001600160a01b038216907fbc7cd75a20ee27fd9adebab32041f755214dbc6bffa90cc0225b39da2e5c2d3b90600090a250565b60606001600160a01b0383163b612b765760405162461bcd60e51b815260206004820152602660248201527f416464726573733a2064656c65676174652063616c6c20746f206e6f6e2d636f60448201527f6e747261637400000000000000000000000000000000000000000000000000006064820152608401610a81565b600080846001600160a01b031684604051612b91919061319a565b600060405180830381855af49150503d8060008114612bcc576040519150601f19603f3d011682016040523d82523d6000602084013e612bd1565b606091505b5091509150612bf982826040518060600160405280602781526020016135e360279139612c02565b95945050505050565b60608315612c11575081612c3b565b825115612c215782518084602001fd5b8160405162461bcd60e51b8152600401610a81919061330e565b9392505050565b828054612c4e906134f7565b90600052602060002090601f016020900481019282612c705760008555612cbd565b82601f10612c815780548555612cbd565b82800160010185558215612cbd57600052602060002091601f016020900482015b82811115612cbd578254825591600101919060010190612ca2565b50612cc9929150612d41565b5090565b828054612cd9906134f7565b90600052602060002090601f016020900481019282612cfb5760008555612cbd565b82601f10612d1457805160ff1916838001178555612cbd565b82800160010185558215612cbd579182015b82811115612cbd578251825591602001919060010190612d26565b5b80821115612cc95760008155600101612d42565b600067ffffffffffffffff80841115612d7157612d716135b3565b604051601f85017fffffffffffffffffffffffffffffffffffffffffffffffffffffffffffffffe0908116603f01168101908282118183101715612db757612db76135b3565b81604052809350858152868686011115612dd057600080fd5b858560208301376000602087830101525050509392505050565b80356001600160a01b0381168114612e0157600080fd5b919050565b600082601f830112612e16578081fd5b612c3b83833560208501612d56565b600060208284031215612e36578081fd5b612c3b82612dea565b60008060408385031215612e51578081fd5b612e5a83612dea565b9150602083013567ffffffffffffffff811115612e75578182fd5b8301601f81018513612e85578182fd5b612e9485823560208401612d56565b9150509250929050565b60008060408385031215612eb0578182fd5b612eb983612dea565b946020939093013593505050565b600060208284031215612ed8578081fd5b81518015158114612c3b578182fd5b600060208284031215612ef8578081fd5b5051919050565b600080600060608486031215612f13578081fd5b833567ffffffffffffffff80821115612f2a578283fd5b612f3687838801612e06565b94506020860135915080821115612f4b578283fd5b50612f5886828701612e06565b925050604084013590509250925092565b60008060408385031215612f7b578182fd5b823567ffffffffffffffff811115612f91578283fd5b612f9d85828601612e06565b95602094909401359450505050565b600060208284031215612fbd578081fd5b5035919050565b60008060008060008060c08789031215612fdc578182fd5b86359550612fec60208801612dea565b9450604087013567ffffffffffffffff80821115613008578384fd5b6130148a838b01612e06565b95506060890135915080821115613029578384fd5b5061303689828a01612e06565b9350506080870135915060a087013590509295509295509295565b60008060008060808587031215613066578384fd5b84359350602085013567ffffffffffffffff80821115613084578485fd5b61309088838901612e06565b945060408701359150808211156130a5578384fd5b506130b287828801612e06565b949793965093946060013593505050565b600080604083850312156130d5578182fd5b50508035926020909101359150565b600081518084526130fc816020860160208601613496565b601f017fffffffffffffffffffffffffffffffffffffffffffffffffffffffffffffffe0169290920160200192915050565b805182526001600160a01b036020820151166020830152604081015160408301526000606082015160c0606085015261316a60c08501826130e4565b90506080830151848203608086015261318382826130e4565b91505060a083015160a08501528091505092915050565b600082516131ac818460208701613496565b9190910192915050565b6001600160a01b03841681526060602082015260006131d860608301856130e4565b9050826040830152949350505050565b60006020808301818452808551808352604092508286019150828160051b870101848801865b83811015613281577fffffffffffffffffffffffffffffffffffffffffffffffffffffffffffffffc0898403018552815160606001600160a01b03825116855288820151818a870152613263828701826130e4565b9289015195890195909552509487019492509086019060010161320e565b509098975050505050505050565b6000602080830181845280855180835260408601915060408160051b8701019250838701855b82811015613301577fffffffffffffffffffffffffffffffffffffffffffffffffffffffffffffffc08886030184526132ef85835161312e565b945092850192908501906001016132b5565b5092979650505050505050565b602081526000612c3b60208301846130e4565b60408152600080845482600182811c91508083168061334157607f831692505b602080841082141561337a577f4e487b710000000000000000000000000000000000000000000000000000000087526022600452602487fd5b604088018490526060880182801561339957600181146133c8576133f2565b7fffffffffffffffffffffffffffffffffffffffffffffffffffffffffffffff008716825282820197506133f2565b60008c815260209020895b878110156133ec578154848201529086019084016133d3565b83019850505b505085965061340b8189018a6001600160a01b03169052565b5050505050509392505050565b602081526000612c3b602083018461312e565b8681526001600160a01b038616602082015284604082015260c06060820152600061345960c08301866130e4565b828103608084015261346b81866130e4565b9150508260a0830152979650505050505050565b60008282101561349157613491613584565b500390565b60005b838110156134b1578181015183820152602001613499565b83811115612a2b5750506000910152565b6000816134d1576134d1613584565b507fffffffffffffffffffffffffffffffffffffffffffffffffffffffffffffffff0190565b600181811c9082168061350b57607f821691505b60208210811415613545577f4e487b7100000000000000000000000000000000000000000000000000000000600052602260045260246000fd5b50919050565b60007fffffffffffffffffffffffffffffffffffffffffffffffffffffffffffffffff82141561357d5761357d613584565b5060010190565b7f4e487b7100000000000000000000000000000000000000000000000000000000600052601160045260246000fd5b7f4e487b7100000000000000000000000000000000000000000000000000000000600052604160045260246000fdfe416464726573733a206c6f772d6c6576656c2064656c65676174652063616c6c206661696c6564a2646970667358221220813072bfad5ca163bdbd99eedba46e5481b2ab29054ee2749e5c2c2bdde9a74464736f6c63430008040033",
  "linkReferences": {},
  "deployedLinkReferences": {}
}